{
  "contractName": "deployPool",
  "abi": [
    {
      "inputs": [
        {
          "internalType": "address",
          "name": "_poolOwner",
          "type": "address"
        },
        {
          "internalType": "address",
          "name": "_poolRegistry",
          "type": "address"
        },
        {
          "internalType": "uint256",
          "name": "_paymentCycleDuration",
          "type": "uint256"
        },
        {
          "internalType": "uint256",
          "name": "_paymentDefaultDuration",
          "type": "uint256"
        },
        {
          "internalType": "uint256",
          "name": "_feePercent",
          "type": "uint256"
        }
      ],
      "stateMutability": "nonpayable",
      "type": "constructor"
    },
    {
      "anonymous": false,
      "inputs": [
        {
          "indexed": false,
          "internalType": "address",
          "name": "reciever",
          "type": "address"
        },
        {
          "indexed": false,
          "internalType": "uint256",
          "name": "BidId",
          "type": "uint256"
        },
        {
          "indexed": false,
          "internalType": "uint256",
          "name": "PoolId",
          "type": "uint256"
        },
        {
          "indexed": false,
          "internalType": "uint256",
          "name": "Amount",
          "type": "uint256"
        },
        {
          "indexed": false,
          "internalType": "uint256",
          "name": "paymentCycleAmount",
          "type": "uint256"
        }
      ],
      "name": "AcceptedBid",
      "type": "event"
    },
    {
      "anonymous": false,
      "inputs": [
        {
          "indexed": true,
          "internalType": "uint256",
          "name": "bidId",
          "type": "uint256"
        },
        {
          "indexed": false,
          "internalType": "uint256",
          "name": "PaidAmount",
          "type": "uint256"
        }
      ],
      "name": "BidRepaid",
      "type": "event"
    },
    {
      "anonymous": false,
      "inputs": [
        {
          "indexed": true,
          "internalType": "uint256",
          "name": "bidId",
          "type": "uint256"
        },
        {
          "indexed": false,
          "internalType": "uint256",
          "name": "PaidAmount",
          "type": "uint256"
        }
      ],
      "name": "BidRepayment",
      "type": "event"
    },
    {
      "anonymous": false,
      "inputs": [
        {
          "indexed": true,
          "internalType": "address",
          "name": "lender",
          "type": "address"
        },
        {
          "indexed": true,
          "internalType": "uint256",
          "name": "poolId",
          "type": "uint256"
        },
        {
          "indexed": false,
          "internalType": "uint256",
          "name": "BidId",
          "type": "uint256"
        },
        {
          "indexed": true,
          "internalType": "address",
          "name": "ERC20Token",
          "type": "address"
        },
        {
          "indexed": false,
          "internalType": "uint256",
          "name": "tokenAmount",
          "type": "uint256"
        }
      ],
      "name": "SupplyToPool",
      "type": "event"
    },
    {
      "anonymous": false,
      "inputs": [
        {
          "indexed": false,
          "internalType": "address",
          "name": "reciever",
          "type": "address"
        },
        {
          "indexed": false,
          "internalType": "uint256",
          "name": "BidId",
          "type": "uint256"
        },
        {
          "indexed": false,
          "internalType": "uint256",
          "name": "PoolId",
          "type": "uint256"
        },
        {
          "indexed": false,
          "internalType": "uint256",
          "name": "Amount",
          "type": "uint256"
        }
      ],
      "name": "Withdrawn",
      "type": "event"
    },
    {
      "anonymous": false,
      "inputs": [
        {
          "indexed": false,
          "internalType": "uint256",
          "name": "Amount",
          "type": "uint256"
        },
        {
          "indexed": false,
          "internalType": "uint256",
          "name": "interest",
          "type": "uint256"
        }
      ],
      "name": "paidAmount",
      "type": "event"
    },
    {
      "anonymous": false,
      "inputs": [
        {
          "indexed": false,
          "internalType": "uint256",
          "name": "owedAmount",
          "type": "uint256"
        },
        {
          "indexed": false,
          "internalType": "uint256",
          "name": "dueAmount",
          "type": "uint256"
        },
        {
          "indexed": false,
          "internalType": "uint256",
          "name": "interest",
          "type": "uint256"
        }
      ],
      "name": "repaidAmounts",
      "type": "event"
    },
    {
      "inputs": [],
      "name": "bidId",
      "outputs": [
        {
          "internalType": "uint256",
          "name": "",
          "type": "uint256"
        }
      ],
      "stateMutability": "view",
      "type": "function"
    },
    {
      "inputs": [
        {
          "internalType": "address",
          "name": "",
          "type": "address"
        },
        {
          "internalType": "uint256",
          "name": "",
          "type": "uint256"
        },
        {
          "internalType": "address",
          "name": "",
          "type": "address"
        },
        {
          "internalType": "uint256",
          "name": "",
          "type": "uint256"
        }
      ],
      "name": "lenderPoolFundDetails",
      "outputs": [
        {
          "internalType": "uint256",
          "name": "amount",
          "type": "uint256"
        },
        {
          "internalType": "uint256",
          "name": "expiration",
          "type": "uint256"
        },
        {
          "internalType": "uint32",
          "name": "maxDuration",
          "type": "uint32"
        },
        {
          "internalType": "uint16",
          "name": "interestRate",
          "type": "uint16"
        },
        {
          "internalType": "enum deployPool.BidState",
          "name": "state",
          "type": "uint8"
        },
        {
          "internalType": "uint32",
          "name": "bidTimestamp",
          "type": "uint32"
        },
        {
          "internalType": "uint32",
          "name": "acceptBidTimestamp",
          "type": "uint32"
        },
        {
          "internalType": "uint256",
          "name": "paymentCycleAmount",
          "type": "uint256"
        },
        {
          "internalType": "uint256",
          "name": "totalRepaidPrincipal",
          "type": "uint256"
        },
        {
          "internalType": "uint32",
          "name": "lastRepaidTimestamp",
          "type": "uint32"
        },
        {
          "components": [
            {
              "internalType": "uint256",
              "name": "amount",
              "type": "uint256"
            },
            {
              "internalType": "uint256",
              "name": "interest",
              "type": "uint256"
            }
          ],
          "internalType": "struct deployPool.RePayment",
          "name": "Repaid",
          "type": "tuple"
        }
      ],
      "stateMutability": "view",
      "type": "function"
    },
    {
      "inputs": [
        {
          "internalType": "uint256",
          "name": "_poolId",
          "type": "uint256"
        },
        {
          "internalType": "address",
          "name": "_ERC20Address",
          "type": "address"
        },
        {
          "internalType": "uint256",
          "name": "_amount",
          "type": "uint256"
        },
        {
          "internalType": "uint32",
          "name": "_maxLoanDuration",
          "type": "uint32"
        },
        {
          "internalType": "uint16",
          "name": "_interestRate",
          "type": "uint16"
        },
        {
          "internalType": "uint256",
          "name": "_expiration",
          "type": "uint256"
        }
      ],
      "name": "supplyToPool",
      "outputs": [],
      "stateMutability": "nonpayable",
      "type": "function"
    },
    {
      "inputs": [
        {
          "internalType": "uint256",
          "name": "_poolId",
          "type": "uint256"
        },
        {
          "internalType": "address",
          "name": "_ERC20Address",
          "type": "address"
        },
        {
          "internalType": "uint256",
          "name": "_bidId",
          "type": "uint256"
        },
        {
          "internalType": "address",
          "name": "_lender",
          "type": "address"
        },
        {
          "internalType": "address",
          "name": "_receiver",
          "type": "address"
        }
      ],
      "name": "AcceptBid",
      "outputs": [],
      "stateMutability": "nonpayable",
      "type": "function"
    },
    {
      "inputs": [
        {
          "internalType": "uint256",
          "name": "_poolId",
          "type": "uint256"
        },
        {
          "internalType": "address",
          "name": "_ERC20Address",
          "type": "address"
        },
        {
          "internalType": "uint256",
          "name": "_bidId",
          "type": "uint256"
        },
        {
          "internalType": "address",
          "name": "_lender",
          "type": "address"
        }
      ],
      "name": "RepayInstallment",
      "outputs": [],
      "stateMutability": "nonpayable",
      "type": "function"
    },
    {
      "inputs": [
        {
          "internalType": "uint256",
          "name": "_poolId",
          "type": "uint256"
        },
        {
          "internalType": "address",
          "name": "_ERC20Address",
          "type": "address"
        },
        {
          "internalType": "uint256",
          "name": "_bidId",
          "type": "uint256"
        },
        {
          "internalType": "address",
          "name": "_lender",
          "type": "address"
        }
      ],
      "name": "viewInstallmentAmount",
      "outputs": [
        {
          "internalType": "uint256",
          "name": "",
          "type": "uint256"
        }
      ],
      "stateMutability": "view",
      "type": "function"
    },
    {
      "inputs": [
        {
          "internalType": "uint256",
          "name": "_poolId",
          "type": "uint256"
        },
        {
          "internalType": "address",
          "name": "_ERC20Address",
          "type": "address"
        },
        {
          "internalType": "uint256",
          "name": "_bidId",
          "type": "uint256"
        },
        {
          "internalType": "address",
          "name": "_lender",
          "type": "address"
        }
      ],
      "name": "viewFullRepayAmount",
      "outputs": [
        {
          "internalType": "uint256",
          "name": "",
          "type": "uint256"
        }
      ],
      "stateMutability": "view",
      "type": "function"
    },
    {
      "inputs": [
        {
          "internalType": "uint256",
          "name": "_poolId",
          "type": "uint256"
        },
        {
          "internalType": "address",
          "name": "_ERC20Address",
          "type": "address"
        },
        {
          "internalType": "uint256",
          "name": "_bidId",
          "type": "uint256"
        },
        {
          "internalType": "address",
          "name": "_lender",
          "type": "address"
        }
      ],
      "name": "RepayFullAmount",
      "outputs": [],
      "stateMutability": "nonpayable",
      "type": "function"
    },
    {
      "inputs": [
        {
          "internalType": "uint256",
          "name": "_poolId",
          "type": "uint256"
        },
        {
          "internalType": "address",
          "name": "_ERC20Address",
          "type": "address"
        },
        {
          "internalType": "uint256",
          "name": "_bidId",
          "type": "uint256"
        },
        {
          "internalType": "address",
          "name": "_lender",
          "type": "address"
        }
      ],
      "name": "Withdraw",
      "outputs": [],
      "stateMutability": "nonpayable",
      "type": "function"
    }
  ],
  "bytecode": "0x608060405260006005553480156200001657600080fd5b50604051620032a7380380620032a783398181016040528101906200003c919062000182565b846000806101000a81548173ffffffffffffffffffffffffffffffffffffffff021916908373ffffffffffffffffffffffffffffffffffffffff16021790555083600160006101000a81548173ffffffffffffffffffffffffffffffffffffffff021916908373ffffffffffffffffffffffffffffffffffffffff16021790555082600281905550816003819055508060048190555050505050506200020a565b600080fd5b600073ffffffffffffffffffffffffffffffffffffffff82169050919050565b60006200010f82620000e2565b9050919050565b620001218162000102565b81146200012d57600080fd5b50565b600081519050620001418162000116565b92915050565b6000819050919050565b6200015c8162000147565b81146200016857600080fd5b50565b6000815190506200017c8162000151565b92915050565b600080600080600060a08688031215620001a157620001a0620000dd565b5b6000620001b18882890162000130565b9550506020620001c48882890162000130565b9450506040620001d7888289016200016b565b9350506060620001ea888289016200016b565b9250506080620001fd888289016200016b565b9150509295509295909350565b61308d806200021a6000396000f3fe608060405234801561001057600080fd5b50600436106100935760003560e01c80638ac47319116100665780638ac473191461011c5780639080e5621461013a5780639f8e66ee14610174578063b74e673314610190578063bd0ea7f5146101ac57610093565b8063297d7cb414610098578063465d00b1146100b45780635645483b146100e45780637c24977e14610100575b600080fd5b6100b260048036038101906100ad9190612250565b6101dc565b005b6100ce60048036038101906100c99190612250565b610550565b6040516100db91906122c6565b60405180910390f35b6100fe60048036038101906100f991906122e1565b6107b7565b005b61011a60048036038101906101159190612250565b610ff3565b005b61012461136d565b60405161013191906122c6565b60405180910390f35b610154600480360381019061014f919061235c565b611373565b60405161016b9b9a999897969594939291906124b4565b60405180910390f35b61018e600480360381019061018991906125b7565b61146d565b005b6101aa60048036038101906101a59190612250565b611896565b005b6101c660048036038101906101c19190612250565b611b6d565b6040516101d391906122c6565b60405180910390f35b83600160009054906101000a900473ffffffffffffffffffffffffffffffffffffffff1673ffffffffffffffffffffffffffffffffffffffff16636e34b4e4826040518263ffffffff1660e01b815260040161023891906122c6565b602060405180830381865afa158015610255573d6000803e3d6000fd5b505050506040513d601f19601f820116820180604052508101906102799190612659565b73ffffffffffffffffffffffffffffffffffffffff163373ffffffffffffffffffffffffffffffffffffffff16146102b057600080fd5b6000600660008473ffffffffffffffffffffffffffffffffffffffff1673ffffffffffffffffffffffffffffffffffffffff168152602001908152602001600020600087815260200190815260200160002060008673ffffffffffffffffffffffffffffffffffffffff1673ffffffffffffffffffffffffffffffffffffffff1681526020019081526020016000206000858152602001908152602001600020905060026004811115610366576103656123ff565b5b8160020160069054906101000a900460ff16600481111561038a576103896123ff565b5b146103ca576040517f08c379a00000000000000000000000000000000000000000000000000000000081526004016103c1906126e3565b60405180910390fd5b6000600160009054906101000a900473ffffffffffffffffffffffffffffffffffffffff1673ffffffffffffffffffffffffffffffffffffffff1663805deb53886040518263ffffffff1660e01b815260040161042791906122c6565b602060405180830381865afa158015610444573d6000803e3d6000fd5b505050506040513d601f19601f820116820180604052508101906104689190612718565b90506000806104ed846000015485600601600001548660020160049054906101000a900461ffff1687600301548763ffffffff168960050160009054906101000a900463ffffffff16428b600201600b9054906101000a900463ffffffff1663ffffffff168c60020160009054906101000a900463ffffffff1663ffffffff16611dd4565b925050915061050c89898989868687896105079190612774565b611e05565b7f5fea702eef28f016f331b310c5891ae3d4ba1869e502b9e70fc2e36562950c91828260405161053d9291906127ca565b60405180910390a1505050505050505050565b600080600660008473ffffffffffffffffffffffffffffffffffffffff1673ffffffffffffffffffffffffffffffffffffffff168152602001908152602001600020600087815260200190815260200160002060008673ffffffffffffffffffffffffffffffffffffffff1673ffffffffffffffffffffffffffffffffffffffff1681526020019081526020016000206000858152602001908152602001600020905060026004811115610607576106066123ff565b5b8160020160069054906101000a900460ff16600481111561062b5761062a6123ff565b5b1461066b576040517f08c379a0000000000000000000000000000000000000000000000000000000008152600401610662906126e3565b60405180910390fd5b6000600160009054906101000a900473ffffffffffffffffffffffffffffffffffffffff1673ffffffffffffffffffffffffffffffffffffffff1663805deb53886040518263ffffffff1660e01b81526004016106c891906122c6565b602060405180830381865afa1580156106e5573d6000803e3d6000fd5b505050506040513d601f19601f820116820180604052508101906107099190612718565b90506000806000610790856000015486600601600001548760020160049054906101000a900461ffff1688600301548863ffffffff168a60050160009054906101000a900463ffffffff16428c600201600b9054906101000a900463ffffffff1663ffffffff168d60020160009054906101000a900463ffffffff1663ffffffff16611dd4565b925092509250600081836107a49190612774565b9050809650505050505050949350505050565b84600160009054906101000a900473ffffffffffffffffffffffffffffffffffffffff1673ffffffffffffffffffffffffffffffffffffffff16636e34b4e4826040518263ffffffff1660e01b815260040161081391906122c6565b602060405180830381865afa158015610830573d6000803e3d6000fd5b505050506040513d601f19601f820116820180604052508101906108549190612659565b73ffffffffffffffffffffffffffffffffffffffff163373ffffffffffffffffffffffffffffffffffffffff161461088b57600080fd5b6000600660008573ffffffffffffffffffffffffffffffffffffffff1673ffffffffffffffffffffffffffffffffffffffff168152602001908152602001600020600088815260200190815260200160002060008773ffffffffffffffffffffffffffffffffffffffff1673ffffffffffffffffffffffffffffffffffffffff1681526020019081526020016000206000868152602001908152602001600020905060006004811115610941576109406123ff565b5b8160020160069054906101000a900460ff166004811115610965576109646123ff565b5b146109a5576040517f08c379a000000000000000000000000000000000000000000000000000000000815260040161099c906126e3565b60405180910390fd5b4281600201600b6101000a81548163ffffffff021916908363ffffffff16021790555060008160000154905060028260020160066101000a81548160ff021916908360048111156109f9576109f86123ff565b5b02179055506000600160009054906101000a900473ffffffffffffffffffffffffffffffffffffffff1673ffffffffffffffffffffffffffffffffffffffff1662a5ae218a6040518263ffffffff1660e01b8152600401610a5a91906122c6565b602060405180830381865afa158015610a77573d6000803e3d6000fd5b505050506040513d601f19601f82011682018060405250810190610a9b9190612659565b90506000600160009054906101000a900473ffffffffffffffffffffffffffffffffffffffff1673ffffffffffffffffffffffffffffffffffffffff1663805deb538b6040518263ffffffff1660e01b8152600401610afa91906122c6565b602060405180830381865afa158015610b17573d6000803e3d6000fd5b505050506040513d601f19601f82011682018060405250810190610b3b9190612718565b905073__LibCalculations_______________________632872a887848660020160009054906101000a900463ffffffff16848860020160049054906101000a900461ffff166040518563ffffffff1660e01b8152600401610ba09493929190612820565b602060405180830381865af4158015610bbd573d6000803e3d6000fd5b505050506040513d601f19601f82011682018060405250810190610be1919061287a565b84600301819055506000600160009054906101000a900473ffffffffffffffffffffffffffffffffffffffff1673ffffffffffffffffffffffffffffffffffffffff1663fa9fe9166040518163ffffffff1660e01b8152600401602060405180830381865afa158015610c58573d6000803e3d6000fd5b505050506040513d601f19601f82011682018060405250810190610c7c9190612659565b9050600073__LibCalculations_______________________633fb340038760000154600160009054906101000a900473ffffffffffffffffffffffffffffffffffffffff1673ffffffffffffffffffffffffffffffffffffffff1663911347156040518163ffffffff1660e01b8152600401602060405180830381865afa158015610d0c573d6000803e3d6000fd5b505050506040513d601f19601f82011682018060405250810190610d3091906128bc565b6040518363ffffffff1660e01b8152600401610d4d9291906128e9565b602060405180830381865af4158015610d6a573d6000803e3d6000fd5b505050506040513d601f19601f82011682018060405250810190610d8e919061287a565b90508a73ffffffffffffffffffffffffffffffffffffffff1663095ea7b3898388610db99190612912565b6040518363ffffffff1660e01b8152600401610dd6929190612955565b6020604051808303816000875af1158015610df5573d6000803e3d6000fd5b505050506040513d601f19601f82011682018060405250810190610e1991906129b6565b508a73ffffffffffffffffffffffffffffffffffffffff1663a9059cbb898388610e439190612912565b6040518363ffffffff1660e01b8152600401610e60929190612955565b6020604051808303816000875af1158015610e7f573d6000803e3d6000fd5b505050506040513d601f19601f82011682018060405250810190610ea391906129b6565b508a73ffffffffffffffffffffffffffffffffffffffff1663095ea7b383836040518363ffffffff1660e01b8152600401610edf929190612955565b6020604051808303816000875af1158015610efe573d6000803e3d6000fd5b505050506040513d601f19601f82011682018060405250810190610f2291906129b6565b508a73ffffffffffffffffffffffffffffffffffffffff1663a9059cbb83836040518363ffffffff1660e01b8152600401610f5e929190612955565b6020604051808303816000875af1158015610f7d573d6000803e3d6000fd5b505050506040513d601f19601f82011682018060405250810190610fa191906129b6565b507f0c59092e68c08f10cb23a788fdb39228e729651e761cc393a9a0cb11be6ed635888b8e888a60030154604051610fdd9594939291906129e3565b60405180910390a1505050505050505050505050565b83600160009054906101000a900473ffffffffffffffffffffffffffffffffffffffff1673ffffffffffffffffffffffffffffffffffffffff16636e34b4e4826040518263ffffffff1660e01b815260040161104f91906122c6565b602060405180830381865afa15801561106c573d6000803e3d6000fd5b505050506040513d601f19601f820116820180604052508101906110909190612659565b73ffffffffffffffffffffffffffffffffffffffff163373ffffffffffffffffffffffffffffffffffffffff16146110c757600080fd5b6000600660008473ffffffffffffffffffffffffffffffffffffffff1673ffffffffffffffffffffffffffffffffffffffff168152602001908152602001600020600087815260200190815260200160002060008673ffffffffffffffffffffffffffffffffffffffff1673ffffffffffffffffffffffffffffffffffffffff168152602001908152602001600020600085815260200190815260200160002090506002600481111561117d5761117c6123ff565b5b8160020160069054906101000a900460ff1660048111156111a1576111a06123ff565b5b146111e1576040517f08c379a00000000000000000000000000000000000000000000000000000000081526004016111d8906126e3565b60405180910390fd5b6000600160009054906101000a900473ffffffffffffffffffffffffffffffffffffffff1673ffffffffffffffffffffffffffffffffffffffff1663805deb53886040518263ffffffff1660e01b815260040161123e91906122c6565b602060405180830381865afa15801561125b573d6000803e3d6000fd5b505050506040513d601f19601f8201168201806040525081019061127f9190612718565b90506000806000611306856000015486600601600001548760020160049054906101000a900461ffff1688600301548863ffffffff168a60050160009054906101000a900463ffffffff16428c600201600b9054906101000a900463ffffffff1663ffffffff168d60020160009054906101000a900463ffffffff1663ffffffff16611dd4565b9250925092506113268a8a8a8a8686878a6113219190612774565b611e05565b7f193d98b28f4db3258b9a6bc3f7270c0ea85e0a520b3dc0daad9acc7136703d0f83838360405161135993929190612a36565b60405180910390a150505050505050505050565b60055481565b60066020528360005260406000206020528260005260406000206020528160005260406000206020528060005260406000206000935093505050508060000154908060010154908060020160009054906101000a900463ffffffff16908060020160049054906101000a900461ffff16908060020160069054906101000a900460ff16908060020160079054906101000a900463ffffffff169080600201600b9054906101000a900463ffffffff16908060030154908060040154908060050160009054906101000a900463ffffffff1690806006016040518060400160405290816000820154815260200160018201548152505090508b565b6000600160009054906101000a900473ffffffffffffffffffffffffffffffffffffffff1673ffffffffffffffffffffffffffffffffffffffff1663cf65392088336040518363ffffffff1660e01b81526004016114cc929190612a6d565b6040805180830381865afa1580156114e8573d6000803e3d6000fd5b505050506040513d601f19601f8201168201806040525081019061150c9190612acc565b5090508061154f576040517f08c379a000000000000000000000000000000000000000000000000000000000815260040161154690612b58565b60405180910390fd5b60003390504263ffffffff16831161159c576040517f08c379a000000000000000000000000000000000000000000000000000000000815260040161159390612bc4565b60405180910390fd5b600060055490506000600660008473ffffffffffffffffffffffffffffffffffffffff1673ffffffffffffffffffffffffffffffffffffffff16815260200190815260200160002060008b815260200190815260200160002060008a73ffffffffffffffffffffffffffffffffffffffff1673ffffffffffffffffffffffffffffffffffffffff16815260200190815260200160002060008381526020019081526020016000209050878160000181905550848160010181905550868160020160006101000a81548163ffffffff021916908363ffffffff160217905550858160020160046101000a81548161ffff021916908361ffff160217905550428160020160076101000a81548163ffffffff021916908363ffffffff16021790555060008160020160066101000a81548160ff021916908360048111156116e4576116e36123ff565b5b02179055506000600160009054906101000a900473ffffffffffffffffffffffffffffffffffffffff1673ffffffffffffffffffffffffffffffffffffffff1662a5ae218c6040518263ffffffff1660e01b815260040161174591906122c6565b602060405180830381865afa158015611762573d6000803e3d6000fd5b505050506040513d601f19601f820116820180604052508101906117869190612659565b90508973ffffffffffffffffffffffffffffffffffffffff166323b872dd85838c6040518463ffffffff1660e01b81526004016117c593929190612be4565b6020604051808303816000875af11580156117e4573d6000803e3d6000fd5b505050506040513d601f19601f8201168201806040525081019061180891906129b6565b506005600081548092919061181c90612c1b565b91905055508973ffffffffffffffffffffffffffffffffffffffff168b8573ffffffffffffffffffffffffffffffffffffffff167fdc518e49f7c1b433956bb608271b1e22669d38bcd1c7bba0712e96b324499bdf868d6040516118819291906127ca565b60405180910390a45050505050505050505050565b6000600660008373ffffffffffffffffffffffffffffffffffffffff1673ffffffffffffffffffffffffffffffffffffffff168152602001908152602001600020600086815260200190815260200160002060008573ffffffffffffffffffffffffffffffffffffffff1673ffffffffffffffffffffffffffffffffffffffff168152602001908152602001600020600084815260200190815260200160002090503373ffffffffffffffffffffffffffffffffffffffff168273ffffffffffffffffffffffffffffffffffffffff16146119a6576040517f08c379a000000000000000000000000000000000000000000000000000000000815260040161199d90612cb0565b60405180910390fd5b4263ffffffff168160010154106119f2576040517f08c379a00000000000000000000000000000000000000000000000000000000081526004016119e990612d1c565b60405180910390fd5b8373ffffffffffffffffffffffffffffffffffffffff1663095ea7b38383600001546040518363ffffffff1660e01b8152600401611a31929190612955565b6020604051808303816000875af1158015611a50573d6000803e3d6000fd5b505050506040513d601f19601f82011682018060405250810190611a7491906129b6565b508373ffffffffffffffffffffffffffffffffffffffff1663a9059cbb8383600001546040518363ffffffff1660e01b8152600401611ab4929190612955565b6020604051808303816000875af1158015611ad3573d6000803e3d6000fd5b505050506040513d601f19601f82011682018060405250810190611af791906129b6565b5060048160020160066101000a81548160ff02191690836004811115611b2057611b1f6123ff565b5b02179055507f75e161b3e824b114fc1a33274bd7091918dd4e639cede50b78b15a4eea956a218284878460000154604051611b5e9493929190612d3c565b60405180910390a15050505050565b600080600660008473ffffffffffffffffffffffffffffffffffffffff1673ffffffffffffffffffffffffffffffffffffffff168152602001908152602001600020600087815260200190815260200160002060008673ffffffffffffffffffffffffffffffffffffffff1673ffffffffffffffffffffffffffffffffffffffff1681526020019081526020016000206000858152602001908152602001600020905060026004811115611c2457611c236123ff565b5b8160020160069054906101000a900460ff166004811115611c4857611c476123ff565b5b14611c88576040517f08c379a0000000000000000000000000000000000000000000000000000000008152600401611c7f906126e3565b60405180910390fd5b6000600160009054906101000a900473ffffffffffffffffffffffffffffffffffffffff1673ffffffffffffffffffffffffffffffffffffffff1663805deb53886040518263ffffffff1660e01b8152600401611ce591906122c6565b602060405180830381865afa158015611d02573d6000803e3d6000fd5b505050506040513d601f19601f82011682018060405250810190611d269190612718565b90506000806000611dad856000015486600601600001548760020160049054906101000a900461ffff1688600301548863ffffffff168a60050160009054906101000a900463ffffffff16428c600201600b9054906101000a900463ffffffff1663ffffffff168d60020160009054906101000a900463ffffffff1663ffffffff16611dd4565b92509250925060008184611dc19190612774565b9050809650505050505050949350505050565b6000806000611df08c8c8c8c8c8c63ffffffff168c8c8c61204f565b92509250925099509950999650505050505050565b6000600660008673ffffffffffffffffffffffffffffffffffffffff1673ffffffffffffffffffffffffffffffffffffffff168152602001908152602001600020600089815260200190815260200160002060008873ffffffffffffffffffffffffffffffffffffffff1673ffffffffffffffffffffffffffffffffffffffff1681526020019081526020016000206000878152602001908152602001600020905060008385611eb59190612774565b9050828110611f2b5782905060038260020160066101000a81548160ff02191690836004811115611ee957611ee86123ff565b5b0217905550867f044e4ffaa963a008234a0fb6594c50a05f7b446bfe5b006fc943d89a21a9d3cc82604051611f1e91906122c6565b60405180910390a2611f64565b867f5cbcbe20d8ea4a0298a26fcffbb0f0b5ad3b5d8544bf621810bea582e40b539d82604051611f5b91906122c6565b60405180910390a25b8773ffffffffffffffffffffffffffffffffffffffff166323b872dd3388846040518463ffffffff1660e01b8152600401611fa193929190612be4565b6020604051808303816000875af1158015611fc0573d6000803e3d6000fd5b505050506040513d601f19601f82011682018060405250810190611fe491906129b6565b5084826006016000016000828254611ffc9190612774565b925050819055508382600601600101600082825461201a9190612774565b92505081905550428260050160006101000a81548163ffffffff021916908363ffffffff160217905550505050505050505050565b60008060008a8c6120609190612912565b9250600061206e848c612138565b90506000888861207e9190612912565b90506301e1338081836120919190612d81565b61209b9190612e0a565b9250600087896120ab9190612e45565b876120b69190612e45565b905060008b8212806120d357508c85886120d09190612774565b11155b90506000816120e2578d6120ef565b85886120ee9190612774565b5b905060008d85836121009190612d81565b61210a9190612e0a565b9050612121878261211b9190612912565b8a612152565b975050505050505099509950999650505050505050565b600061214a838361ffff16600261216b565b905092915050565b60008183106121615781612163565b825b905092915050565b600061217682612195565b83856121829190612d81565b61218c9190612e0a565b90509392505050565b600081600a6121a4919061300c565b60646121b09190612d81565b9050919050565b600080fd5b6000819050919050565b6121cf816121bc565b81146121da57600080fd5b50565b6000813590506121ec816121c6565b92915050565b600073ffffffffffffffffffffffffffffffffffffffff82169050919050565b600061221d826121f2565b9050919050565b61222d81612212565b811461223857600080fd5b50565b60008135905061224a81612224565b92915050565b6000806000806080858703121561226a576122696121b7565b5b6000612278878288016121dd565b94505060206122898782880161223b565b935050604061229a878288016121dd565b92505060606122ab8782880161223b565b91505092959194509250565b6122c0816121bc565b82525050565b60006020820190506122db60008301846122b7565b92915050565b600080600080600060a086880312156122fd576122fc6121b7565b5b600061230b888289016121dd565b955050602061231c8882890161223b565b945050604061232d888289016121dd565b935050606061233e8882890161223b565b925050608061234f8882890161223b565b9150509295509295909350565b60008060008060808587031215612376576123756121b7565b5b60006123848782880161223b565b9450506020612395878288016121dd565b93505060406123a68782880161223b565b92505060606123b7878288016121dd565b91505092959194509250565b600063ffffffff82169050919050565b6123dc816123c3565b82525050565b600061ffff82169050919050565b6123f9816123e2565b82525050565b7f4e487b7100000000000000000000000000000000000000000000000000000000600052602160045260246000fd5b6005811061243f5761243e6123ff565b5b50565b60008190506124508261242e565b919050565b600061246082612442565b9050919050565b61247081612455565b82525050565b61247f816121bc565b82525050565b60408201600082015161249b6000850182612476565b5060208201516124ae6020850182612476565b50505050565b6000610180820190506124ca600083018e6122b7565b6124d7602083018d6122b7565b6124e4604083018c6123d3565b6124f1606083018b6123f0565b6124fe608083018a612467565b61250b60a08301896123d3565b61251860c08301886123d3565b61252560e08301876122b7565b6125336101008301866122b7565b6125416101208301856123d3565b61254f610140830184612485565b9c9b505050505050505050505050565b612568816123c3565b811461257357600080fd5b50565b6000813590506125858161255f565b92915050565b612594816123e2565b811461259f57600080fd5b50565b6000813590506125b18161258b565b92915050565b60008060008060008060c087890312156125d4576125d36121b7565b5b60006125e289828a016121dd565b96505060206125f389828a0161223b565b955050604061260489828a016121dd565b945050606061261589828a01612576565b935050608061262689828a016125a2565b92505060a061263789828a016121dd565b9150509295509295509295565b60008151905061265381612224565b92915050565b60006020828403121561266f5761266e6121b7565b5b600061267d84828501612644565b91505092915050565b600082825260208201905092915050565b7f426964206d7573742062652070656e64696e6700000000000000000000000000600082015250565b60006126cd601383612686565b91506126d882612697565b602082019050919050565b600060208201905081810360008301526126fc816126c0565b9050919050565b6000815190506127128161255f565b92915050565b60006020828403121561272e5761272d6121b7565b5b600061273c84828501612703565b91505092915050565b7f4e487b7100000000000000000000000000000000000000000000000000000000600052601160045260246000fd5b600061277f826121bc565b915061278a836121bc565b9250827fffffffffffffffffffffffffffffffffffffffffffffffffffffffffffffffff038211156127bf576127be612745565b5b828201905092915050565b60006040820190506127df60008301856122b7565b6127ec60208301846122b7565b9392505050565b6127fc816121bc565b82525050565b61280b816123c3565b82525050565b61281a816123e2565b82525050565b600060808201905061283560008301876127f3565b6128426020830186612802565b61284f6040830185612802565b61285c6060830184612811565b95945050505050565b600081519050612874816121c6565b92915050565b6000602082840312156128905761288f6121b7565b5b600061289e84828501612865565b91505092915050565b6000815190506128b68161258b565b92915050565b6000602082840312156128d2576128d16121b7565b5b60006128e0848285016128a7565b91505092915050565b60006040820190506128fe60008301856127f3565b61290b6020830184612811565b9392505050565b600061291d826121bc565b9150612928836121bc565b92508282101561293b5761293a612745565b5b828203905092915050565b61294f81612212565b82525050565b600060408201905061296a6000830185612946565b61297760208301846122b7565b9392505050565b60008115159050919050565b6129938161297e565b811461299e57600080fd5b50565b6000815190506129b08161298a565b92915050565b6000602082840312156129cc576129cb6121b7565b5b60006129da848285016129a1565b91505092915050565b600060a0820190506129f86000830188612946565b612a0560208301876122b7565b612a1260408301866122b7565b612a1f60608301856122b7565b612a2c60808301846122b7565b9695505050505050565b6000606082019050612a4b60008301866122b7565b612a5860208301856122b7565b612a6560408301846122b7565b949350505050565b6000604082019050612a8260008301856122b7565b612a8f6020830184612946565b9392505050565b6000819050919050565b612aa981612a96565b8114612ab457600080fd5b50565b600081519050612ac681612aa0565b92915050565b60008060408385031215612ae357612ae26121b7565b5b6000612af1858286016129a1565b9250506020612b0285828601612ab7565b9150509250929050565b7f4e6f74207665726966696564206c656e64657200000000000000000000000000600082015250565b6000612b42601383612686565b9150612b4d82612b0c565b602082019050919050565b60006020820190508181036000830152612b7181612b35565b9050919050565b7f77726f6e672074696d657374616d700000000000000000000000000000000000600082015250565b6000612bae600f83612686565b9150612bb982612b78565b602082019050919050565b60006020820190508181036000830152612bdd81612ba1565b9050919050565b6000606082019050612bf96000830186612946565b612c066020830185612946565b612c1360408301846122b7565b949350505050565b6000612c26826121bc565b91507fffffffffffffffffffffffffffffffffffffffffffffffffffffffffffffffff821415612c5957612c58612745565b5b600182019050919050565b7f596f7520617265206e6f742061204c656e646572000000000000000000000000600082015250565b6000612c9a601483612686565b9150612ca582612c64565b602082019050919050565b60006020820190508181036000830152612cc981612c8d565b9050919050565b7f596f752063616e27742057697468647261770000000000000000000000000000600082015250565b6000612d06601283612686565b9150612d1182612cd0565b602082019050919050565b60006020820190508181036000830152612d3581612cf9565b9050919050565b6000608082019050612d516000830187612946565b612d5e60208301866122b7565b612d6b60408301856122b7565b612d7860608301846122b7565b95945050505050565b6000612d8c826121bc565b9150612d97836121bc565b9250817fffffffffffffffffffffffffffffffffffffffffffffffffffffffffffffffff0483118215151615612dd057612dcf612745565b5b828202905092915050565b7f4e487b7100000000000000000000000000000000000000000000000000000000600052601260045260246000fd5b6000612e15826121bc565b9150612e20836121bc565b925082612e3057612e2f612ddb565b5b828204905092915050565b6000819050919050565b6000612e5082612e3b565b9150612e5b83612e3b565b9250827f800000000000000000000000000000000000000000000000000000000000000001821260008412151615612e9657612e95612745565b5b827f7fffffffffffffffffffffffffffffffffffffffffffffffffffffffffffffff018213600084121615612ece57612ecd612745565b5b828203905092915050565b60008160011c9050919050565b6000808291508390505b6001851115612f3057808604811115612f0c57612f0b612745565b5b6001851615612f1b5780820291505b8081029050612f2985612ed9565b9450612ef0565b94509492505050565b600082612f495760019050613005565b81612f575760009050613005565b8160018114612f6d5760028114612f7757612fa6565b6001915050613005565b60ff841115612f8957612f88612745565b5b8360020a915084821115612fa057612f9f612745565b5b50613005565b5060208310610133831016604e8410600b8410161715612fdb5782820a905083811115612fd657612fd5612745565b5b613005565b612fe88484846001612ee6565b92509050818404811115612fff57612ffe612745565b5b81810290505b9392505050565b6000613017826121bc565b9150613022836121bc565b925061304f7fffffffffffffffffffffffffffffffffffffffffffffffffffffffffffffffff8484612f39565b90509291505056fea26469706673582212202dfc96f85695012361a4f2e6a52670d765cc1a65d784feedc4b9e19b6e0f701c64736f6c634300080b0033",
  "immutableReferences": {},
  "source": "// SPDX-License-Identifier: MIT\npragma solidity >=0.4.22 <0.9.0;\n\nimport \"./Libraries/LibPool.sol\";\n\nimport \"@openzeppelin/contracts/token/ERC20/IERC20.sol\";\nimport \"@openzeppelin/contracts/token/ERC721/extensions/ERC721URIStorage.sol\";\nimport \"./Libraries/LibCalculations.sol\";\nimport \"./poolRegistry.sol\";\n\ncontract deployPool {\n    address poolOwner;\n    address poolRegistryAddress;\n    uint256 paymentCycleDuration;\n    uint256 paymentDefaultDuration;\n    uint256 feePercent;\n\n    constructor(\n        address _poolOwner,\n        address _poolRegistry,\n        uint256 _paymentCycleDuration,\n        uint256 _paymentDefaultDuration,\n        uint256 _feePercent\n    ) {\n        poolOwner = _poolOwner;\n        poolRegistryAddress = _poolRegistry;\n        paymentCycleDuration = _paymentCycleDuration;\n        paymentDefaultDuration = _paymentDefaultDuration;\n        feePercent = _feePercent;\n    }\n\n    modifier onlyPoolOwner(uint256 poolId) {\n        require(\n            msg.sender == poolRegistry(poolRegistryAddress).getPoolOwner(poolId)\n        );\n        _;\n    }\n\n    uint256 public bidId = 0;\n\n    event BidRepaid(uint256 indexed bidId, uint256 PaidAmount);\n    event BidRepayment(uint256 indexed bidId, uint256 PaidAmount);\n\n    event AcceptedBid(\n        address reciever,\n        uint256 BidId,\n        uint256 PoolId,\n        uint256 Amount,\n        uint256 paymentCycleAmount\n    );\n\n    event Withdrawn(\n        address reciever,\n        uint256 BidId,\n        uint256 PoolId,\n        uint256 Amount\n    );\n\n    event SupplyToPool(\n        address indexed lender,\n        uint256 indexed poolId,\n        uint256 BidId,\n        address indexed ERC20Token,\n        uint256 tokenAmount\n    );\n\n    event repaidAmounts(\n        uint256 owedAmount,\n        uint256 dueAmount,\n        uint256 interest\n    );\n\n    event paidAmount(uint256 Amount, uint256 interest);\n\n    struct FundDetail {\n        uint256 amount;\n        uint256 expiration; //After expiration time, if owner dose not accept bid then lender can withdraw the fund\n        uint32 maxDuration; //Bid Duration\n        uint16 interestRate;\n        BidState state;\n        uint32 bidTimestamp;\n        uint32 acceptBidTimestamp;\n        uint256 paymentCycleAmount;\n        uint256 totalRepaidPrincipal;\n        uint32 lastRepaidTimestamp;\n        RePayment Repaid;\n    }\n\n    struct RePayment {\n        uint256 amount;\n        uint256 interest;\n    }\n\n    enum BidState {\n        PENDING,\n        CANCELLED,\n        ACCEPTED,\n        PAID,\n        WITHDRAWN\n    }\n\n    // Mapping of lender address => poolId => ERC20 token => BidId => FundDetail\n    mapping(address => mapping(uint256 => mapping(address => mapping(uint256 => FundDetail))))\n        public lenderPoolFundDetails;\n\n    //Supply to pool by lenders\n    function supplyToPool(\n        uint256 _poolId,\n        address _ERC20Address,\n        uint256 _amount,\n        uint32 _maxLoanDuration,\n        uint16 _interestRate,\n        uint256 _expiration\n    ) external {\n        (bool isVerified, ) = poolRegistry(poolRegistryAddress)\n            .lenderVarification(_poolId, msg.sender);\n\n        require(isVerified, \"Not verified lender\");\n\n        address lender = msg.sender;\n        require(_expiration > uint32(block.timestamp), \"wrong timestamp\");\n        uint256 _bidId = bidId;\n        FundDetail storage fundDetail = lenderPoolFundDetails[lender][_poolId][\n            _ERC20Address\n        ][_bidId];\n        fundDetail.amount = _amount;\n        fundDetail.expiration = _expiration;\n        fundDetail.maxDuration = _maxLoanDuration;\n        fundDetail.interestRate = _interestRate;\n        fundDetail.bidTimestamp = uint32(block.timestamp);\n\n        fundDetail.state = BidState.PENDING;\n\n        address _poolAddress = poolRegistry(poolRegistryAddress).getPoolAddress(\n            _poolId\n        );\n\n        // Send payment to the Pool\n        IERC20(_ERC20Address).transferFrom(lender, _poolAddress, _amount);\n        bidId++;\n\n        emit SupplyToPool(lender, _poolId, _bidId, _ERC20Address, _amount);\n    }\n\n    function AcceptBid(\n        uint256 _poolId,\n        address _ERC20Address,\n        uint256 _bidId,\n        address _lender,\n        address _receiver\n    ) external onlyPoolOwner(_poolId) {\n        FundDetail storage fundDetail = lenderPoolFundDetails[_lender][_poolId][\n            _ERC20Address\n        ][_bidId];\n        if (fundDetail.state != BidState.PENDING) {\n            revert(\"Bid must be pending\");\n        }\n        fundDetail.acceptBidTimestamp = uint32(block.timestamp);\n        uint256 amount = fundDetail.amount;\n        fundDetail.state = BidState.ACCEPTED;\n        address _poolAddress = poolRegistry(poolRegistryAddress).getPoolAddress(\n            _poolId\n        );\n        uint32 paymentCycle = poolRegistry(poolRegistryAddress)\n            .getPaymentCycleDuration(_poolId);\n\n        fundDetail.paymentCycleAmount = LibCalculations.payment(\n            amount,\n            fundDetail.maxDuration,\n            paymentCycle,\n            fundDetail.interestRate\n        );\n\n        address AconomyOwner = poolRegistry(poolRegistryAddress)\n            .getAconomyOwner();\n\n        //Aconomy Fee\n        uint256 amountToAconomy = LibCalculations.percent(\n            fundDetail.amount,\n            poolRegistry(poolRegistryAddress).getAconomyFee()\n        );\n\n        // transfering Amount to Owner\n        IERC20(_ERC20Address).approve(_receiver, amount - amountToAconomy);\n        IERC20(_ERC20Address).transfer(_receiver, amount - amountToAconomy);\n\n        // transfering Amount to Protocol Owner\n        IERC20(_ERC20Address).approve(AconomyOwner, amountToAconomy);\n        IERC20(_ERC20Address).transfer(AconomyOwner, amountToAconomy);\n\n        emit AcceptedBid(\n            _receiver,\n            _bidId,\n            _poolId,\n            amount,\n            fundDetail.paymentCycleAmount\n        );\n    }\n\n    function RepayInstallment(\n        uint256 _poolId,\n        address _ERC20Address,\n        uint256 _bidId,\n        address _lender\n    ) external onlyPoolOwner(_poolId) {\n        FundDetail storage fundDetail = lenderPoolFundDetails[_lender][_poolId][\n            _ERC20Address\n        ][_bidId];\n        if (fundDetail.state != BidState.ACCEPTED) {\n            revert(\"Bid must be pending\");\n        }\n\n        uint32 paymentCycle = poolRegistry(poolRegistryAddress)\n            .getPaymentCycleDuration(_poolId);\n\n        (\n            uint256 owedAmount,\n            uint256 dueAmount,\n            uint256 interest\n        ) = LibCalculations.calculateInstallmentAmount(\n                fundDetail.amount,\n                fundDetail.Repaid.amount,\n                fundDetail.interestRate,\n                fundDetail.paymentCycleAmount,\n                paymentCycle,\n                fundDetail.lastRepaidTimestamp,\n                block.timestamp,\n                fundDetail.acceptBidTimestamp,\n                fundDetail.maxDuration\n            );\n        _repayBid(\n            _poolId,\n            _ERC20Address,\n            _bidId,\n            _lender,\n            dueAmount,\n            interest,\n            owedAmount + interest\n        );\n\n        emit repaidAmounts(owedAmount, dueAmount, interest);\n    }\n\n    function viewInstallmentAmount(\n        uint256 _poolId,\n        address _ERC20Address,\n        uint256 _bidId,\n        address _lender\n    ) public view returns (uint256) {\n        FundDetail storage fundDetail = lenderPoolFundDetails[_lender][_poolId][\n            _ERC20Address\n        ][_bidId];\n        if (fundDetail.state != BidState.ACCEPTED) {\n            revert(\"Bid must be pending\");\n        }\n        uint32 paymentCycle = poolRegistry(poolRegistryAddress)\n            .getPaymentCycleDuration(_poolId);\n\n        (\n            uint256 owedAmount,\n            uint256 dueAmount,\n            uint256 interest\n        ) = LibCalculations.calculateInstallmentAmount(\n                fundDetail.amount,\n                fundDetail.Repaid.amount,\n                fundDetail.interestRate,\n                fundDetail.paymentCycleAmount,\n                paymentCycle,\n                fundDetail.lastRepaidTimestamp,\n                block.timestamp,\n                fundDetail.acceptBidTimestamp,\n                fundDetail.maxDuration\n            );\n        uint256 paymentAmount = dueAmount + interest;\n        return paymentAmount;\n    }\n\n    function viewFullRepayAmount(\n        uint256 _poolId,\n        address _ERC20Address,\n        uint256 _bidId,\n        address _lender\n    ) public view returns (uint256) {\n        FundDetail storage fundDetail = lenderPoolFundDetails[_lender][_poolId][\n            _ERC20Address\n        ][_bidId];\n        if (fundDetail.state != BidState.ACCEPTED) {\n            revert(\"Bid must be pending\");\n        }\n        uint32 paymentCycle = poolRegistry(poolRegistryAddress)\n            .getPaymentCycleDuration(_poolId);\n\n        (\n            uint256 owedAmount,\n            uint256 dueAmount,\n            uint256 interest\n        ) = LibCalculations.calculateInstallmentAmount(\n                fundDetail.amount,\n                fundDetail.Repaid.amount,\n                fundDetail.interestRate,\n                fundDetail.paymentCycleAmount,\n                paymentCycle,\n                fundDetail.lastRepaidTimestamp,\n                block.timestamp,\n                fundDetail.acceptBidTimestamp,\n                fundDetail.maxDuration\n            );\n        uint256 paymentAmount = owedAmount + interest;\n        return paymentAmount;\n    }\n\n    function RepayFullAmount(\n        uint256 _poolId,\n        address _ERC20Address,\n        uint256 _bidId,\n        address _lender\n    ) external onlyPoolOwner(_poolId) {\n        FundDetail storage fundDetail = lenderPoolFundDetails[_lender][_poolId][\n            _ERC20Address\n        ][_bidId];\n        if (fundDetail.state != BidState.ACCEPTED) {\n            revert(\"Bid must be pending\");\n        }\n\n        uint32 paymentCycle = poolRegistry(poolRegistryAddress)\n            .getPaymentCycleDuration(_poolId);\n\n        (uint256 owedAmount, , uint256 interest) = LibCalculations\n            .calculateInstallmentAmount(\n                fundDetail.amount,\n                fundDetail.Repaid.amount,\n                fundDetail.interestRate,\n                fundDetail.paymentCycleAmount,\n                paymentCycle,\n                fundDetail.lastRepaidTimestamp,\n                block.timestamp,\n                fundDetail.acceptBidTimestamp,\n                fundDetail.maxDuration\n            );\n        _repayBid(\n            _poolId,\n            _ERC20Address,\n            _bidId,\n            _lender,\n            owedAmount,\n            interest,\n            owedAmount + interest\n        );\n\n        emit paidAmount(owedAmount, interest);\n    }\n\n    function _repayBid(\n        uint256 _poolId,\n        address _ERC20Address,\n        uint256 _bidId,\n        address _lender,\n        uint256 _amount,\n        uint256 _interest,\n        uint256 _owedAmount\n    ) internal {\n        FundDetail storage fundDetail = lenderPoolFundDetails[_lender][_poolId][\n            _ERC20Address\n        ][_bidId];\n\n        uint256 paymentAmount = _amount + _interest;\n\n        // Check if we are sending a payment or amount remaining\n        if (paymentAmount >= _owedAmount) {\n            paymentAmount = _owedAmount;\n\n            fundDetail.state = BidState.PAID;\n            emit BidRepaid(_bidId, paymentAmount);\n        } else {\n            emit BidRepayment(_bidId, paymentAmount);\n        }\n        // Send payment to the lender\n        IERC20(_ERC20Address).transferFrom(msg.sender, _lender, paymentAmount);\n\n        fundDetail.Repaid.amount += _amount;\n        fundDetail.Repaid.interest += _interest;\n        fundDetail.lastRepaidTimestamp = uint32(block.timestamp);\n    }\n\n    function Withdraw(\n        uint256 _poolId,\n        address _ERC20Address,\n        uint256 _bidId,\n        address _lender\n    ) external {\n        FundDetail storage fundDetail = lenderPoolFundDetails[_lender][_poolId][\n            _ERC20Address\n        ][_bidId];\n\n        // Check is lender the calling the function\n        if (_lender != msg.sender) {\n            revert(\"You are not a Lender\");\n        }\n\n        require(\n            fundDetail.expiration < uint32(block.timestamp),\n            \"You can't Withdraw\"\n        );\n\n        // Transfering the amount to the lender\n        IERC20(_ERC20Address).approve(_lender, fundDetail.amount);\n        IERC20(_ERC20Address).transfer(_lender, fundDetail.amount);\n\n        fundDetail.state = BidState.WITHDRAWN;\n\n        emit Withdrawn(_lender, _bidId, _poolId, fundDetail.amount);\n    }\n}\n",
  "sourcePath": "/Users/sanskarkhare/Desktop/Pandora/aconomy-contract/contracts/deployPool.sol",
  "compiler": {
    "name": "solc",
    "version": "0.8.11+commit.d7f03943.Emscripten.clang"
  },
  "schemaVersion": "3.4.4",
  "updatedAt": "2023-02-09T06:33:35.224Z",
  "devdoc": {
    "kind": "dev",
    "methods": {},
    "version": 1
  },
  "userdoc": {
    "kind": "user",
    "methods": {},
    "version": 1
  }
}