{
  "contractName": "deployPool",
  "abi": [
    {
      "inputs": [
        {
          "internalType": "address",
          "name": "_poolOwner",
          "type": "address"
        },
        {
          "internalType": "address",
          "name": "_poolRegistry",
          "type": "address"
        },
        {
          "internalType": "uint256",
          "name": "_paymentCycleDuration",
          "type": "uint256"
        },
        {
          "internalType": "uint256",
          "name": "_paymentDefaultDuration",
          "type": "uint256"
        },
        {
          "internalType": "uint256",
          "name": "_feePercent",
          "type": "uint256"
        }
      ],
      "stateMutability": "nonpayable",
      "type": "constructor"
    },
    {
      "anonymous": false,
      "inputs": [
        {
          "indexed": false,
          "internalType": "address",
          "name": "reciever",
          "type": "address"
        },
        {
          "indexed": false,
          "internalType": "uint256",
          "name": "BidId",
          "type": "uint256"
        },
        {
          "indexed": false,
          "internalType": "uint256",
          "name": "PoolId",
          "type": "uint256"
        },
        {
          "indexed": false,
          "internalType": "uint256",
          "name": "Amount",
          "type": "uint256"
        },
        {
          "indexed": false,
          "internalType": "uint256",
          "name": "paymentCycleAmount",
          "type": "uint256"
        }
      ],
      "name": "AcceptedBid",
      "type": "event"
    },
    {
      "anonymous": false,
      "inputs": [
        {
          "indexed": true,
          "internalType": "uint256",
          "name": "bidId",
          "type": "uint256"
        }
      ],
      "name": "BidRepaid",
      "type": "event"
    },
    {
      "anonymous": false,
      "inputs": [
        {
          "indexed": true,
          "internalType": "uint256",
          "name": "bidId",
          "type": "uint256"
        }
      ],
      "name": "BidRepayment",
      "type": "event"
    },
    {
      "anonymous": false,
      "inputs": [
        {
          "indexed": true,
          "internalType": "address",
          "name": "lender",
          "type": "address"
        },
        {
          "indexed": true,
          "internalType": "uint256",
          "name": "poolId",
          "type": "uint256"
        },
        {
          "indexed": false,
          "internalType": "uint256",
          "name": "BidId",
          "type": "uint256"
        },
        {
          "indexed": true,
          "internalType": "address",
          "name": "ERC20Token",
          "type": "address"
        },
        {
          "indexed": false,
          "internalType": "uint256",
          "name": "tokenAmount",
          "type": "uint256"
        }
      ],
      "name": "SupplyToPool",
      "type": "event"
    },
    {
      "anonymous": false,
      "inputs": [
        {
          "indexed": false,
          "internalType": "address",
          "name": "reciever",
          "type": "address"
        },
        {
          "indexed": false,
          "internalType": "uint256",
          "name": "BidId",
          "type": "uint256"
        },
        {
          "indexed": false,
          "internalType": "uint256",
          "name": "PoolId",
          "type": "uint256"
        },
        {
          "indexed": false,
          "internalType": "uint256",
          "name": "Amount",
          "type": "uint256"
        }
      ],
      "name": "Withdrawn",
      "type": "event"
    },
    {
      "anonymous": false,
      "inputs": [
        {
          "indexed": false,
          "internalType": "uint256",
          "name": "Amount",
          "type": "uint256"
        },
        {
          "indexed": false,
          "internalType": "uint256",
          "name": "interest",
          "type": "uint256"
        }
      ],
      "name": "paidAmount",
      "type": "event"
    },
    {
      "anonymous": false,
      "inputs": [
        {
          "indexed": false,
          "internalType": "uint256",
          "name": "owedAmount",
          "type": "uint256"
        },
        {
          "indexed": false,
          "internalType": "uint256",
          "name": "dueAmount",
          "type": "uint256"
        },
        {
          "indexed": false,
          "internalType": "uint256",
          "name": "interest",
          "type": "uint256"
        }
      ],
      "name": "repaidAmounts",
      "type": "event"
    },
    {
      "inputs": [],
      "name": "bidId",
      "outputs": [
        {
          "internalType": "uint256",
          "name": "",
          "type": "uint256"
        }
      ],
      "stateMutability": "view",
      "type": "function"
    },
    {
      "inputs": [
        {
          "internalType": "address",
          "name": "",
          "type": "address"
        },
        {
          "internalType": "uint256",
          "name": "",
          "type": "uint256"
        },
        {
          "internalType": "address",
          "name": "",
          "type": "address"
        },
        {
          "internalType": "uint256",
          "name": "",
          "type": "uint256"
        }
      ],
      "name": "lenderPoolFundDetails",
      "outputs": [
        {
          "internalType": "uint256",
          "name": "amount",
          "type": "uint256"
        },
        {
          "internalType": "uint256",
          "name": "expiration",
          "type": "uint256"
        },
        {
          "internalType": "uint32",
          "name": "maxDuration",
          "type": "uint32"
        },
        {
          "internalType": "uint16",
          "name": "interestRate",
          "type": "uint16"
        },
        {
          "internalType": "enum deployPool.BidState",
          "name": "state",
          "type": "uint8"
        },
        {
          "internalType": "uint32",
          "name": "bidTimestamp",
          "type": "uint32"
        },
        {
          "internalType": "uint32",
          "name": "acceptBidTimestamp",
          "type": "uint32"
        },
        {
          "internalType": "uint256",
          "name": "paymentCycleAmount",
          "type": "uint256"
        },
        {
          "internalType": "uint256",
          "name": "totalRepaidPrincipal",
          "type": "uint256"
        },
        {
          "internalType": "uint32",
          "name": "lastRepaidTimestamp",
          "type": "uint32"
        },
        {
          "components": [
            {
              "internalType": "uint256",
              "name": "amount",
              "type": "uint256"
            },
            {
              "internalType": "uint256",
              "name": "interest",
              "type": "uint256"
            }
          ],
          "internalType": "struct deployPool.RePayment",
          "name": "Repaid",
          "type": "tuple"
        }
      ],
      "stateMutability": "view",
      "type": "function"
    },
    {
      "inputs": [
        {
          "internalType": "uint256",
          "name": "_poolId",
          "type": "uint256"
        },
        {
          "internalType": "address",
          "name": "_ERC20Address",
          "type": "address"
        },
        {
          "internalType": "uint256",
          "name": "_amount",
          "type": "uint256"
        },
        {
          "internalType": "uint32",
          "name": "_maxLoanDuration",
          "type": "uint32"
        },
        {
          "internalType": "uint16",
          "name": "_interestRate",
          "type": "uint16"
        },
        {
          "internalType": "uint256",
          "name": "_expiration",
          "type": "uint256"
        }
      ],
      "name": "supplyToPool",
      "outputs": [],
      "stateMutability": "nonpayable",
      "type": "function"
    },
    {
      "inputs": [
        {
          "internalType": "uint256",
          "name": "_poolId",
          "type": "uint256"
        },
        {
          "internalType": "address",
          "name": "_ERC20Address",
          "type": "address"
        },
        {
          "internalType": "uint256",
          "name": "_bidId",
          "type": "uint256"
        },
        {
          "internalType": "address",
          "name": "_lender",
          "type": "address"
        },
        {
          "internalType": "address",
          "name": "_receiver",
          "type": "address"
        }
      ],
      "name": "AcceptBid",
      "outputs": [],
      "stateMutability": "nonpayable",
      "type": "function"
    },
    {
      "inputs": [
        {
          "internalType": "uint256",
          "name": "_poolId",
          "type": "uint256"
        },
        {
          "internalType": "address",
          "name": "_ERC20Address",
          "type": "address"
        },
        {
          "internalType": "uint256",
          "name": "_bidId",
          "type": "uint256"
        },
        {
          "internalType": "address",
          "name": "_lender",
          "type": "address"
        }
      ],
      "name": "RepayInstallment",
      "outputs": [],
      "stateMutability": "nonpayable",
      "type": "function"
    },
    {
      "inputs": [
        {
          "internalType": "uint256",
          "name": "_poolId",
          "type": "uint256"
        },
        {
          "internalType": "address",
          "name": "_ERC20Address",
          "type": "address"
        },
        {
          "internalType": "uint256",
          "name": "_bidId",
          "type": "uint256"
        },
        {
          "internalType": "address",
          "name": "_lender",
          "type": "address"
        }
      ],
      "name": "RepayFullAmount",
      "outputs": [],
      "stateMutability": "nonpayable",
      "type": "function"
    },
    {
      "inputs": [
        {
          "internalType": "uint256",
          "name": "_poolId",
          "type": "uint256"
        },
        {
          "internalType": "address",
          "name": "_ERC20Address",
          "type": "address"
        },
        {
          "internalType": "uint256",
          "name": "_bidId",
          "type": "uint256"
        },
        {
          "internalType": "address",
          "name": "_lender",
          "type": "address"
        }
      ],
      "name": "Withdraw",
      "outputs": [],
      "stateMutability": "nonpayable",
      "type": "function"
    }
  ],
  "bytecode": "0x608060405260006005553480156200001657600080fd5b5060405162002a2538038062002a2583398181016040528101906200003c919062000182565b846000806101000a81548173ffffffffffffffffffffffffffffffffffffffff021916908373ffffffffffffffffffffffffffffffffffffffff16021790555083600160006101000a81548173ffffffffffffffffffffffffffffffffffffffff021916908373ffffffffffffffffffffffffffffffffffffffff16021790555082600281905550816003819055508060048190555050505050506200020a565b600080fd5b600073ffffffffffffffffffffffffffffffffffffffff82169050919050565b60006200010f82620000e2565b9050919050565b620001218162000102565b81146200012d57600080fd5b50565b600081519050620001418162000116565b92915050565b6000819050919050565b6200015c8162000147565b81146200016857600080fd5b50565b6000815190506200017c8162000151565b92915050565b600080600080600060a08688031215620001a157620001a0620000dd565b5b6000620001b18882890162000130565b9550506020620001c48882890162000130565b9450506040620001d7888289016200016b565b9350506060620001ea888289016200016b565b9250506080620001fd888289016200016b565b9150509295509295909350565b61280b806200021a6000396000f3fe608060405234801561001057600080fd5b506004361061007d5760003560e01c80638ac473191161005b5780638ac47319146100d65780639080e562146100f45780639f8e66ee1461012e578063b74e67331461014a5761007d565b8063297d7cb4146100825780635645483b1461009e5780637c24977e146100ba575b600080fd5b61009c60048036038101906100979190611a39565b610166565b005b6100b860048036038101906100b39190611aa0565b6104da565b005b6100d460048036038101906100cf9190611a39565b610a59565b005b6100de610dd3565b6040516100eb9190611b2a565b60405180910390f35b61010e60048036038101906101099190611b45565b610dd9565b6040516101259b9a99989796959493929190611c9d565b60405180910390f35b61014860048036038101906101439190611da0565b610ed3565b005b610164600480360381019061015f9190611a39565b6112fc565b005b83600160009054906101000a900473ffffffffffffffffffffffffffffffffffffffff1673ffffffffffffffffffffffffffffffffffffffff16636e34b4e4826040518263ffffffff1660e01b81526004016101c29190611b2a565b602060405180830381865afa1580156101df573d6000803e3d6000fd5b505050506040513d601f19601f820116820180604052508101906102039190611e42565b73ffffffffffffffffffffffffffffffffffffffff163373ffffffffffffffffffffffffffffffffffffffff161461023a57600080fd5b6000600660008473ffffffffffffffffffffffffffffffffffffffff1673ffffffffffffffffffffffffffffffffffffffff168152602001908152602001600020600087815260200190815260200160002060008673ffffffffffffffffffffffffffffffffffffffff1673ffffffffffffffffffffffffffffffffffffffff16815260200190815260200160002060008581526020019081526020016000209050600260048111156102f0576102ef611be8565b5b8160020160069054906101000a900460ff16600481111561031457610313611be8565b5b14610354576040517f08c379a000000000000000000000000000000000000000000000000000000000815260040161034b90611ecc565b60405180910390fd5b6000600160009054906101000a900473ffffffffffffffffffffffffffffffffffffffff1673ffffffffffffffffffffffffffffffffffffffff1663805deb53886040518263ffffffff1660e01b81526004016103b19190611b2a565b602060405180830381865afa1580156103ce573d6000803e3d6000fd5b505050506040513d601f19601f820116820180604052508101906103f29190611f01565b9050600080610477846000015485600601600001548660020160049054906101000a900461ffff1687600301548763ffffffff168960050160009054906101000a900463ffffffff16428b600201600b9054906101000a900463ffffffff1663ffffffff168c60020160009054906101000a900463ffffffff1663ffffffff166115d3565b925050915061049689898989868687896104919190611f5d565b611604565b7f5fea702eef28f016f331b310c5891ae3d4ba1869e502b9e70fc2e36562950c9182826040516104c7929190611fb3565b60405180910390a1505050505050505050565b84600160009054906101000a900473ffffffffffffffffffffffffffffffffffffffff1673ffffffffffffffffffffffffffffffffffffffff16636e34b4e4826040518263ffffffff1660e01b81526004016105369190611b2a565b602060405180830381865afa158015610553573d6000803e3d6000fd5b505050506040513d601f19601f820116820180604052508101906105779190611e42565b73ffffffffffffffffffffffffffffffffffffffff163373ffffffffffffffffffffffffffffffffffffffff16146105ae57600080fd5b6000600660008573ffffffffffffffffffffffffffffffffffffffff1673ffffffffffffffffffffffffffffffffffffffff168152602001908152602001600020600088815260200190815260200160002060008773ffffffffffffffffffffffffffffffffffffffff1673ffffffffffffffffffffffffffffffffffffffff168152602001908152602001600020600086815260200190815260200160002090506000600481111561066457610663611be8565b5b8160020160069054906101000a900460ff16600481111561068857610687611be8565b5b146106c8576040517f08c379a00000000000000000000000000000000000000000000000000000000081526004016106bf90611ecc565b60405180910390fd5b4281600201600b6101000a81548163ffffffff021916908363ffffffff16021790555060008160000154905060028260020160066101000a81548160ff0219169083600481111561071c5761071b611be8565b5b02179055506000600160009054906101000a900473ffffffffffffffffffffffffffffffffffffffff1673ffffffffffffffffffffffffffffffffffffffff1662a5ae218a6040518263ffffffff1660e01b815260040161077d9190611b2a565b602060405180830381865afa15801561079a573d6000803e3d6000fd5b505050506040513d601f19601f820116820180604052508101906107be9190611e42565b90506000600160009054906101000a900473ffffffffffffffffffffffffffffffffffffffff1673ffffffffffffffffffffffffffffffffffffffff1663805deb538b6040518263ffffffff1660e01b815260040161081d9190611b2a565b602060405180830381865afa15801561083a573d6000803e3d6000fd5b505050506040513d601f19601f8201168201806040525081019061085e9190611f01565b905073__LibCalculations_______________________632872a887848660020160009054906101000a900463ffffffff16848860020160049054906101000a900461ffff166040518563ffffffff1660e01b81526004016108c39493929190612009565b602060405180830381865af41580156108e0573d6000803e3d6000fd5b505050506040513d601f19601f820116820180604052508101906109049190612063565b84600301819055508873ffffffffffffffffffffffffffffffffffffffff1663095ea7b387856040518363ffffffff1660e01b815260040161094792919061209f565b6020604051808303816000875af1158015610966573d6000803e3d6000fd5b505050506040513d601f19601f8201168201806040525081019061098a9190612100565b508873ffffffffffffffffffffffffffffffffffffffff1663a9059cbb87856040518363ffffffff1660e01b81526004016109c692919061209f565b6020604051808303816000875af11580156109e5573d6000803e3d6000fd5b505050506040513d601f19601f82011682018060405250810190610a099190612100565b507f0c59092e68c08f10cb23a788fdb39228e729651e761cc393a9a0cb11be6ed63586898c868860030154604051610a4595949392919061212d565b60405180910390a150505050505050505050565b83600160009054906101000a900473ffffffffffffffffffffffffffffffffffffffff1673ffffffffffffffffffffffffffffffffffffffff16636e34b4e4826040518263ffffffff1660e01b8152600401610ab59190611b2a565b602060405180830381865afa158015610ad2573d6000803e3d6000fd5b505050506040513d601f19601f82011682018060405250810190610af69190611e42565b73ffffffffffffffffffffffffffffffffffffffff163373ffffffffffffffffffffffffffffffffffffffff1614610b2d57600080fd5b6000600660008473ffffffffffffffffffffffffffffffffffffffff1673ffffffffffffffffffffffffffffffffffffffff168152602001908152602001600020600087815260200190815260200160002060008673ffffffffffffffffffffffffffffffffffffffff1673ffffffffffffffffffffffffffffffffffffffff1681526020019081526020016000206000858152602001908152602001600020905060026004811115610be357610be2611be8565b5b8160020160069054906101000a900460ff166004811115610c0757610c06611be8565b5b14610c47576040517f08c379a0000000000000000000000000000000000000000000000000000000008152600401610c3e90611ecc565b60405180910390fd5b6000600160009054906101000a900473ffffffffffffffffffffffffffffffffffffffff1673ffffffffffffffffffffffffffffffffffffffff1663805deb53886040518263ffffffff1660e01b8152600401610ca49190611b2a565b602060405180830381865afa158015610cc1573d6000803e3d6000fd5b505050506040513d601f19601f82011682018060405250810190610ce59190611f01565b90506000806000610d6c856000015486600601600001548760020160049054906101000a900461ffff1688600301548863ffffffff168a60050160009054906101000a900463ffffffff16428c600201600b9054906101000a900463ffffffff1663ffffffff168d60020160009054906101000a900463ffffffff1663ffffffff166115d3565b925092509250610d8c8a8a8a8a8686878a610d879190611f5d565b611604565b7f193d98b28f4db3258b9a6bc3f7270c0ea85e0a520b3dc0daad9acc7136703d0f838383604051610dbf93929190612180565b60405180910390a150505050505050505050565b60055481565b60066020528360005260406000206020528260005260406000206020528160005260406000206020528060005260406000206000935093505050508060000154908060010154908060020160009054906101000a900463ffffffff16908060020160049054906101000a900461ffff16908060020160069054906101000a900460ff16908060020160079054906101000a900463ffffffff169080600201600b9054906101000a900463ffffffff16908060030154908060040154908060050160009054906101000a900463ffffffff1690806006016040518060400160405290816000820154815260200160018201548152505090508b565b6000600160009054906101000a900473ffffffffffffffffffffffffffffffffffffffff1673ffffffffffffffffffffffffffffffffffffffff1663cf65392088336040518363ffffffff1660e01b8152600401610f329291906121b7565b6040805180830381865afa158015610f4e573d6000803e3d6000fd5b505050506040513d601f19601f82011682018060405250810190610f729190612216565b50905080610fb5576040517f08c379a0000000000000000000000000000000000000000000000000000000008152600401610fac906122a2565b60405180910390fd5b60003390504263ffffffff168311611002576040517f08c379a0000000000000000000000000000000000000000000000000000000008152600401610ff99061230e565b60405180910390fd5b600060055490506000600660008473ffffffffffffffffffffffffffffffffffffffff1673ffffffffffffffffffffffffffffffffffffffff16815260200190815260200160002060008b815260200190815260200160002060008a73ffffffffffffffffffffffffffffffffffffffff1673ffffffffffffffffffffffffffffffffffffffff16815260200190815260200160002060008381526020019081526020016000209050878160000181905550848160010181905550868160020160006101000a81548163ffffffff021916908363ffffffff160217905550858160020160046101000a81548161ffff021916908361ffff160217905550428160020160076101000a81548163ffffffff021916908363ffffffff16021790555060008160020160066101000a81548160ff0219169083600481111561114a57611149611be8565b5b02179055506000600160009054906101000a900473ffffffffffffffffffffffffffffffffffffffff1673ffffffffffffffffffffffffffffffffffffffff1662a5ae218c6040518263ffffffff1660e01b81526004016111ab9190611b2a565b602060405180830381865afa1580156111c8573d6000803e3d6000fd5b505050506040513d601f19601f820116820180604052508101906111ec9190611e42565b90508973ffffffffffffffffffffffffffffffffffffffff166323b872dd85838c6040518463ffffffff1660e01b815260040161122b9392919061232e565b6020604051808303816000875af115801561124a573d6000803e3d6000fd5b505050506040513d601f19601f8201168201806040525081019061126e9190612100565b506005600081548092919061128290612365565b91905055508973ffffffffffffffffffffffffffffffffffffffff168b8573ffffffffffffffffffffffffffffffffffffffff167fdc518e49f7c1b433956bb608271b1e22669d38bcd1c7bba0712e96b324499bdf868d6040516112e7929190611fb3565b60405180910390a45050505050505050505050565b6000600660008373ffffffffffffffffffffffffffffffffffffffff1673ffffffffffffffffffffffffffffffffffffffff168152602001908152602001600020600086815260200190815260200160002060008573ffffffffffffffffffffffffffffffffffffffff1673ffffffffffffffffffffffffffffffffffffffff168152602001908152602001600020600084815260200190815260200160002090503373ffffffffffffffffffffffffffffffffffffffff168273ffffffffffffffffffffffffffffffffffffffff161461140c576040517f08c379a0000000000000000000000000000000000000000000000000000000008152600401611403906123fa565b60405180910390fd5b4263ffffffff16816001015410611458576040517f08c379a000000000000000000000000000000000000000000000000000000000815260040161144f90612466565b60405180910390fd5b8373ffffffffffffffffffffffffffffffffffffffff1663095ea7b38383600001546040518363ffffffff1660e01b815260040161149792919061209f565b6020604051808303816000875af11580156114b6573d6000803e3d6000fd5b505050506040513d601f19601f820116820180604052508101906114da9190612100565b508373ffffffffffffffffffffffffffffffffffffffff1663a9059cbb8383600001546040518363ffffffff1660e01b815260040161151a92919061209f565b6020604051808303816000875af1158015611539573d6000803e3d6000fd5b505050506040513d601f19601f8201168201806040525081019061155d9190612100565b5060048160020160066101000a81548160ff0219169083600481111561158657611585611be8565b5b02179055507f75e161b3e824b114fc1a33274bd7091918dd4e639cede50b78b15a4eea956a2182848784600001546040516115c49493929190612486565b60405180910390a15050505050565b60008060006115ef8c8c8c8c8c8c63ffffffff168c8c8c611838565b92509250925099509950999650505050505050565b6000600660008673ffffffffffffffffffffffffffffffffffffffff1673ffffffffffffffffffffffffffffffffffffffff168152602001908152602001600020600089815260200190815260200160002060008873ffffffffffffffffffffffffffffffffffffffff1673ffffffffffffffffffffffffffffffffffffffff16815260200190815260200160002060008781526020019081526020016000209050600083856116b49190611f5d565b905082811061171f5782905060038260020160066101000a81548160ff021916908360048111156116e8576116e7611be8565b5b0217905550867f37180baa34e3d7488cedcffc8500f641fc3da08ecb0b2fceae312de7eb9fa5f760405160405180910390a261174d565b867f9b819567f5d73abc955ed5bf28efb785f770197f53dd601f090c0a0ef80ab2bf60405160405180910390a25b8773ffffffffffffffffffffffffffffffffffffffff166323b872dd3388846040518463ffffffff1660e01b815260040161178a9392919061232e565b6020604051808303816000875af11580156117a9573d6000803e3d6000fd5b505050506040513d601f19601f820116820180604052508101906117cd9190612100565b50848260060160000160008282546117e59190611f5d565b92505081905550838260060160010160008282546118039190611f5d565b92505081905550428260050160006101000a81548163ffffffff021916908363ffffffff160217905550505050505050505050565b60008060008a8c61184991906124cb565b92506000611857848c611921565b90506000888861186791906124cb565b90506301e13380818361187a91906124ff565b6118849190612588565b92506000878961189491906125c3565b8761189f91906125c3565b905060008b8212806118bc57508c85886118b99190611f5d565b11155b90506000816118cb578d6118d8565b85886118d79190611f5d565b5b905060008d85836118e991906124ff565b6118f39190612588565b905061190a878261190491906124cb565b8a61193b565b975050505050505099509950999650505050505050565b6000611933838361ffff166002611954565b905092915050565b600081831061194a578161194c565b825b905092915050565b600061195f8261197e565b838561196b91906124ff565b6119759190612588565b90509392505050565b600081600a61198d919061278a565b606461199991906124ff565b9050919050565b600080fd5b6000819050919050565b6119b8816119a5565b81146119c357600080fd5b50565b6000813590506119d5816119af565b92915050565b600073ffffffffffffffffffffffffffffffffffffffff82169050919050565b6000611a06826119db565b9050919050565b611a16816119fb565b8114611a2157600080fd5b50565b600081359050611a3381611a0d565b92915050565b60008060008060808587031215611a5357611a526119a0565b5b6000611a61878288016119c6565b9450506020611a7287828801611a24565b9350506040611a83878288016119c6565b9250506060611a9487828801611a24565b91505092959194509250565b600080600080600060a08688031215611abc57611abb6119a0565b5b6000611aca888289016119c6565b9550506020611adb88828901611a24565b9450506040611aec888289016119c6565b9350506060611afd88828901611a24565b9250506080611b0e88828901611a24565b9150509295509295909350565b611b24816119a5565b82525050565b6000602082019050611b3f6000830184611b1b565b92915050565b60008060008060808587031215611b5f57611b5e6119a0565b5b6000611b6d87828801611a24565b9450506020611b7e878288016119c6565b9350506040611b8f87828801611a24565b9250506060611ba0878288016119c6565b91505092959194509250565b600063ffffffff82169050919050565b611bc581611bac565b82525050565b600061ffff82169050919050565b611be281611bcb565b82525050565b7f4e487b7100000000000000000000000000000000000000000000000000000000600052602160045260246000fd5b60058110611c2857611c27611be8565b5b50565b6000819050611c3982611c17565b919050565b6000611c4982611c2b565b9050919050565b611c5981611c3e565b82525050565b611c68816119a5565b82525050565b604082016000820151611c846000850182611c5f565b506020820151611c976020850182611c5f565b50505050565b600061018082019050611cb3600083018e611b1b565b611cc0602083018d611b1b565b611ccd604083018c611bbc565b611cda606083018b611bd9565b611ce7608083018a611c50565b611cf460a0830189611bbc565b611d0160c0830188611bbc565b611d0e60e0830187611b1b565b611d1c610100830186611b1b565b611d2a610120830185611bbc565b611d38610140830184611c6e565b9c9b505050505050505050505050565b611d5181611bac565b8114611d5c57600080fd5b50565b600081359050611d6e81611d48565b92915050565b611d7d81611bcb565b8114611d8857600080fd5b50565b600081359050611d9a81611d74565b92915050565b60008060008060008060c08789031215611dbd57611dbc6119a0565b5b6000611dcb89828a016119c6565b9650506020611ddc89828a01611a24565b9550506040611ded89828a016119c6565b9450506060611dfe89828a01611d5f565b9350506080611e0f89828a01611d8b565b92505060a0611e2089828a016119c6565b9150509295509295509295565b600081519050611e3c81611a0d565b92915050565b600060208284031215611e5857611e576119a0565b5b6000611e6684828501611e2d565b91505092915050565b600082825260208201905092915050565b7f426964206d7573742062652070656e64696e6700000000000000000000000000600082015250565b6000611eb6601383611e6f565b9150611ec182611e80565b602082019050919050565b60006020820190508181036000830152611ee581611ea9565b9050919050565b600081519050611efb81611d48565b92915050565b600060208284031215611f1757611f166119a0565b5b6000611f2584828501611eec565b91505092915050565b7f4e487b7100000000000000000000000000000000000000000000000000000000600052601160045260246000fd5b6000611f68826119a5565b9150611f73836119a5565b9250827fffffffffffffffffffffffffffffffffffffffffffffffffffffffffffffffff03821115611fa857611fa7611f2e565b5b828201905092915050565b6000604082019050611fc86000830185611b1b565b611fd56020830184611b1b565b9392505050565b611fe5816119a5565b82525050565b611ff481611bac565b82525050565b61200381611bcb565b82525050565b600060808201905061201e6000830187611fdc565b61202b6020830186611feb565b6120386040830185611feb565b6120456060830184611ffa565b95945050505050565b60008151905061205d816119af565b92915050565b600060208284031215612079576120786119a0565b5b60006120878482850161204e565b91505092915050565b612099816119fb565b82525050565b60006040820190506120b46000830185612090565b6120c16020830184611b1b565b9392505050565b60008115159050919050565b6120dd816120c8565b81146120e857600080fd5b50565b6000815190506120fa816120d4565b92915050565b600060208284031215612116576121156119a0565b5b6000612124848285016120eb565b91505092915050565b600060a0820190506121426000830188612090565b61214f6020830187611b1b565b61215c6040830186611b1b565b6121696060830185611b1b565b6121766080830184611b1b565b9695505050505050565b60006060820190506121956000830186611b1b565b6121a26020830185611b1b565b6121af6040830184611b1b565b949350505050565b60006040820190506121cc6000830185611b1b565b6121d96020830184612090565b9392505050565b6000819050919050565b6121f3816121e0565b81146121fe57600080fd5b50565b600081519050612210816121ea565b92915050565b6000806040838503121561222d5761222c6119a0565b5b600061223b858286016120eb565b925050602061224c85828601612201565b9150509250929050565b7f4e6f74207665726966696564206c656e64657200000000000000000000000000600082015250565b600061228c601383611e6f565b915061229782612256565b602082019050919050565b600060208201905081810360008301526122bb8161227f565b9050919050565b7f77726f6e672074696d657374616d700000000000000000000000000000000000600082015250565b60006122f8600f83611e6f565b9150612303826122c2565b602082019050919050565b60006020820190508181036000830152612327816122eb565b9050919050565b60006060820190506123436000830186612090565b6123506020830185612090565b61235d6040830184611b1b565b949350505050565b6000612370826119a5565b91507fffffffffffffffffffffffffffffffffffffffffffffffffffffffffffffffff8214156123a3576123a2611f2e565b5b600182019050919050565b7f596f7520617265206e6f742061204c656e646572000000000000000000000000600082015250565b60006123e4601483611e6f565b91506123ef826123ae565b602082019050919050565b60006020820190508181036000830152612413816123d7565b9050919050565b7f596f752063616e27742057697468647261770000000000000000000000000000600082015250565b6000612450601283611e6f565b915061245b8261241a565b602082019050919050565b6000602082019050818103600083015261247f81612443565b9050919050565b600060808201905061249b6000830187612090565b6124a86020830186611b1b565b6124b56040830185611b1b565b6124c26060830184611b1b565b95945050505050565b60006124d6826119a5565b91506124e1836119a5565b9250828210156124f4576124f3611f2e565b5b828203905092915050565b600061250a826119a5565b9150612515836119a5565b9250817fffffffffffffffffffffffffffffffffffffffffffffffffffffffffffffffff048311821515161561254e5761254d611f2e565b5b828202905092915050565b7f4e487b7100000000000000000000000000000000000000000000000000000000600052601260045260246000fd5b6000612593826119a5565b915061259e836119a5565b9250826125ae576125ad612559565b5b828204905092915050565b6000819050919050565b60006125ce826125b9565b91506125d9836125b9565b9250827f80000000000000000000000000000000000000000000000000000000000000000182126000841215161561261457612613611f2e565b5b827f7fffffffffffffffffffffffffffffffffffffffffffffffffffffffffffffff01821360008412161561264c5761264b611f2e565b5b828203905092915050565b60008160011c9050919050565b6000808291508390505b60018511156126ae5780860481111561268a57612689611f2e565b5b60018516156126995780820291505b80810290506126a785612657565b945061266e565b94509492505050565b6000826126c75760019050612783565b816126d55760009050612783565b81600181146126eb57600281146126f557612724565b6001915050612783565b60ff84111561270757612706611f2e565b5b8360020a91508482111561271e5761271d611f2e565b5b50612783565b5060208310610133831016604e8410600b84101617156127595782820a90508381111561275457612753611f2e565b5b612783565b6127668484846001612664565b9250905081840481111561277d5761277c611f2e565b5b81810290505b9392505050565b6000612795826119a5565b91506127a0836119a5565b92506127cd7fffffffffffffffffffffffffffffffffffffffffffffffffffffffffffffffff84846126b7565b90509291505056fea2646970667358221220ec94d3afdf334323303b78db450d165967dcce50af0c652d846471d8a4ae4dc164736f6c634300080b0033",
  "immutableReferences": {},
  "source": "// SPDX-License-Identifier: MIT\npragma solidity >=0.4.22 <0.9.0;\n\nimport \"./Libraries/LibPool.sol\";\n\nimport \"@openzeppelin/contracts/token/ERC20/IERC20.sol\";\nimport \"@openzeppelin/contracts/token/ERC721/extensions/ERC721URIStorage.sol\";\nimport \"./Libraries/LibCalculations.sol\";\nimport \"./poolRegistry.sol\";\n\ncontract deployPool {\n    address poolOwner;\n    address poolRegistryAddress;\n    uint256 paymentCycleDuration;\n    uint256 paymentDefaultDuration;\n    uint256 feePercent;\n\n    constructor(\n        address _poolOwner,\n        address _poolRegistry,\n        uint256 _paymentCycleDuration,\n        uint256 _paymentDefaultDuration,\n        uint256 _feePercent\n    ) {\n        poolOwner = _poolOwner;\n        poolRegistryAddress = _poolRegistry;\n        paymentCycleDuration = _paymentCycleDuration;\n        paymentDefaultDuration = _paymentDefaultDuration;\n        feePercent = _feePercent;\n    }\n\n    modifier onlyPoolOwner(uint256 poolId) {\n        require(\n            msg.sender == poolRegistry(poolRegistryAddress).getPoolOwner(poolId)\n        );\n        _;\n    }\n\n    uint256 public bidId = 0;\n\n    event BidRepaid(uint256 indexed bidId);\n    event BidRepayment(uint256 indexed bidId);\n\n    event AcceptedBid(\n        address reciever,\n        uint256 BidId,\n        uint256 PoolId,\n        uint256 Amount,\n        uint256 paymentCycleAmount\n    );\n\n    event Withdrawn(\n        address reciever,\n        uint256 BidId,\n        uint256 PoolId,\n        uint256 Amount\n    );\n\n    event SupplyToPool(\n        address indexed lender,\n        uint256 indexed poolId,\n        uint256 BidId,\n        address indexed ERC20Token,\n        uint256 tokenAmount\n    );\n\n    event repaidAmounts(\n        uint256 owedAmount,\n        uint256 dueAmount,\n        uint256 interest\n    );\n\n    event paidAmount(uint256 Amount, uint256 interest);\n\n    struct FundDetail {\n        uint256 amount;\n        uint256 expiration; //After expiration time, if owner dose not accept bid then lender can withdraw the fund\n        uint32 maxDuration; //Bid Duration\n        uint16 interestRate;\n        BidState state;\n        uint32 bidTimestamp;\n        uint32 acceptBidTimestamp;\n        uint256 paymentCycleAmount;\n        uint256 totalRepaidPrincipal;\n        uint32 lastRepaidTimestamp;\n        RePayment Repaid;\n    }\n\n    struct RePayment {\n        uint256 amount;\n        uint256 interest;\n    }\n\n    enum BidState {\n        PENDING,\n        CANCELLED,\n        ACCEPTED,\n        PAID,\n        WITHDRAWN\n    }\n\n    // Mapping of lender address => poolId => ERC20 token => BidId => FundDetail\n    mapping(address => mapping(uint256 => mapping(address => mapping(uint256 => FundDetail))))\n        public lenderPoolFundDetails;\n\n    //Supply to pool by lenders\n    function supplyToPool(\n        uint256 _poolId,\n        address _ERC20Address,\n        uint256 _amount,\n        uint32 _maxLoanDuration,\n        uint16 _interestRate,\n        uint256 _expiration\n    ) external {\n        (bool isVerified, ) = poolRegistry(poolRegistryAddress)\n            .lenderVarification(_poolId, msg.sender);\n\n        require(isVerified, \"Not verified lender\");\n\n        address lender = msg.sender;\n        require(_expiration > uint32(block.timestamp), \"wrong timestamp\");\n        uint256 _bidId = bidId;\n        FundDetail storage fundDetail = lenderPoolFundDetails[lender][_poolId][\n            _ERC20Address\n        ][_bidId];\n        fundDetail.amount = _amount;\n        fundDetail.expiration = _expiration;\n        fundDetail.maxDuration = _maxLoanDuration;\n        fundDetail.interestRate = _interestRate;\n        fundDetail.bidTimestamp = uint32(block.timestamp);\n\n        fundDetail.state = BidState.PENDING;\n\n        address _poolAddress = poolRegistry(poolRegistryAddress).getPoolAddress(\n            _poolId\n        );\n\n        // Send payment to the Pool\n        IERC20(_ERC20Address).transferFrom(lender, _poolAddress, _amount);\n        bidId++;\n\n        emit SupplyToPool(lender, _poolId, _bidId, _ERC20Address, _amount);\n    }\n\n    function AcceptBid(\n        uint256 _poolId,\n        address _ERC20Address,\n        uint256 _bidId,\n        address _lender,\n        address _receiver\n    ) external onlyPoolOwner(_poolId) {\n        FundDetail storage fundDetail = lenderPoolFundDetails[_lender][_poolId][\n            _ERC20Address\n        ][_bidId];\n        if (fundDetail.state != BidState.PENDING) {\n            revert(\"Bid must be pending\");\n        }\n        fundDetail.acceptBidTimestamp = uint32(block.timestamp);\n        uint256 amount = fundDetail.amount;\n        fundDetail.state = BidState.ACCEPTED;\n        address _poolAddress = poolRegistry(poolRegistryAddress).getPoolAddress(\n            _poolId\n        );\n        uint32 paymentCycle = poolRegistry(poolRegistryAddress)\n            .getPaymentCycleDuration(_poolId);\n\n        fundDetail.paymentCycleAmount = LibCalculations.payment(\n            amount,\n            fundDetail.maxDuration,\n            paymentCycle,\n            fundDetail.interestRate\n        );\n\n        IERC20(_ERC20Address).approve(_receiver, amount);\n        IERC20(_ERC20Address).transfer(_receiver, amount);\n\n        emit AcceptedBid(\n            _receiver,\n            _bidId,\n            _poolId,\n            amount,\n            fundDetail.paymentCycleAmount\n        );\n    }\n\n    function RepayInstallment(\n        uint256 _poolId,\n        address _ERC20Address,\n        uint256 _bidId,\n        address _lender\n    ) external onlyPoolOwner(_poolId) {\n        FundDetail storage fundDetail = lenderPoolFundDetails[_lender][_poolId][\n            _ERC20Address\n        ][_bidId];\n        if (fundDetail.state != BidState.ACCEPTED) {\n            revert(\"Bid must be pending\");\n        }\n\n        uint32 paymentCycle = poolRegistry(poolRegistryAddress)\n            .getPaymentCycleDuration(_poolId);\n\n        (\n            uint256 owedAmount,\n            uint256 dueAmount,\n            uint256 interest\n        ) = LibCalculations.calculateInstallmentAmount(\n                fundDetail.amount,\n                fundDetail.Repaid.amount,\n                fundDetail.interestRate,\n                fundDetail.paymentCycleAmount,\n                paymentCycle,\n                fundDetail.lastRepaidTimestamp,\n                block.timestamp,\n                fundDetail.acceptBidTimestamp,\n                fundDetail.maxDuration\n            );\n        _repayBid(\n            _poolId,\n            _ERC20Address,\n            _bidId,\n            _lender,\n            dueAmount,\n            interest,\n            owedAmount + interest\n        );\n\n        emit repaidAmounts(owedAmount, dueAmount, interest);\n    }\n\n    function RepayFullAmount(\n        uint256 _poolId,\n        address _ERC20Address,\n        uint256 _bidId,\n        address _lender\n    ) external onlyPoolOwner(_poolId) {\n        FundDetail storage fundDetail = lenderPoolFundDetails[_lender][_poolId][\n            _ERC20Address\n        ][_bidId];\n        if (fundDetail.state != BidState.ACCEPTED) {\n            revert(\"Bid must be pending\");\n        }\n\n        uint32 paymentCycle = poolRegistry(poolRegistryAddress)\n            .getPaymentCycleDuration(_poolId);\n\n        (uint256 owedAmount, , uint256 interest) = LibCalculations\n            .calculateInstallmentAmount(\n                fundDetail.amount,\n                fundDetail.Repaid.amount,\n                fundDetail.interestRate,\n                fundDetail.paymentCycleAmount,\n                paymentCycle,\n                fundDetail.lastRepaidTimestamp,\n                block.timestamp,\n                fundDetail.acceptBidTimestamp,\n                fundDetail.maxDuration\n            );\n        _repayBid(\n            _poolId,\n            _ERC20Address,\n            _bidId,\n            _lender,\n            owedAmount,\n            interest,\n            owedAmount + interest\n        );\n\n        emit paidAmount(owedAmount, interest);\n    }\n\n    function _repayBid(\n        uint256 _poolId,\n        address _ERC20Address,\n        uint256 _bidId,\n        address _lender,\n        uint256 _amount,\n        uint256 _interest,\n        uint256 _owedAmount\n    ) internal {\n        FundDetail storage fundDetail = lenderPoolFundDetails[_lender][_poolId][\n            _ERC20Address\n        ][_bidId];\n\n        uint256 paymentAmount = _amount + _interest;\n\n        // Check if we are sending a payment or amount remaining\n        if (paymentAmount >= _owedAmount) {\n            paymentAmount = _owedAmount;\n\n            fundDetail.state = BidState.PAID;\n            emit BidRepaid(_bidId);\n        } else {\n            emit BidRepayment(_bidId);\n        }\n        // Send payment to the lender\n        IERC20(_ERC20Address).transferFrom(msg.sender, _lender, paymentAmount);\n\n        fundDetail.Repaid.amount += _amount;\n        fundDetail.Repaid.interest += _interest;\n        fundDetail.lastRepaidTimestamp = uint32(block.timestamp);\n    }\n\n    function Withdraw(\n        uint256 _poolId,\n        address _ERC20Address,\n        uint256 _bidId,\n        address _lender\n    ) external {\n        FundDetail storage fundDetail = lenderPoolFundDetails[_lender][_poolId][\n            _ERC20Address\n        ][_bidId];\n\n        // Check is lender the calling the function\n        if (_lender != msg.sender) {\n            revert(\"You are not a Lender\");\n        }\n\n        require(\n            fundDetail.expiration < uint32(block.timestamp),\n            \"You can't Withdraw\"\n        );\n\n        // Transfering the amount to the lender\n        IERC20(_ERC20Address).approve(_lender, fundDetail.amount);\n        IERC20(_ERC20Address).transfer(_lender, fundDetail.amount);\n\n        fundDetail.state = BidState.WITHDRAWN;\n\n        emit Withdrawn(_lender, _bidId, _poolId, fundDetail.amount);\n    }\n}\n",
  "sourcePath": "/Users/sanskarkhare/Desktop/Pandora/aconomy-contract/contracts/deployPool.sol",
  "compiler": {
    "name": "solc",
    "version": "0.8.11+commit.d7f03943.Emscripten.clang"
  },
  "schemaVersion": "3.4.4",
  "updatedAt": "2023-02-07T06:57:51.089Z",
  "devdoc": {
    "kind": "dev",
    "methods": {},
    "version": 1
  },
  "userdoc": {
    "kind": "user",
    "methods": {},
    "version": 1
  }
}