{
    "contractName": "poolRegistry",
    "abi": [
        {
            "inputs": [
                {
                    "internalType": "contract AttestationServices",
                    "name": "_attestationServices",
                    "type": "address"
                }
            ],
            "stateMutability": "nonpayable",
            "type": "constructor"
        },
        {
            "anonymous": false,
            "inputs": [
                {
                    "indexed": false,
                    "internalType": "uint256",
                    "name": "poolId",
                    "type": "uint256"
                },
                {
                    "indexed": false,
                    "internalType": "address",
                    "name": "borrower",
                    "type": "address"
                }
            ],
            "name": "BorrowerAttestation",
            "type": "event"
        },
        {
            "anonymous": false,
            "inputs": [
                {
                    "indexed": false,
                    "internalType": "uint256",
                    "name": "poolId",
                    "type": "uint256"
                },
                {
                    "indexed": false,
                    "internalType": "address",
                    "name": "lender",
                    "type": "address"
                }
            ],
            "name": "LenderAttestation",
            "type": "event"
        },
        {
            "anonymous": false,
            "inputs": [
                {
                    "indexed": false,
                    "internalType": "uint256",
                    "name": "poolId",
                    "type": "uint256"
                },
                {
                    "indexed": false,
                    "internalType": "uint32",
                    "name": "duration",
                    "type": "uint32"
                }
            ],
            "name": "SetPaymentCycleDuration",
            "type": "event"
        },
        {
            "anonymous": false,
            "inputs": [
                {
                    "indexed": false,
                    "internalType": "uint256",
                    "name": "poolId",
                    "type": "uint256"
                },
                {
                    "indexed": false,
                    "internalType": "uint32",
                    "name": "duration",
                    "type": "uint32"
                }
            ],
            "name": "SetPaymentDefaultDuration",
            "type": "event"
        },
        {
            "anonymous": false,
            "inputs": [
                {
                    "indexed": false,
                    "internalType": "uint256",
                    "name": "poolId",
                    "type": "uint256"
                },
                {
                    "indexed": false,
                    "internalType": "uint16",
                    "name": "feePct",
                    "type": "uint16"
                }
            ],
            "name": "SetPoolFee",
            "type": "event"
        },
        {
            "anonymous": false,
            "inputs": [
                {
                    "indexed": false,
                    "internalType": "uint256",
                    "name": "poolId",
                    "type": "uint256"
                },
                {
                    "indexed": false,
                    "internalType": "uint32",
                    "name": "duration",
                    "type": "uint32"
                }
            ],
            "name": "SetloanExpirationTime",
            "type": "event"
        },
        {
            "anonymous": false,
            "inputs": [
                {
                    "indexed": true,
                    "internalType": "address",
                    "name": "owner",
                    "type": "address"
                },
                {
                    "indexed": false,
                    "internalType": "address",
                    "name": "poolAddress",
                    "type": "address"
                },
                {
                    "indexed": false,
                    "internalType": "uint256",
                    "name": "poolId",
                    "type": "uint256"
                }
            ],
            "name": "poolCreated",
            "type": "event"
        },
        {
            "inputs": [],
            "name": "attestationService",
            "outputs": [
                {
                    "internalType": "contract AttestationServices",
                    "name": "",
                    "type": "address"
                }
            ],
            "stateMutability": "view",
            "type": "function"
        },
        {
            "inputs": [],
            "name": "borrowerAttestationSchemaId",
            "outputs": [
                {
                    "internalType": "bytes32",
                    "name": "",
                    "type": "bytes32"
                }
            ],
            "stateMutability": "view",
            "type": "function"
        },
        {
            "inputs": [],
            "name": "lenderAttestationSchemaId",
            "outputs": [
                {
                    "internalType": "bytes32",
                    "name": "",
                    "type": "bytes32"
                }
            ],
            "stateMutability": "view",
            "type": "function"
        },
        {
            "inputs": [],
            "name": "poolCount",
            "outputs": [
                {
                    "internalType": "uint256",
                    "name": "",
                    "type": "uint256"
                }
            ],
            "stateMutability": "view",
            "type": "function"
        },
        {
            "inputs": [
                {
                    "internalType": "string",
                    "name": "_word",
                    "type": "string"
                },
                {
                    "internalType": "bytes32",
                    "name": "ans",
                    "type": "bytes32"
                }
            ],
            "name": "guess",
            "outputs": [
                {
                    "internalType": "bool",
                    "name": "",
                    "type": "bool"
                }
            ],
            "stateMutability": "view",
            "type": "function"
        },
        {
            "inputs": [
                {
                    "internalType": "address",
                    "name": "_initialOwner",
                    "type": "address"
                },
                {
                    "internalType": "uint32",
                    "name": "_paymentCycleDuration",
                    "type": "uint32"
                },
                {
                    "internalType": "uint32",
                    "name": "_paymentDefaultDuration",
                    "type": "uint32"
                },
                {
                    "internalType": "uint32",
                    "name": "_loanExpirationTime",
                    "type": "uint32"
                },
                {
                    "internalType": "uint16",
                    "name": "_poolFeePercent",
                    "type": "uint16"
                },
                {
                    "internalType": "bool",
                    "name": "_requireLenderAttestation",
                    "type": "bool"
                },
                {
                    "internalType": "bool",
                    "name": "_requireBorrowerAttestation",
                    "type": "bool"
                }
            ],
            "name": "createPool",
            "outputs": [],
            "stateMutability": "nonpayable",
            "type": "function"
        },
        {
            "inputs": [
                {
                    "internalType": "uint256",
                    "name": "_poolId",
                    "type": "uint256"
                },
                {
                    "internalType": "uint32",
                    "name": "_duration",
                    "type": "uint32"
                }
            ],
            "name": "setPaymentCycleDuration",
            "outputs": [],
            "stateMutability": "nonpayable",
            "type": "function"
        },
        {
            "inputs": [
                {
                    "internalType": "uint256",
                    "name": "_poolId",
                    "type": "uint256"
                },
                {
                    "internalType": "uint32",
                    "name": "_duration",
                    "type": "uint32"
                }
            ],
            "name": "setPaymentDefaultDuration",
            "outputs": [],
            "stateMutability": "nonpayable",
            "type": "function"
        },
        {
            "inputs": [
                {
                    "internalType": "uint256",
                    "name": "_poolId",
                    "type": "uint256"
                },
                {
                    "internalType": "uint16",
                    "name": "_newPercent",
                    "type": "uint16"
                }
            ],
            "name": "setPoolFeePercent",
            "outputs": [],
            "stateMutability": "nonpayable",
            "type": "function"
        },
        {
            "inputs": [
                {
                    "internalType": "uint256",
                    "name": "_poolId",
                    "type": "uint256"
                },
                {
                    "internalType": "uint32",
                    "name": "_duration",
                    "type": "uint32"
                }
            ],
            "name": "setloanExpirationTime",
            "outputs": [],
            "stateMutability": "nonpayable",
            "type": "function"
        },
        {
            "inputs": [
                {
                    "internalType": "uint256",
                    "name": "_poolId",
                    "type": "uint256"
                },
                {
                    "internalType": "address",
                    "name": "_lenderAddress",
                    "type": "address"
                },
                {
                    "internalType": "uint256",
                    "name": "_expirationTime",
                    "type": "uint256"
                }
            ],
            "name": "addLender",
            "outputs": [],
            "stateMutability": "nonpayable",
            "type": "function"
        },
        {
            "inputs": [
                {
                    "internalType": "uint256",
                    "name": "_poolId",
                    "type": "uint256"
                },
                {
                    "internalType": "address",
                    "name": "_borrowerAddress",
                    "type": "address"
                },
                {
                    "internalType": "uint256",
                    "name": "_expirationTime",
                    "type": "uint256"
                }
            ],
            "name": "addBorrower",
            "outputs": [],
            "stateMutability": "nonpayable",
            "type": "function"
        },
        {
            "inputs": [
                {
                    "internalType": "uint256",
                    "name": "_poolId",
                    "type": "uint256"
                }
            ],
            "name": "getPoolFee",
            "outputs": [
                {
                    "internalType": "uint16",
                    "name": "fee",
                    "type": "uint16"
                }
            ],
            "stateMutability": "view",
            "type": "function"
        },
        {
            "inputs": [
                {
                    "internalType": "uint256",
                    "name": "_poolId",
                    "type": "uint256"
                },
                {
                    "internalType": "address",
                    "name": "_borrowerAddress",
                    "type": "address"
                }
            ],
            "name": "borrowerVarification",
            "outputs": [
                {
                    "internalType": "bool",
                    "name": "isVerified_",
                    "type": "bool"
                },
                {
                    "internalType": "bytes32",
                    "name": "uuid_",
                    "type": "bytes32"
                }
            ],
            "stateMutability": "view",
            "type": "function"
        },
        {
            "inputs": [
                {
                    "internalType": "uint256",
                    "name": "_poolId",
                    "type": "uint256"
                },
                {
                    "internalType": "address",
                    "name": "_lenderAddress",
                    "type": "address"
                }
            ],
            "name": "lenderVarification",
            "outputs": [
                {
                    "internalType": "bool",
                    "name": "isVerified_",
                    "type": "bool"
                },
                {
                    "internalType": "bytes32",
                    "name": "uuid_",
                    "type": "bytes32"
                }
            ],
            "stateMutability": "view",
            "type": "function"
        },
        {
            "inputs": [
                {
                    "internalType": "uint256",
                    "name": "_poolId",
                    "type": "uint256"
                }
            ],
            "name": "ClosedPool",
            "outputs": [
                {
                    "internalType": "bool",
                    "name": "",
                    "type": "bool"
                }
            ],
            "stateMutability": "view",
            "type": "function"
        },
        {
            "inputs": [
                {
                    "internalType": "uint256",
                    "name": "_poolId",
                    "type": "uint256"
                }
            ],
            "name": "getPaymentCycleDuration",
            "outputs": [
                {
                    "internalType": "uint32",
                    "name": "",
                    "type": "uint32"
                }
            ],
            "stateMutability": "view",
            "type": "function"
        },
        {
            "inputs": [
                {
                    "internalType": "uint256",
                    "name": "_poolId",
                    "type": "uint256"
                }
            ],
            "name": "getPaymentDefaultDuration",
            "outputs": [
                {
                    "internalType": "uint32",
                    "name": "",
                    "type": "uint32"
                }
            ],
            "stateMutability": "view",
            "type": "function"
        },
        {
            "inputs": [
                {
                    "internalType": "uint256",
                    "name": "poolId",
                    "type": "uint256"
                }
            ],
            "name": "getloanExpirationTime",
            "outputs": [
                {
                    "internalType": "uint32",
                    "name": "",
                    "type": "uint32"
                }
            ],
            "stateMutability": "view",
            "type": "function"
        },
        {
            "inputs": [
                {
                    "internalType": "uint256",
                    "name": "_poolId",
                    "type": "uint256"
                }
            ],
            "name": "getPoolAddress",
            "outputs": [
                {
                    "internalType": "address",
                    "name": "",
                    "type": "address"
                }
            ],
            "stateMutability": "view",
            "type": "function"
        },
        {
            "inputs": [
                {
                    "internalType": "uint256",
                    "name": "_poolId",
                    "type": "uint256"
                }
            ],
            "name": "getPoolOwner",
            "outputs": [
                {
                    "internalType": "address",
                    "name": "",
                    "type": "address"
                }
            ],
            "stateMutability": "view",
            "type": "function"
        }
    ],
    "bytecode": "0x60806040523480156200001157600080fd5b5060405162002708380380620027088339818101604052810190620000379190620002e8565b806000806101000a81548173ffffffffffffffffffffffffffffffffffffffff021916908373ffffffffffffffffffffffffffffffffffffffff1602179055508073ffffffffffffffffffffffffffffffffffffffff166381fa6cd36040518163ffffffff1660e01b8152600401602060405180830381865afa158015620000c3573d6000803e3d6000fd5b505050506040513d601f19601f82011682018060405250810190620000e991906200035f565b73ffffffffffffffffffffffffffffffffffffffff166382fbdc9c6040518163ffffffff1660e01b8152600401620001219062000418565b6020604051808303816000875af115801562000141573d6000803e3d6000fd5b505050506040513d601f19601f8201168201806040525081019062000167919062000475565b6001819055508073ffffffffffffffffffffffffffffffffffffffff166381fa6cd36040518163ffffffff1660e01b8152600401602060405180830381865afa158015620001b9573d6000803e3d6000fd5b505050506040513d601f19601f82011682018060405250810190620001df91906200035f565b73ffffffffffffffffffffffffffffffffffffffff166382fbdc9c6040518163ffffffff1660e01b815260040162000217906200051d565b6020604051808303816000875af115801562000237573d6000803e3d6000fd5b505050506040513d601f19601f820116820180604052508101906200025d919062000475565b600281905550506200053f565b600080fd5b600073ffffffffffffffffffffffffffffffffffffffff82169050919050565b60006200029c826200026f565b9050919050565b6000620002b0826200028f565b9050919050565b620002c281620002a3565b8114620002ce57600080fd5b50565b600081519050620002e281620002b7565b92915050565b6000602082840312156200030157620003006200026a565b5b60006200031184828501620002d1565b91505092915050565b600062000327826200028f565b9050919050565b62000339816200031a565b81146200034557600080fd5b50565b60008151905062000359816200032e565b92915050565b6000602082840312156200037857620003776200026a565b5b6000620003888482850162000348565b91505092915050565b600082825260208201905092915050565b7f2875696e7432353620706f6f6c49642c2061646472657373206c656e6465724160008201527f6464726573732900000000000000000000000000000000000000000000000000602082015250565b60006200040060278362000391565b91506200040d82620003a2565b604082019050919050565b600060208201905081810360008301526200043381620003f1565b9050919050565b6000819050919050565b6200044f816200043a565b81146200045b57600080fd5b50565b6000815190506200046f8162000444565b92915050565b6000602082840312156200048e576200048d6200026a565b5b60006200049e848285016200045e565b91505092915050565b7f2875696e7432353620706f6f6c49642c206164647265737320626f72726f776560008201527f7241646472657373290000000000000000000000000000000000000000000000602082015250565b60006200050560298362000391565b91506200051282620004a7565b604082019050919050565b600060208201905081810360008301526200053881620004f6565b9050919050565b6121b9806200054f6000396000f3fe608060405234801561001057600080fd5b50600436106101365760003560e01c8063918d59ea116100b8578063cf6539201161007c578063cf6539201461039a578063e18bdb83146103cb578063ecd6ce6e146103e7578063f2e734ba14610403578063f525cb681461041f578063f8795c031461043d57610136565b8063918d59ea146102d1578063a8380df114610302578063c28ba8eb14610332578063c381ff3e14610362578063ca405e6c1461037e57610136565b80633c0db788116100ff5780633c0db78814610205578063635f1e4d14610223578063679700d9146102535780636e34b4e414610271578063805deb53146102a157610136565b8062a5ae211461013b57806311bed5bb1461016b5780631a5d3a2a1461019b5780632cd04700146101cb5780632f1be8f9146101e9575b600080fd5b6101556004803603810190610150919061152f565b610459565b604051610162919061159d565b60405180910390f35b6101856004803603810190610180919061152f565b610499565b60405161019291906115d7565b60405180910390f35b6101b560048036038101906101b0919061176e565b6104c9565b6040516101c291906117e5565b60405180910390f35b6101d36104fc565b6040516101e0919061185f565b60405180910390f35b61020360048036038101906101fe91906118a6565b610520565b005b61020d610672565b60405161021a91906118f5565b60405180910390f35b61023d6004803603810190610238919061152f565b610678565b60405161024a919061192d565b60405180910390f35b61025b6106a6565b60405161026891906118f5565b60405180910390f35b61028b6004803603810190610286919061152f565b6106ac565b604051610298919061159d565b60405180910390f35b6102bb60048036038101906102b6919061152f565b6106ec565b6040516102c891906115d7565b60405180910390f35b6102eb60048036038101906102e69190611974565b61071c565b6040516102f99291906119b4565b60405180910390f35b61031c6004803603810190610317919061152f565b610783565b60405161032991906117e5565b60405180910390f35b61034c6004803603810190610347919061152f565b6107ad565b60405161035991906115d7565b60405180910390f35b61037c600480360381019061037791906119dd565b6107dd565b005b61039860048036038101906103939190611a88565b6107ef565b005b6103b460048036038101906103af9190611974565b610808565b6040516103c29291906119b4565b60405180910390f35b6103e560048036038101906103e091906118a6565b61086f565b005b61040160048036038101906103fc91906118a6565b6109c1565b005b61041d600480360381019061041891906119dd565b610b13565b005b610427610b25565b6040516104349190611b39565b60405180910390f35b61045760048036038101906104529190611b54565b610b2b565b005b60006004600083815260200190815260200160002060000160009054906101000a900473ffffffffffffffffffffffffffffffffffffffff169050919050565b60006004600083815260200190815260200160002060070160049054906101000a900463ffffffff169050919050565b600081836040516020016104dd9190611c0e565b6040516020818303038152906040528051906020012014905092915050565b60008054906101000a900473ffffffffffffffffffffffffffffffffffffffff1681565b813373ffffffffffffffffffffffffffffffffffffffff166004600083815260200190815260200160002060010160009054906101000a900473ffffffffffffffffffffffffffffffffffffffff1673ffffffffffffffffffffffffffffffffffffffff16146105c5576040517f08c379a00000000000000000000000000000000000000000000000000000000081526004016105bc90611c82565b60405180910390fd5b6004600084815260200190815260200160002060070160049054906101000a900463ffffffff1663ffffffff168263ffffffff161461066d57816004600085815260200190815260200160002060070160046101000a81548163ffffffff021916908363ffffffff1602179055507f3e49e2efeacab7e8344acd4e7940449bf62039aa3734c34fa6d3525654be81018383604051610664929190611ca2565b60405180910390a15b505050565b60015481565b60006004600083815260200190815260200160002060030160009054906101000a900461ffff169050919050565b60025481565b60006004600083815260200190815260200160002060010160009054906101000a900473ffffffffffffffffffffffffffffffffffffffff169050919050565b60006004600083815260200190815260200160002060070160009054906101000a900463ffffffff169050919050565b6000806107788360046000878152602001908152602001600020600701600c9054906101000a900460ff1660046000888152602001908152602001600020600a0160046000898152602001908152602001600020600801610ccd565b915091509250929050565b60006005600083815260200190815260200160002060009054906101000a900460ff169050919050565b60006004600083815260200190815260200160002060070160089054906101000a900463ffffffff169050919050565b6107ea8383836000610e1f565b505050565b6107fe87878787878787610fc6565b5050505050505050565b600080610864836004600087815260200190815260200160002060030160029054906101000a900460ff166004600088815260200190815260200160002060060160046000898152602001908152602001600020600401610ccd565b915091509250929050565b813373ffffffffffffffffffffffffffffffffffffffff166004600083815260200190815260200160002060010160009054906101000a900473ffffffffffffffffffffffffffffffffffffffff1673ffffffffffffffffffffffffffffffffffffffff1614610914576040517f08c379a000000000000000000000000000000000000000000000000000000000815260040161090b90611c82565b60405180910390fd5b6004600084815260200190815260200160002060070160089054906101000a900463ffffffff1663ffffffff168263ffffffff16146109bc57816004600085815260200190815260200160002060070160086101000a81548163ffffffff021916908363ffffffff1602179055507f8f28307b0f89abbef9b86fdb13ddc77894d04547390687daf215b2f1f63a0baa83836040516109b3929190611ca2565b60405180910390a15b505050565b813373ffffffffffffffffffffffffffffffffffffffff166004600083815260200190815260200160002060010160009054906101000a900473ffffffffffffffffffffffffffffffffffffffff1673ffffffffffffffffffffffffffffffffffffffff1614610a66576040517f08c379a0000000000000000000000000000000000000000000000000000000008152600401610a5d90611c82565b60405180910390fd5b6004600084815260200190815260200160002060070160009054906101000a900463ffffffff1663ffffffff168263ffffffff1614610b0e57816004600085815260200190815260200160002060070160006101000a81548163ffffffff021916908363ffffffff1602179055507fa04499c227e7a6de804e5a57e4b38990792373bd8d73b6c13ab76e40600748438383604051610b05929190611ca2565b60405180910390a15b505050565b610b208383836001610e1f565b505050565b60065481565b813373ffffffffffffffffffffffffffffffffffffffff166004600083815260200190815260200160002060010160009054906101000a900473ffffffffffffffffffffffffffffffffffffffff1673ffffffffffffffffffffffffffffffffffffffff1614610bd0576040517f08c379a0000000000000000000000000000000000000000000000000000000008152600401610bc790611c82565b60405180910390fd5b60008261ffff1610158015610beb57506127108261ffff1611155b610c2a576040517f08c379a0000000000000000000000000000000000000000000000000000000008152600401610c2190611d17565b60405180910390fd5b6004600084815260200190815260200160002060030160009054906101000a900461ffff1661ffff168261ffff1614610cc857816004600085815260200190815260200160002060030160006101000a81548161ffff021916908361ffff1602179055507f24a1eddd3a54f274769832c6e6e16de4e3298679bac8b22e22820be8ef635b598383604051610cbf929190611d37565b60405180910390a15b505050565b6000808415610e1157610ce9868461126c90919063ffffffff16565b8015610dc9575060008054906101000a900473ffffffffffffffffffffffffffffffffffffffff1673ffffffffffffffffffffffffffffffffffffffff1663e56d679b8560008973ffffffffffffffffffffffffffffffffffffffff1673ffffffffffffffffffffffffffffffffffffffff168152602001908152602001600020546040518263ffffffff1660e01b8152600401610d8791906118f5565b602060405180830381865afa158015610da4573d6000803e3d6000fd5b505050506040513d601f19601f82011682018060405250810190610dc89190611d75565b5b91508360008773ffffffffffffffffffffffffffffffffffffffff1673ffffffffffffffffffffffffffffffffffffffff168152602001908152602001600020549050610e16565b600191505b94509492505050565b80610e2c57600254610e30565b6001545b806003819055506004600086815260200190815260200160002060010160009054906101000a900473ffffffffffffffffffffffffffffffffffffffff1673ffffffffffffffffffffffffffffffffffffffff163373ffffffffffffffffffffffffffffffffffffffff1614610edb576040517f08c379a0000000000000000000000000000000000000000000000000000000008152600401610ed290611dee565b60405180910390fd5b60008060009054906101000a900473ffffffffffffffffffffffffffffffffffffffff1673ffffffffffffffffffffffffffffffffffffffff166309a954cd866003548760008b8b604051602001610f34929190611e0e565b6040516020818303038152906040526040518663ffffffff1660e01b8152600401610f63959493929190611ed4565b6020604051808303816000875af1158015610f82573d6000803e3d6000fd5b505050506040513d601f19601f82011682018060405250810190610fa69190611f43565b9050610fb48686838661129c565b506000801b6003819055505050505050565b60008073ffffffffffffffffffffffffffffffffffffffff168873ffffffffffffffffffffffffffffffffffffffff161415611037576040517f08c379a000000000000000000000000000000000000000000000000000000000815260040161102e90611fbc565b60405180910390fd5b6006600081546110469061200b565b9190508190559050600073__LibPool_______________________________633508a72533308b8b8a6040518663ffffffff1660e01b815260040161108f9594939291906120c5565b602060405180830381865af41580156110ac573d6000803e3d6000fd5b505050506040513d601f19601f820116820180604052508101906110d0919061212d565b9050806004600084815260200190815260200160002060000160006101000a81548173ffffffffffffffffffffffffffffffffffffffff021916908373ffffffffffffffffffffffffffffffffffffffff160217905550886004600084815260200190815260200160002060010160006101000a81548173ffffffffffffffffffffffffffffffffffffffff021916908373ffffffffffffffffffffffffffffffffffffffff16021790555061118682896109c1565b6111908288610520565b61119a8286610b2b565b6111a4828761086f565b83156111da5760016004600084815260200190815260200160002060030160026101000a81548160ff0219169083151502179055505b821561121057600160046000848152602001908152602001600020600701600c6101000a81548160ff0219169083151502179055505b8873ffffffffffffffffffffffffffffffffffffffff167f407eac4ec3d5da6bb83c52c3817e2b7e46268bb1e945cc2494b7c01e06d2beae828460405161125892919061215a565b60405180910390a250979650505050505050565b6000611294836000018373ffffffffffffffffffffffffffffffffffffffff1660001b611422565b905092915050565b801561136157816004600086815260200190815260200160002060060160008573ffffffffffffffffffffffffffffffffffffffff1673ffffffffffffffffffffffffffffffffffffffff16815260200190815260200160002081905550611322836004600087815260200190815260200160002060040161144590919063ffffffff16565b507f75675690de0899b0b869d83b44b2d926ac594426b2a0286c478ecdf815cbd33e8484604051611354929190611e0e565b60405180910390a161141c565b8160046000868152602001908152602001600020600a0160008573ffffffffffffffffffffffffffffffffffffffff1673ffffffffffffffffffffffffffffffffffffffff168152602001908152602001600020819055506113e1836004600087815260200190815260200160002060080161144590919063ffffffff16565b507f0c2cfc7e7a16ebee66e77fb314f4bfdb5505e33e77d41c0c60604efc70fd926b8484604051611413929190611e0e565b60405180910390a15b50505050565b600080836001016000848152602001908152602001600020541415905092915050565b600061146d836000018373ffffffffffffffffffffffffffffffffffffffff1660001b611475565b905092915050565b60006114818383611422565b6114da5782600001829080600181540180825580915050600190039060005260206000200160009091909190915055826000018054905083600101600084815260200190815260200160002081905550600190506114df565b600090505b92915050565b6000604051905090565b600080fd5b600080fd5b6000819050919050565b61150c816114f9565b811461151757600080fd5b50565b60008135905061152981611503565b92915050565b600060208284031215611545576115446114ef565b5b60006115538482850161151a565b91505092915050565b600073ffffffffffffffffffffffffffffffffffffffff82169050919050565b60006115878261155c565b9050919050565b6115978161157c565b82525050565b60006020820190506115b2600083018461158e565b92915050565b600063ffffffff82169050919050565b6115d1816115b8565b82525050565b60006020820190506115ec60008301846115c8565b92915050565b600080fd5b600080fd5b6000601f19601f8301169050919050565b7f4e487b7100000000000000000000000000000000000000000000000000000000600052604160045260246000fd5b611645826115fc565b810181811067ffffffffffffffff821117156116645761166361160d565b5b80604052505050565b60006116776114e5565b9050611683828261163c565b919050565b600067ffffffffffffffff8211156116a3576116a261160d565b5b6116ac826115fc565b9050602081019050919050565b82818337600083830152505050565b60006116db6116d684611688565b61166d565b9050828152602081018484840111156116f7576116f66115f7565b5b6117028482856116b9565b509392505050565b600082601f83011261171f5761171e6115f2565b5b813561172f8482602086016116c8565b91505092915050565b6000819050919050565b61174b81611738565b811461175657600080fd5b50565b60008135905061176881611742565b92915050565b60008060408385031215611785576117846114ef565b5b600083013567ffffffffffffffff8111156117a3576117a26114f4565b5b6117af8582860161170a565b92505060206117c085828601611759565b9150509250929050565b60008115159050919050565b6117df816117ca565b82525050565b60006020820190506117fa60008301846117d6565b92915050565b6000819050919050565b600061182561182061181b8461155c565b611800565b61155c565b9050919050565b60006118378261180a565b9050919050565b60006118498261182c565b9050919050565b6118598161183e565b82525050565b60006020820190506118746000830184611850565b92915050565b611883816115b8565b811461188e57600080fd5b50565b6000813590506118a08161187a565b92915050565b600080604083850312156118bd576118bc6114ef565b5b60006118cb8582860161151a565b92505060206118dc85828601611891565b9150509250929050565b6118ef81611738565b82525050565b600060208201905061190a60008301846118e6565b92915050565b600061ffff82169050919050565b61192781611910565b82525050565b6000602082019050611942600083018461191e565b92915050565b6119518161157c565b811461195c57600080fd5b50565b60008135905061196e81611948565b92915050565b6000806040838503121561198b5761198a6114ef565b5b60006119998582860161151a565b92505060206119aa8582860161195f565b9150509250929050565b60006040820190506119c960008301856117d6565b6119d660208301846118e6565b9392505050565b6000806000606084860312156119f6576119f56114ef565b5b6000611a048682870161151a565b9350506020611a158682870161195f565b9250506040611a268682870161151a565b9150509250925092565b611a3981611910565b8114611a4457600080fd5b50565b600081359050611a5681611a30565b92915050565b611a65816117ca565b8114611a7057600080fd5b50565b600081359050611a8281611a5c565b92915050565b600080600080600080600060e0888a031215611aa757611aa66114ef565b5b6000611ab58a828b0161195f565b9750506020611ac68a828b01611891565b9650506040611ad78a828b01611891565b9550506060611ae88a828b01611891565b9450506080611af98a828b01611a47565b93505060a0611b0a8a828b01611a73565b92505060c0611b1b8a828b01611a73565b91505092959891949750929550565b611b33816114f9565b82525050565b6000602082019050611b4e6000830184611b2a565b92915050565b60008060408385031215611b6b57611b6a6114ef565b5b6000611b798582860161151a565b9250506020611b8a85828601611a47565b9150509250929050565b600081519050919050565b600081905092915050565b60005b83811015611bc8578082015181840152602081019050611bad565b83811115611bd7576000848401525b50505050565b6000611be882611b94565b611bf28185611b9f565b9350611c02818560208601611baa565b80840191505092915050565b6000611c1a8284611bdd565b915081905092915050565b600082825260208201905092915050565b7f4e6f7420746865206f776e657200000000000000000000000000000000000000600082015250565b6000611c6c600d83611c25565b9150611c7782611c36565b602082019050919050565b60006020820190508181036000830152611c9b81611c5f565b9050919050565b6000604082019050611cb76000830185611b2a565b611cc460208301846115c8565b9392505050565b7f696e76616c69642070657263656e740000000000000000000000000000000000600082015250565b6000611d01600f83611c25565b9150611d0c82611ccb565b602082019050919050565b60006020820190508181036000830152611d3081611cf4565b9050919050565b6000604082019050611d4c6000830185611b2a565b611d59602083018461191e565b9392505050565b600081519050611d6f81611a5c565b92915050565b600060208284031215611d8b57611d8a6114ef565b5b6000611d9984828501611d60565b91505092915050565b7f4e6f742074686520706f6f6c206f776e65720000000000000000000000000000600082015250565b6000611dd8601283611c25565b9150611de382611da2565b602082019050919050565b60006020820190508181036000830152611e0781611dcb565b9050919050565b6000604082019050611e236000830185611b2a565b611e30602083018461158e565b9392505050565b6000819050919050565b60008160001b9050919050565b6000611e69611e64611e5f84611e37565b611e41565b611738565b9050919050565b611e7981611e4e565b82525050565b600081519050919050565b600082825260208201905092915050565b6000611ea682611e7f565b611eb08185611e8a565b9350611ec0818560208601611baa565b611ec9816115fc565b840191505092915050565b600060a082019050611ee9600083018861158e565b611ef660208301876118e6565b611f036040830186611b2a565b611f106060830185611e70565b8181036080830152611f228184611e9b565b90509695505050505050565b600081519050611f3d81611742565b92915050565b600060208284031215611f5957611f586114ef565b5b6000611f6784828501611f2e565b91505092915050565b7f496e76616c6964206f776e657220616464726573730000000000000000000000600082015250565b6000611fa6601583611c25565b9150611fb182611f70565b602082019050919050565b60006020820190508181036000830152611fd581611f99565b9050919050565b7f4e487b7100000000000000000000000000000000000000000000000000000000600052601160045260246000fd5b6000612016826114f9565b91507fffffffffffffffffffffffffffffffffffffffffffffffffffffffffffffffff82141561204957612048611fdc565b5b600182019050919050565b61205d8161157c565b82525050565b600061207e612079612074846115b8565b611800565b6114f9565b9050919050565b61208e81612063565b82525050565b60006120af6120aa6120a584611910565b611800565b6114f9565b9050919050565b6120bf81612094565b82525050565b600060a0820190506120da6000830188612054565b6120e76020830187612054565b6120f46040830186612085565b6121016060830185612085565b61210e60808301846120b6565b9695505050505050565b60008151905061212781611948565b92915050565b600060208284031215612143576121426114ef565b5b600061215184828501612118565b91505092915050565b600060408201905061216f600083018561158e565b61217c6020830184611b2a565b939250505056fea2646970667358221220751d7ce83e2ec6aacbeee751143b7d33c240119506189623959a4b26d23a7c5464736f6c634300080b0033",
    "immutableReferences": {},
    "source": "// SPDX-License-Identifier: MIT\npragma solidity >=0.4.22 <0.9.0;\n\nimport \"@openzeppelin/contracts/utils/Counters.sol\";\nimport \"./AconomyFee.sol\";\nimport \"./Libraries/LibPool.sol\";\nimport \"./AttestationServices.sol\";\n// 0xe2899bddFD890e320e643044c6b95B9B0b84157A\n// poolAddress\": \"0xEC3c9230499a3FA960Ee28f7D2c0Ee3AD4AeBb07\" 0xaabBF7b98Af6E1bcC801ceB3480a97C3d686757b\n// AS=0xd8b934580fcE35a11B58C6D73aDeE468a2833fa8\n// AF=0xd8b934580fcE35a11B58C6D73aDeE468a2833fa8\n// AStts=0xd9145CCE52D386f254917e481eB44e9943F39138\n// a1=0x5B38Da6a701c568545dCfcB03FcB875f56beddC4\n// a2=0xAb8483F64d9C6d1EcF9b849Ae677dD3315835cb2\n// 222222222222\nimport {EnumerableSet} from \"@openzeppelin/contracts/utils/structs/EnumerableSet.sol\";\n\ncontract poolRegistry {\n    using Counters for Counters.Counter;\n    using EnumerableSet for EnumerableSet.AddressSet;\n\n    modifier ownsPool(uint256 _poolId) {\n        require(pools[_poolId].owner == msg.sender, \"Not the owner\");\n        _;\n    }\n\n    AttestationServices public attestationService;\n    bytes32 public lenderAttestationSchemaId;\n    bytes32 public borrowerAttestationSchemaId;\n    bytes32 private _attestingSchemaId;\n\n    constructor(AttestationServices _attestationServices) {\n        attestationService = _attestationServices;\n\n        lenderAttestationSchemaId = _attestationServices\n            .getASRegistry()\n            .register(\"(uint256 poolId, address lenderAddress)\");\n        borrowerAttestationSchemaId = _attestationServices\n            .getASRegistry()\n            .register(\"(uint256 poolId, address borrowerAddress)\");\n    }\n\n    modifier lenderOrBorrowerSchema(bytes32 schemaId) {\n        _attestingSchemaId = schemaId;\n        _;\n        _attestingSchemaId = bytes32(0);\n    }\n\n    function guess(string memory _word, bytes32 ans)\n        public\n        view\n        returns (bool)\n    {\n        return keccak256(abi.encodePacked(_word)) == ans;\n    }\n\n    struct poolDetail {\n        address poolAddress;\n        address owner;\n        string metadataURI;\n        uint16 poolFeePercent; // 10000 is 100%\n        bool lenderAttestationRequired;\n        EnumerableSet.AddressSet verifiedLendersForPool;\n        mapping(address => bytes32) lenderAttestationIds;\n        uint32 paymentCycleDuration; //unix time\n        uint32 paymentDefaultDuration; //unix time\n        uint32 loanExpirationTime; //unix time\n        bool borrowerAttestationRequired;\n        EnumerableSet.AddressSet verifiedBorrowersForPool;\n        mapping(address => bytes32) borrowerAttestationIds;\n    }\n\n    //poolId => poolDetail\n    mapping(uint256 => poolDetail) internal pools;\n    //poolId => close or open\n    mapping(uint256 => bool) private ClosedPools;\n\n    uint256 public poolCount;\n    event poolCreated(\n        address indexed owner,\n        address poolAddress,\n        uint256 poolId\n    );\n    event SetPaymentCycleDuration(uint256 poolId, uint32 duration);\n    event SetPaymentDefaultDuration(uint256 poolId, uint32 duration);\n    event SetPoolFee(uint256 poolId, uint16 feePct);\n    event SetloanExpirationTime(uint256 poolId, uint32 duration);\n    event LenderAttestation(uint256 poolId, address lender);\n    event BorrowerAttestation(uint256 poolId, address borrower);\n\n    //Create Pool\n    function createPool(\n        address _initialOwner,\n        uint32 _paymentCycleDuration,\n        uint32 _paymentDefaultDuration,\n        uint32 _loanExpirationTime,\n        uint16 _poolFeePercent,\n        bool _requireLenderAttestation,\n        bool _requireBorrowerAttestation\n    ) external {\n        _createPool(\n            _initialOwner,\n            _paymentCycleDuration,\n            _paymentDefaultDuration,\n            _loanExpirationTime,\n            _poolFeePercent,\n            _requireLenderAttestation,\n            _requireBorrowerAttestation\n        );\n    }\n\n    // Creates a new Pool.\n    function _createPool(\n        address _initialOwner,\n        uint32 _paymentCycleDuration,\n        uint32 _paymentDefaultDuration,\n        uint32 _loanExpirationTime,\n        uint16 _feePercent,\n        bool _requireLenderAttestation,\n        bool _requireBorrowerAttestation\n    ) internal returns (uint256 poolId_) {\n        require(_initialOwner != address(0), \"Invalid owner address\");\n        // Increment pool ID counter\n        poolId_ = ++poolCount;\n\n        //Deploy Pool Address\n        address poolAddress = LibPool.deployPoolAddress(\n            msg.sender,\n            address(this),\n            _paymentCycleDuration,\n            _paymentDefaultDuration,\n            _feePercent\n        );\n        pools[poolId_].poolAddress = poolAddress;\n        // Set the pool owner\n        pools[poolId_].owner = _initialOwner;\n\n        setPaymentCycleDuration(poolId_, _paymentCycleDuration);\n        setPaymentDefaultDuration(poolId_, _paymentDefaultDuration);\n        setPoolFeePercent(poolId_, _feePercent);\n        setloanExpirationTime(poolId_, _loanExpirationTime);\n\n        // Check if pool requires lender attestation to join\n        if (_requireLenderAttestation) {\n            pools[poolId_].lenderAttestationRequired = true;\n        }\n        // Check if pool requires borrower attestation to join\n        if (_requireBorrowerAttestation) {\n            pools[poolId_].borrowerAttestationRequired = true;\n        }\n\n        emit poolCreated(_initialOwner, poolAddress, poolId_);\n    }\n\n    function setPaymentCycleDuration(uint256 _poolId, uint32 _duration)\n        public\n        ownsPool(_poolId)\n    {\n        if (_duration != pools[_poolId].paymentCycleDuration) {\n            pools[_poolId].paymentCycleDuration = _duration;\n\n            emit SetPaymentCycleDuration(_poolId, _duration);\n        }\n    }\n\n    function setPaymentDefaultDuration(uint256 _poolId, uint32 _duration)\n        public\n        ownsPool(_poolId)\n    {\n        if (_duration != pools[_poolId].paymentDefaultDuration) {\n            pools[_poolId].paymentDefaultDuration = _duration;\n\n            emit SetPaymentDefaultDuration(_poolId, _duration);\n        }\n    }\n\n    function setPoolFeePercent(uint256 _poolId, uint16 _newPercent)\n        public\n        ownsPool(_poolId)\n    {\n        require(_newPercent >= 0 && _newPercent <= 10000, \"invalid percent\");\n        if (_newPercent != pools[_poolId].poolFeePercent) {\n            pools[_poolId].poolFeePercent = _newPercent;\n            emit SetPoolFee(_poolId, _newPercent);\n        }\n    }\n\n    function setloanExpirationTime(uint256 _poolId, uint32 _duration)\n        public\n        ownsPool(_poolId)\n    {\n        if (_duration != pools[_poolId].loanExpirationTime) {\n            pools[_poolId].loanExpirationTime = _duration;\n\n            emit SetloanExpirationTime(_poolId, _duration);\n        }\n    }\n\n    function addLender(\n        uint256 _poolId,\n        address _lenderAddress,\n        uint256 _expirationTime\n    ) external {\n        _attestAddress(_poolId, _lenderAddress, _expirationTime, true);\n    }\n\n    function addBorrower(\n        uint256 _poolId,\n        address _borrowerAddress,\n        uint256 _expirationTime\n    ) external {\n        _attestAddress(_poolId, _borrowerAddress, _expirationTime, false);\n    }\n\n    function _attestAddress(\n        uint256 _poolId,\n        address _Address,\n        uint256 _expirationTime,\n        bool _isLender\n    )\n        internal\n        lenderOrBorrowerSchema(\n            _isLender ? lenderAttestationSchemaId : borrowerAttestationSchemaId\n        )\n    {\n        require(msg.sender == pools[_poolId].owner, \"Not the pool owner\");\n\n        // Submit attestation for borrower to join a pool\n        bytes32 uuid = attestationService.attest(\n            _Address,\n            _attestingSchemaId, // set by the modifier\n            _expirationTime,\n            0,\n            abi.encode(_poolId, _Address)\n        );\n\n        _attestAddressVerification(_poolId, _Address, uuid, _isLender);\n    }\n\n    function _attestAddressVerification(\n        uint256 _poolId,\n        address _Address,\n        bytes32 _uuid,\n        bool _isLender\n    ) internal {\n        if (_isLender) {\n            // Store the lender attestation ID for the pool ID\n            pools[_poolId].lenderAttestationIds[_Address] = _uuid;\n            // Add lender address to pool set\n            pools[_poolId].verifiedLendersForPool.add(_Address);\n\n            emit LenderAttestation(_poolId, _Address);\n        } else {\n            // Store the lender attestation ID for the pool ID\n            pools[_poolId].borrowerAttestationIds[_Address] = _uuid;\n            // Add lender address to pool set\n            pools[_poolId].verifiedBorrowersForPool.add(_Address);\n\n            emit BorrowerAttestation(_poolId, _Address);\n        }\n    }\n\n    function getPoolFee(uint256 _poolId) public view returns (uint16 fee) {\n        return pools[_poolId].poolFeePercent;\n    }\n\n    function borrowerVarification(uint256 _poolId, address _borrowerAddress)\n        public\n        view\n        returns (bool isVerified_, bytes32 uuid_)\n    {\n        return\n            _isAddressVerified(\n                _borrowerAddress,\n                pools[_poolId].borrowerAttestationRequired,\n                pools[_poolId].borrowerAttestationIds,\n                pools[_poolId].verifiedBorrowersForPool\n            );\n    }\n\n    function lenderVarification(uint256 _poolId, address _lenderAddress)\n        public\n        view\n        returns (bool isVerified_, bytes32 uuid_)\n    {\n        return\n            _isAddressVerified(\n                _lenderAddress,\n                pools[_poolId].lenderAttestationRequired,\n                pools[_poolId].lenderAttestationIds,\n                pools[_poolId].verifiedLendersForPool\n            );\n    }\n\n    function _isAddressVerified(\n        address _wltAddress,\n        bool _attestationRequired,\n        mapping(address => bytes32) storage _stakeholderAttestationIds,\n        EnumerableSet.AddressSet storage _verifiedStakeholderForPool\n    ) internal view returns (bool isVerified_, bytes32 uuid_) {\n        if (_attestationRequired) {\n            isVerified_ =\n                _verifiedStakeholderForPool.contains(_wltAddress) &&\n                attestationService.isAddressActive(\n                    _stakeholderAttestationIds[_wltAddress]\n                );\n            uuid_ = _stakeholderAttestationIds[_wltAddress];\n        } else {\n            isVerified_ = true;\n        }\n    }\n\n    function ClosedPool(uint256 _poolId) public view returns (bool) {\n        return ClosedPools[_poolId];\n    }\n\n    function getPaymentCycleDuration(uint256 _poolId)\n        public\n        view\n        returns (uint32)\n    {\n        return pools[_poolId].paymentCycleDuration;\n    }\n\n    function getPaymentDefaultDuration(uint256 _poolId)\n        public\n        view\n        returns (uint32)\n    {\n        return pools[_poolId].paymentDefaultDuration;\n    }\n\n    function getloanExpirationTime(uint256 poolId)\n        public\n        view\n        returns (uint32)\n    {\n        return pools[poolId].loanExpirationTime;\n    }\n\n    function getPoolAddress(uint256 _poolId) public view returns (address) {\n        return pools[_poolId].poolAddress;\n    }\n\n    function getPoolOwner(uint256 _poolId) public view returns (address) {\n        return pools[_poolId].owner;\n    }\n}\n",
    "sourcePath": "/Users/sanskarkhare/Desktop/Pandora/aconomy-contract/contracts/poolRegistry.sol",
    "compiler": {
        "name": "solc",
        "version": "0.8.11+commit.d7f03943.Emscripten.clang"
    },
    "schemaVersion": "3.4.4",
    "updatedAt": "2023-02-06T09:00:25.806Z",
    "devdoc": {
        "kind": "dev",
        "methods": {},
        "version": 1
    },
    "userdoc": {
        "kind": "user",
        "methods": {},
        "version": 1
    }
}