{
	"contractName": "poolAddress",
	"abi": [
		{
			"inputs": [
				{
					"internalType": "address",
					"name": "_poolRegistry",
					"type": "address"
				},
				{
					"internalType": "address",
					"name": "_AconomyFeeAddress",
					"type": "address"
				},
				{
					"internalType": "address",
					"name": "_accountStatusAddress",
					"type": "address"
				}
			],
			"stateMutability": "nonpayable",
			"type": "constructor"
		},
		{
			"anonymous": false,
			"inputs": [
				{
					"indexed": true,
					"internalType": "uint256",
					"name": "loanId",
					"type": "uint256"
				},
				{
					"indexed": true,
					"internalType": "string",
					"name": "feeType",
					"type": "string"
				},
				{
					"indexed": true,
					"internalType": "uint256",
					"name": "amount",
					"type": "uint256"
				}
			],
			"name": "AcceptedLoanDetail",
			"type": "event"
		},
		{
			"anonymous": false,
			"inputs": [
				{
					"indexed": true,
					"internalType": "uint256",
					"name": "loanId",
					"type": "uint256"
				},
				{
					"indexed": false,
					"internalType": "uint256",
					"name": "Amount",
					"type": "uint256"
				}
			],
			"name": "LoanRepaid",
			"type": "event"
		},
		{
			"anonymous": false,
			"inputs": [
				{
					"indexed": true,
					"internalType": "uint256",
					"name": "loanId",
					"type": "uint256"
				},
				{
					"indexed": false,
					"internalType": "uint256",
					"name": "Amount",
					"type": "uint256"
				}
			],
			"name": "LoanRepayment",
			"type": "event"
		},
		{
			"anonymous": false,
			"inputs": [
				{
					"indexed": true,
					"internalType": "uint256",
					"name": "loanId",
					"type": "uint256"
				},
				{
					"indexed": true,
					"internalType": "address",
					"name": "borrower",
					"type": "address"
				},
				{
					"indexed": false,
					"internalType": "address",
					"name": "receiver",
					"type": "address"
				},
				{
					"indexed": false,
					"internalType": "uint256",
					"name": "paymentCycleAmount",
					"type": "uint256"
				}
			],
			"name": "SubmittedLoan",
			"type": "event"
		},
		{
			"anonymous": false,
			"inputs": [
				{
					"indexed": true,
					"internalType": "uint256",
					"name": "loanId",
					"type": "uint256"
				},
				{
					"indexed": true,
					"internalType": "address",
					"name": "lender",
					"type": "address"
				}
			],
			"name": "loanAccepted",
			"type": "event"
		},
		{
			"anonymous": false,
			"inputs": [
				{
					"indexed": false,
					"internalType": "uint256",
					"name": "owedPrincipal",
					"type": "uint256"
				},
				{
					"indexed": false,
					"internalType": "uint256",
					"name": "duePrincipal",
					"type": "uint256"
				},
				{
					"indexed": false,
					"internalType": "uint256",
					"name": "interest",
					"type": "uint256"
				}
			],
			"name": "repaidAmounts",
			"type": "event"
		},
		{
			"inputs": [
				{
					"internalType": "address",
					"name": "",
					"type": "address"
				},
				{
					"internalType": "uint256",
					"name": "",
					"type": "uint256"
				}
			],
			"name": "borrowerLoans",
			"outputs": [
				{
					"internalType": "uint256",
					"name": "",
					"type": "uint256"
				}
			],
			"stateMutability": "view",
			"type": "function"
		},
		{
			"inputs": [
				{
					"internalType": "address",
					"name": "",
					"type": "address"
				},
				{
					"internalType": "address",
					"name": "",
					"type": "address"
				}
			],
			"name": "lenderLendAmount",
			"outputs": [
				{
					"internalType": "uint256",
					"name": "",
					"type": "uint256"
				}
			],
			"stateMutability": "view",
			"type": "function"
		},
		{
			"inputs": [
				{
					"internalType": "uint256",
					"name": "",
					"type": "uint256"
				}
			],
			"name": "loanDefaultDuration",
			"outputs": [
				{
					"internalType": "uint32",
					"name": "",
					"type": "uint32"
				}
			],
			"stateMutability": "view",
			"type": "function"
		},
		{
			"inputs": [
				{
					"internalType": "uint256",
					"name": "",
					"type": "uint256"
				}
			],
			"name": "loanExpirationTime",
			"outputs": [
				{
					"internalType": "uint32",
					"name": "",
					"type": "uint32"
				}
			],
			"stateMutability": "view",
			"type": "function"
		},
		{
			"inputs": [],
			"name": "loanId",
			"outputs": [
				{
					"internalType": "uint256",
					"name": "",
					"type": "uint256"
				}
			],
			"stateMutability": "view",
			"type": "function"
		},
		{
			"inputs": [
				{
					"internalType": "uint256",
					"name": "",
					"type": "uint256"
				}
			],
			"name": "loans",
			"outputs": [
				{
					"internalType": "address",
					"name": "borrower",
					"type": "address"
				},
				{
					"internalType": "address",
					"name": "receiver",
					"type": "address"
				},
				{
					"internalType": "address",
					"name": "lender",
					"type": "address"
				},
				{
					"internalType": "uint256",
					"name": "poolId",
					"type": "uint256"
				},
				{
					"components": [
						{
							"internalType": "contract ERC20",
							"name": "lendingToken",
							"type": "address"
						},
						{
							"internalType": "uint256",
							"name": "principal",
							"type": "uint256"
						},
						{
							"components": [
								{
									"internalType": "uint256",
									"name": "principal",
									"type": "uint256"
								},
								{
									"internalType": "uint256",
									"name": "interest",
									"type": "uint256"
								}
							],
							"internalType": "struct poolStorage.Payment",
							"name": "totalRepaid",
							"type": "tuple"
						},
						{
							"internalType": "uint32",
							"name": "timestamp",
							"type": "uint32"
						},
						{
							"internalType": "uint32",
							"name": "acceptedTimestamp",
							"type": "uint32"
						},
						{
							"internalType": "uint32",
							"name": "lastRepaidTimestamp",
							"type": "uint32"
						},
						{
							"internalType": "uint32",
							"name": "loanDuration",
							"type": "uint32"
						}
					],
					"internalType": "struct poolStorage.LoanDetails",
					"name": "loanDetails",
					"type": "tuple"
				},
				{
					"components": [
						{
							"internalType": "uint256",
							"name": "paymentCycleAmount",
							"type": "uint256"
						},
						{
							"internalType": "uint32",
							"name": "paymentCycle",
							"type": "uint32"
						},
						{
							"internalType": "uint16",
							"name": "APR",
							"type": "uint16"
						}
					],
					"internalType": "struct poolStorage.Terms",
					"name": "terms",
					"type": "tuple"
				},
				{
					"internalType": "enum poolStorage.LoanState",
					"name": "state",
					"type": "uint8"
				}
			],
			"stateMutability": "view",
			"type": "function"
		},
		{
			"inputs": [
				{
					"internalType": "uint256",
					"name": "",
					"type": "uint256"
				}
			],
			"name": "poolLoans",
			"outputs": [
				{
					"internalType": "uint256",
					"name": "",
					"type": "uint256"
				}
			],
			"stateMutability": "view",
			"type": "function"
		},
		{
			"inputs": [
				{
					"internalType": "address",
					"name": "",
					"type": "address"
				}
			],
			"name": "totalERC20Amount",
			"outputs": [
				{
					"internalType": "uint256",
					"name": "",
					"type": "uint256"
				}
			],
			"stateMutability": "view",
			"type": "function"
		},
		{
			"inputs": [
				{
					"internalType": "address",
					"name": "_lendingToken",
					"type": "address"
				},
				{
					"internalType": "uint256",
					"name": "_poolId",
					"type": "uint256"
				},
				{
					"internalType": "uint256",
					"name": "_principal",
					"type": "uint256"
				},
				{
					"internalType": "uint32",
					"name": "_duration",
					"type": "uint32"
				},
				{
					"internalType": "uint16",
					"name": "_APR",
					"type": "uint16"
				},
				{
					"internalType": "address",
					"name": "_receiver",
					"type": "address"
				}
			],
			"name": "loanRequest",
			"outputs": [
				{
					"internalType": "uint256",
					"name": "loanId_",
					"type": "uint256"
				}
			],
			"stateMutability": "nonpayable",
			"type": "function"
		},
		{
			"inputs": [
				{
					"internalType": "uint256",
					"name": "_loanId",
					"type": "uint256"
				}
			],
			"name": "AcceptLoan",
			"outputs": [
				{
					"internalType": "uint256",
					"name": "amountToAconomy",
					"type": "uint256"
				},
				{
					"internalType": "uint256",
					"name": "amountToPool",
					"type": "uint256"
				},
				{
					"internalType": "uint256",
					"name": "amountToBorrower",
					"type": "uint256"
				}
			],
			"stateMutability": "nonpayable",
			"type": "function"
		},
		{
			"inputs": [
				{
					"internalType": "uint256",
					"name": "_loanId",
					"type": "uint256"
				}
			],
			"name": "isLoanExpired",
			"outputs": [
				{
					"internalType": "bool",
					"name": "",
					"type": "bool"
				}
			],
			"stateMutability": "view",
			"type": "function"
		},
		{
			"inputs": [
				{
					"internalType": "uint256",
					"name": "_loanId",
					"type": "uint256"
				}
			],
			"name": "isLoanDefaulted",
			"outputs": [
				{
					"internalType": "bool",
					"name": "",
					"type": "bool"
				}
			],
			"stateMutability": "view",
			"type": "function"
		},
		{
			"inputs": [
				{
					"internalType": "uint256",
					"name": "_loanId",
					"type": "uint256"
				}
			],
			"name": "lastRepaidTimestamp",
			"outputs": [
				{
					"internalType": "uint32",
					"name": "",
					"type": "uint32"
				}
			],
			"stateMutability": "view",
			"type": "function"
		},
		{
			"inputs": [
				{
					"internalType": "uint256",
					"name": "_loanId",
					"type": "uint256"
				}
			],
			"name": "isPaymentLate",
			"outputs": [
				{
					"internalType": "bool",
					"name": "",
					"type": "bool"
				}
			],
			"stateMutability": "view",
			"type": "function"
		},
		{
			"inputs": [
				{
					"internalType": "uint256",
					"name": "_loanId",
					"type": "uint256"
				}
			],
			"name": "calculateNextDueDate",
			"outputs": [
				{
					"internalType": "uint32",
					"name": "dueDate_",
					"type": "uint32"
				}
			],
			"stateMutability": "view",
			"type": "function"
		},
		{
			"inputs": [
				{
					"internalType": "uint256",
					"name": "_loanId",
					"type": "uint256"
				}
			],
			"name": "repayYourLoan",
			"outputs": [],
			"stateMutability": "nonpayable",
			"type": "function"
		},
		{
			"inputs": [
				{
					"internalType": "uint256",
					"name": "_loanId",
					"type": "uint256"
				}
			],
			"name": "viewInstallmentAmount",
			"outputs": [
				{
					"internalType": "uint256",
					"name": "",
					"type": "uint256"
				}
			],
			"stateMutability": "view",
			"type": "function"
		},
		{
			"inputs": [
				{
					"internalType": "uint256",
					"name": "_loanId",
					"type": "uint256"
				}
			],
			"name": "viewFullRepayAmount",
			"outputs": [
				{
					"internalType": "uint256",
					"name": "",
					"type": "uint256"
				}
			],
			"stateMutability": "view",
			"type": "function"
		},
		{
			"inputs": [
				{
					"internalType": "uint256",
					"name": "_loanId",
					"type": "uint256"
				}
			],
			"name": "repayFullLoan",
			"outputs": [],
			"stateMutability": "nonpayable",
			"type": "function"
		}
	],
	"bytecode": "0x6080604052600080553480156200001557600080fd5b5060405162003fa238038062003fa283398181016040528101906200003b919062000171565b82600960006101000a81548173ffffffffffffffffffffffffffffffffffffffff021916908373ffffffffffffffffffffffffffffffffffffffff16021790555081600a60006101000a81548173ffffffffffffffffffffffffffffffffffffffff021916908373ffffffffffffffffffffffffffffffffffffffff16021790555080600b60006101000a81548173ffffffffffffffffffffffffffffffffffffffff021916908373ffffffffffffffffffffffffffffffffffffffff160217905550505050620001cd565b600080fd5b600073ffffffffffffffffffffffffffffffffffffffff82169050919050565b600062000139826200010c565b9050919050565b6200014b816200012c565b81146200015757600080fd5b50565b6000815190506200016b8162000140565b92915050565b6000806000606084860312156200018d576200018c62000107565b5b60006200019d868287016200015a565b9350506020620001b0868287016200015a565b9250506040620001c3868287016200015a565b9150509250925092565b613dc580620001dd6000396000f3fe608060405234801561001057600080fd5b50600436106101215760003560e01c806360c661e6116100ad578063e1ec3c6811610071578063e1ec3c681461038c578063e3ed1902146103c2578063e766a88f146103f2578063e8cbab0914610424578063fee870e91461045457610121565b806360c661e6146102ae578063706a43c3146102de5780638cda45711461030e578063a51e2bad1461033e578063c95669a51461036e57610121565b80631e042d1f116100f45780631e042d1f146101d257806330f2670c146101ee578063376e49881461021e5780633a31f3371461024e578063561e79461461027e57610121565b806302117df314610126578063093f56171461015657806310618223146101865780631c5c1fc7146101b6575b600080fd5b610140600480360381019061013b9190612c3a565b610484565b60405161014d9190612c76565b60405180910390f35b610170600480360381019061016b9190612c3a565b610553565b60405161017d9190612cac565b60405180910390f35b6101a0600480360381019061019b9190612c3a565b6105cc565b6040516101ad9190612cac565b60405180910390f35b6101d060048036038101906101cb9190612c3a565b6106c4565b005b6101ec60048036038101906101e79190612c3a565b6107a1565b005b61020860048036038101906102039190612d25565b6108bd565b6040516102159190612c76565b60405180910390f35b61023860048036038101906102339190612c3a565b6108d5565b6040516102459190612c76565b60405180910390f35b61026860048036038101906102639190612c3a565b6108ed565b6040516102759190612d71565b60405180910390f35b61029860048036038101906102939190612c3a565b610910565b6040516102a59190612c76565b60405180910390f35b6102c860048036038101906102c39190612df2565b6109df565b6040516102d59190612c76565b60405180910390f35b6102f860048036038101906102f39190612c3a565b6111fd565b6040516103059190612d71565b60405180910390f35b61032860048036038101906103239190612c3a565b6113db565b6040516103359190612d71565b60405180910390f35b61035860048036038101906103539190612c3a565b6113fe565b6040516103659190612d71565b60405180910390f35b610376611422565b6040516103839190612c76565b60405180910390f35b6103a660048036038101906103a19190612c3a565b611428565b6040516103b99796959493929190613091565b60405180910390f35b6103dc60048036038101906103d79190613103565b61165b565b6040516103e99190612c76565b60405180910390f35b61040c60048036038101906104079190612c3a565b61168c565b60405161041b93929190613143565b60405180910390f35b61043e60048036038101906104399190612c3a565b612333565b60405161044b9190612cac565b60405180910390f35b61046e6004803603810190610469919061317a565b61241c565b60405161047b9190612c76565b60405180910390f35b60006002600381111561049a5761049961301a565b5b60016000848152602001908152602001600020600b0160009054906101000a900460ff1660038111156104d0576104cf61301a565b5b14610510576040517f08c379a000000000000000000000000000000000000000000000000000000000815260040161050790613217565b60405180910390fd5b60008060006105316001600087815260200190815260200160002042612441565b925092509250600081846105459190613266565b905080945050505050919050565b6000600260038111156105695761056861301a565b5b60016000848152602001908152602001600020600b0160009054906101000a900460ff16600381111561059f5761059e61301a565b5b146105ad57600090506105c7565b6105b6826111fd565b63ffffffff164263ffffffff161190505b919050565b600080600160008481526020019081526020016000209050600060038111156105f8576105f761301a565b5b81600b0160009054906101000a900460ff16600381111561061c5761061b61301a565b5b1461062b5760009150506106bf565b60006007600085815260200190815260200160002060009054906101000a900463ffffffff1663ffffffff1614156106675760009150506106bf565b6007600084815260200190815260200160002060009054906101000a900463ffffffff168160040160040160009054906101000a900463ffffffff166106ad91906132bc565b63ffffffff164263ffffffff16119150505b919050565b600260038111156106d8576106d761301a565b5b60016000838152602001908152602001600020600b0160009054906101000a900460ff16600381111561070e5761070d61301a565b5b1461074e576040517f08c379a000000000000000000000000000000000000000000000000000000000815260040161074590613217565b60405180910390fd5b60008061076d6001600085815260200190815260200160002042612441565b925050915061079c8360405180604001604052808581526020018481525083856107979190613266565b6124f6565b505050565b600260038111156107b5576107b461301a565b5b60016000838152602001908152602001600020600b0160009054906101000a900460ff1660038111156107eb576107ea61301a565b5b1461082b576040517f08c379a000000000000000000000000000000000000000000000000000000000815260040161082290613217565b60405180910390fd5b600080600061084c6001600086815260200190815260200160002042612441565b92509250925061087c8460405180604001604052808581526020018481525083866108779190613266565b6124f6565b7f193d98b28f4db3258b9a6bc3f7270c0ea85e0a520b3dc0daad9acc7136703d0f8383836040516108af93929190613143565b60405180910390a150505050565b60046020528060005260406000206000915090505481565b60026020528060005260406000206000915090505481565b60076020528060005260406000206000915054906101000a900463ffffffff1681565b6000600260038111156109265761092561301a565b5b60016000848152602001908152602001600020600b0160009054906101000a900460ff16600381111561095c5761095b61301a565b5b1461099c576040517f08c379a000000000000000000000000000000000000000000000000000000000815260040161099390613217565b60405180910390fd5b60008060006109bd6001600087815260200190815260200160002042612441565b925092509250600081836109d19190613266565b905080945050505050919050565b600080600960009054906101000a900473ffffffffffffffffffffffffffffffffffffffff1673ffffffffffffffffffffffffffffffffffffffff1663918d59ea88336040518363ffffffff1660e01b8152600401610a3f9291906132f6565b6040805180830381865afa158015610a5b573d6000803e3d6000fd5b505050506040513d601f19601f82011682018060405250810190610a7f9190613381565b50905080610ac2576040517f08c379a0000000000000000000000000000000000000000000000000000000008152600401610ab99061340d565b60405180910390fd5b600960009054906101000a900473ffffffffffffffffffffffffffffffffffffffff1673ffffffffffffffffffffffffffffffffffffffff1663a8380df1886040518263ffffffff1660e01b8152600401610b1d9190612c76565b602060405180830381865afa158015610b3a573d6000803e3d6000fd5b505050506040513d601f19601f82011682018060405250810190610b5e919061342d565b15610b9e576040517f08c379a0000000000000000000000000000000000000000000000000000000008152600401610b95906134a6565b60405180910390fd5b6000549150816002600089815260200190815260200160002081905550600060016000805481526020019081526020016000209050338160000160006101000a81548173ffffffffffffffffffffffffffffffffffffffff021916908373ffffffffffffffffffffffffffffffffffffffff160217905550600073ffffffffffffffffffffffffffffffffffffffff168473ffffffffffffffffffffffffffffffffffffffff161415610c75578060000160009054906101000a900473ffffffffffffffffffffffffffffffffffffffff16610c77565b835b8160010160006101000a81548173ffffffffffffffffffffffffffffffffffffffff021916908373ffffffffffffffffffffffffffffffffffffffff160217905550878160030181905550888160040160000160006101000a81548173ffffffffffffffffffffffffffffffffffffffff021916908373ffffffffffffffffffffffffffffffffffffffff1602179055508681600401600101819055508581600401600401600c6101000a81548163ffffffff021916908363ffffffff160217905550428160040160040160006101000a81548163ffffffff021916908363ffffffff160217905550600960009054906101000a900473ffffffffffffffffffffffffffffffffffffffff1673ffffffffffffffffffffffffffffffffffffffff1663805deb53896040518263ffffffff1660e01b8152600401610dbb9190612c76565b602060405180830381865afa158015610dd8573d6000803e3d6000fd5b505050506040513d601f19601f82011682018060405250810190610dfc91906134db565b8160090160010160006101000a81548163ffffffff021916908363ffffffff160217905550848160090160010160046101000a81548161ffff021916908361ffff160217905550600960009054906101000a900473ffffffffffffffffffffffffffffffffffffffff1673ffffffffffffffffffffffffffffffffffffffff166311bed5bb896040518263ffffffff1660e01b8152600401610e9e9190612c76565b602060405180830381865afa158015610ebb573d6000803e3d6000fd5b505050506040513d601f19601f82011682018060405250810190610edf91906134db565b600660008054815260200190815260200160002060006101000a81548163ffffffff021916908363ffffffff160217905550600960009054906101000a900473ffffffffffffffffffffffffffffffffffffffff1673ffffffffffffffffffffffffffffffffffffffff1663c28ba8eb896040518263ffffffff1660e01b8152600401610f6c9190612c76565b602060405180830381865afa158015610f89573d6000803e3d6000fd5b505050506040513d601f19601f82011682018060405250810190610fad91906134db565b600760008054815260200190815260200160002060006101000a81548163ffffffff021916908363ffffffff16021790555073__LibCalculations_______________________632872a88788888460090160010160009054906101000a900463ffffffff16896040518563ffffffff1660e01b81526004016110339493929190613535565b602060405180830381865af4158015611050573d6000803e3d6000fd5b505050506040513d601f19601f82011682018060405250810190611074919061358f565b8160090160000181905550600081600b0160006101000a81548160ff021916908360038111156110a7576110a661301a565b5b02179055508060000160009054906101000a900473ffffffffffffffffffffffffffffffffffffffff1673ffffffffffffffffffffffffffffffffffffffff166000547f20669ac1da79ef826aa0f4e5e5b00ae0f2ed6e7c6eceb274c6fb43976204217e8360010160009054906101000a900473ffffffffffffffffffffffffffffffffffffffff1684600901600001546040516111469291906135bc565b60405180910390a3600560008260000160009054906101000a900473ffffffffffffffffffffffffffffffffffffffff1673ffffffffffffffffffffffffffffffffffffffff1673ffffffffffffffffffffffffffffffffffffffff16815260200190815260200160002060005490806001815401808255809150506001900390600052602060002001600090919091909150556000808154809291906111ec906135e5565b919050555050509695505050505050565b600080600160008481526020019081526020016000209050600260038111156112295761122861301a565b5b60016000858152602001908152602001600020600b0160009054906101000a900460ff16600381111561125f5761125e61301a565b5b1461126a57506113d6565b8060090160010160009054906101000a900463ffffffff168160040160040160049054906101000a900463ffffffff166112a491906132bc565b915060008160040160040160049054906101000a900463ffffffff166112c9856113fe565b6112d3919061362e565b905060008163ffffffff1611156113495760008260090160010160009054906101000a900463ffffffff16826113099190613691565b600161131591906132bc565b90508260090160010160009054906101000a900463ffffffff168161133a91906136c2565b8461134591906132bc565b9350505b81600401600401600c9054906101000a900463ffffffff168260040160040160049054906101000a900463ffffffff1661138391906132bc565b63ffffffff168363ffffffff1611156113d35781600401600401600c9054906101000a900463ffffffff168260040160040160049054906101000a900463ffffffff166113d091906132bc565b92505b50505b919050565b60066020528060005260406000206000915054906101000a900463ffffffff1681565b600061141b60016000848152602001908152602001600020612859565b9050919050565b60005481565b60016020528060005260406000206000915090508060000160009054906101000a900473ffffffffffffffffffffffffffffffffffffffff16908060010160009054906101000a900473ffffffffffffffffffffffffffffffffffffffff16908060020160009054906101000a900473ffffffffffffffffffffffffffffffffffffffff1690806003015490806004016040518060e00160405290816000820160009054906101000a900473ffffffffffffffffffffffffffffffffffffffff1673ffffffffffffffffffffffffffffffffffffffff1673ffffffffffffffffffffffffffffffffffffffff16815260200160018201548152602001600282016040518060400160405290816000820154815260200160018201548152505081526020016004820160009054906101000a900463ffffffff1663ffffffff1663ffffffff1681526020016004820160049054906101000a900463ffffffff1663ffffffff1663ffffffff1681526020016004820160089054906101000a900463ffffffff1663ffffffff1663ffffffff16815260200160048201600c9054906101000a900463ffffffff1663ffffffff1663ffffffff16815250509080600901604051806060016040529081600082015481526020016001820160009054906101000a900463ffffffff1663ffffffff1663ffffffff1681526020016001820160049054906101000a900461ffff1661ffff1661ffff16815250509080600b0160009054906101000a900460ff16905087565b6005602052816000526040600020818154811061167757600080fd5b90600052602060002001600091509150505481565b600080600083600060038111156116a6576116a561301a565b5b60016000838152602001908152602001600020600b0160009054906101000a900460ff1660038111156116dc576116db61301a565b5b1461171c576040517f08c379a00000000000000000000000000000000000000000000000000000000081526004016117139061374c565b60405180910390fd5b60006001600087815260200190815260200160002090506000600960009054906101000a900473ffffffffffffffffffffffffffffffffffffffff1673ffffffffffffffffffffffffffffffffffffffff1663cf6539208360030154336040518363ffffffff1660e01b81526004016117969291906132f6565b6040805180830381865afa1580156117b2573d6000803e3d6000fd5b505050506040513d601f19601f820116820180604052508101906117d69190613381565b50905080611819576040517f08c379a0000000000000000000000000000000000000000000000000000000008152600401611810906137b8565b60405180910390fd5b600960009054906101000a900473ffffffffffffffffffffffffffffffffffffffff1673ffffffffffffffffffffffffffffffffffffffff1663a8380df183600301546040518263ffffffff1660e01b81526004016118789190612c76565b602060405180830381865afa158015611895573d6000803e3d6000fd5b505050506040513d601f19601f820116820180604052508101906118b9919061342d565b156118f9576040517f08c379a00000000000000000000000000000000000000000000000000000000081526004016118f0906134a6565b60405180910390fd5b611902876105cc565b15611942576040517f08c379a000000000000000000000000000000000000000000000000000000000815260040161193990613824565b60405180910390fd5b428260040160040160046101000a81548163ffffffff021916908363ffffffff160217905550428260040160040160086101000a81548163ffffffff021916908363ffffffff160217905550600282600b0160006101000a81548160ff021916908360038111156119b6576119b561301a565b5b0217905550338260020160006101000a81548173ffffffffffffffffffffffffffffffffffffffff021916908373ffffffffffffffffffffffffffffffffffffffff16021790555073__LibCalculations_______________________633fb340038360040160010154600a60009054906101000a900473ffffffffffffffffffffffffffffffffffffffff1673ffffffffffffffffffffffffffffffffffffffff1663b0e21e8a6040518163ffffffff1660e01b8152600401602060405180830381865afa158015611a8d573d6000803e3d6000fd5b505050506040513d601f19601f82011682018060405250810190611ab19190613859565b6040518363ffffffff1660e01b8152600401611ace929190613886565b602060405180830381865af4158015611aeb573d6000803e3d6000fd5b505050506040513d601f19601f82011682018060405250810190611b0f919061358f565b955073__LibCalculations_______________________633fb340038360040160010154600960009054906101000a900473ffffffffffffffffffffffffffffffffffffffff1673ffffffffffffffffffffffffffffffffffffffff1663635f1e4d86600301546040518263ffffffff1660e01b8152600401611b929190612c76565b602060405180830381865afa158015611baf573d6000803e3d6000fd5b505050506040513d601f19601f82011682018060405250810190611bd39190613859565b6040518363ffffffff1660e01b8152600401611bf0929190613886565b602060405180830381865af4158015611c0d573d6000803e3d6000fd5b505050506040513d601f19601f82011682018060405250810190611c31919061358f565b945084868360040160010154611c4791906138af565b611c5191906138af565b935060008614611db8578160040160000160009054906101000a900473ffffffffffffffffffffffffffffffffffffffff1673ffffffffffffffffffffffffffffffffffffffff166323b872dd8360020160009054906101000a900473ffffffffffffffffffffffffffffffffffffffff16600a60009054906101000a900473ffffffffffffffffffffffffffffffffffffffff1673ffffffffffffffffffffffffffffffffffffffff16634dd9ccb16040518163ffffffff1660e01b8152600401602060405180830381865afa158015611d30573d6000803e3d6000fd5b505050506040513d601f19601f82011682018060405250810190611d5491906138f8565b896040518463ffffffff1660e01b8152600401611d7393929190613925565b6020604051808303816000875af1158015611d92573d6000803e3d6000fd5b505050506040513d601f19601f82011682018060405250810190611db6919061342d565b505b60008514611f2c578160040160000160009054906101000a900473ffffffffffffffffffffffffffffffffffffffff1673ffffffffffffffffffffffffffffffffffffffff166323b872dd8360020160009054906101000a900473ffffffffffffffffffffffffffffffffffffffff16600960009054906101000a900473ffffffffffffffffffffffffffffffffffffffff1673ffffffffffffffffffffffffffffffffffffffff16636e34b4e486600301546040518263ffffffff1660e01b8152600401611e879190612c76565b602060405180830381865afa158015611ea4573d6000803e3d6000fd5b505050506040513d601f19601f82011682018060405250810190611ec891906138f8565b886040518463ffffffff1660e01b8152600401611ee793929190613925565b6020604051808303816000875af1158015611f06573d6000803e3d6000fd5b505050506040513d601f19601f82011682018060405250810190611f2a919061342d565b505b8160040160000160009054906101000a900473ffffffffffffffffffffffffffffffffffffffff1673ffffffffffffffffffffffffffffffffffffffff166323b872dd8360020160009054906101000a900473ffffffffffffffffffffffffffffffffffffffff168460000160009054906101000a900473ffffffffffffffffffffffffffffffffffffffff16876040518463ffffffff1660e01b8152600401611fd893929190613925565b6020604051808303816000875af1158015611ff7573d6000803e3d6000fd5b505050506040513d601f19601f8201168201806040525081019061201b919061342d565b508160040160010154600860008460040160000160009054906101000a900473ffffffffffffffffffffffffffffffffffffffff1673ffffffffffffffffffffffffffffffffffffffff1673ffffffffffffffffffffffffffffffffffffffff16815260200190815260200160002060008460020160009054906101000a900473ffffffffffffffffffffffffffffffffffffffff1673ffffffffffffffffffffffffffffffffffffffff1673ffffffffffffffffffffffffffffffffffffffff16815260200190815260200160002060008282546120fa9190613266565b925050819055508160040160010154600460008460040160000160009054906101000a900473ffffffffffffffffffffffffffffffffffffffff1673ffffffffffffffffffffffffffffffffffffffff1673ffffffffffffffffffffffffffffffffffffffff168152602001908152602001600020600082825461217e9190613266565b925050819055506121fa87600360008560000160009054906101000a900473ffffffffffffffffffffffffffffffffffffffff1673ffffffffffffffffffffffffffffffffffffffff1673ffffffffffffffffffffffffffffffffffffffff1681526020019081526020016000206128bc90919063ffffffff16565b508160020160009054906101000a900473ffffffffffffffffffffffffffffffffffffffff1673ffffffffffffffffffffffffffffffffffffffff16877fc175daba6d0afff1f048fc218620bf5012c03afa26af397bacbf30f7341d343060405160405180910390a385604051612270906139b3565b6040518091039020887f9d2e18d1e551e6728496dd39a969d9fe809fe60c0c8c9cabfda8be718e5387cf60405160405180910390a4846040516122b290613a14565b6040518091039020887f9d2e18d1e551e6728496dd39a969d9fe809fe60c0c8c9cabfda8be718e5387cf60405160405180910390a4836040516122f490613a75565b6040518091039020887f9d2e18d1e551e6728496dd39a969d9fe809fe60c0c8c9cabfda8be718e5387cf60405160405180910390a45050509193909250565b6000806001600084815260200190815260200160002090506002600381111561235f5761235e61301a565b5b81600b0160009054906101000a900460ff1660038111156123835761238261301a565b5b14612392576000915050612417565b60006006600085815260200190815260200160002060009054906101000a900463ffffffff1663ffffffff1614156123ce576000915050612417565b6006600084815260200190815260200160002060009054906101000a900463ffffffff1663ffffffff16612401846113fe565b4261240c919061362e565b63ffffffff16119150505b919050565b6008602052816000526040600020602052806000526040600020600091509150505481565b60008060006124e9856004016001015486600401600201600001548760090160010160049054906101000a900461ffff1688600901600001548960090160010160009054906101000a900463ffffffff1663ffffffff166124a18b612859565b63ffffffff168a8c60040160040160049054906101000a900463ffffffff1663ffffffff168d600401600401600c9054906101000a900463ffffffff1663ffffffff166128d6565b9250925092509250925092565b60006001600085815260200190815260200160002090506000836020015184600001516125239190613266565b90506000826003015490506000600960009054906101000a900473ffffffffffffffffffffffffffffffffffffffff1673ffffffffffffffffffffffffffffffffffffffff1662a5ae21836040518263ffffffff1660e01b815260040161258a9190612c76565b602060405180830381865afa1580156125a7573d6000803e3d6000fd5b505050506040513d601f19601f820116820180604052508101906125cb91906138f8565b90508483106126b757849250600384600b0160006101000a81548160ff021916908360038111156125ff576125fe61301a565b5b021790555061267987600360008760000160009054906101000a900473ffffffffffffffffffffffffffffffffffffffff1673ffffffffffffffffffffffffffffffffffffffff1673ffffffffffffffffffffffffffffffffffffffff1681526020019081526020016000206129bf90919063ffffffff16565b50867f040cee90ee4799897c30ca04e5feb6fa43dbba9b6d084b4b257cdafd84ba013e846040516126aa9190612c76565b60405180910390a26126f0565b867f74eb6e59df678ce3b4afd511fde3df47cbedd7c742096db39757074577499a9c846040516126e79190612c76565b60405180910390a25b8360040160000160009054906101000a900473ffffffffffffffffffffffffffffffffffffffff1673ffffffffffffffffffffffffffffffffffffffff166323b872dd8560000160009054906101000a900473ffffffffffffffffffffffffffffffffffffffff168660020160009054906101000a900473ffffffffffffffffffffffffffffffffffffffff16866040518463ffffffff1660e01b815260040161279c93929190613925565b6020604051808303816000875af11580156127bb573d6000803e3d6000fd5b505050506040513d601f19601f820116820180604052508101906127df919061342d565b5085600001518460040160020160000160008282546127fe9190613266565b9250508190555085602001518460040160020160010160008282546128239190613266565b92505081905550428460040160040160086101000a81548163ffffffff021916908363ffffffff16021790555050505050505050565b6000808260040160040160089054906101000a900463ffffffff1663ffffffff161461289c578160040160040160089054906101000a900463ffffffff166128b5565b8160040160040160049054906101000a900463ffffffff165b9050919050565b60006128ce836000018360001b6129d9565b905092915050565b60008060008a8c6128e791906138af565b925060006128f5848c612a49565b90506000888861290591906138af565b90506301e1338081836129189190613a8a565b6129229190613ae4565b9250600087896129329190613b1f565b8761293d9190613b1f565b905060008b82128061295a57508c85886129579190613266565b11155b9050600081612969578d612976565b85886129759190613266565b5b905060008d85836129879190613a8a565b6129919190613ae4565b90506129a887826129a291906138af565b8a612a63565b975050505050505099509950999650505050505050565b60006129d1836000018360001b612a7c565b905092915050565b60006129e58383612b90565b612a3e578260000182908060018154018082558091505060019003906000526020600020016000909190919091505582600001805490508360010160008481526020019081526020016000208190555060019050612a43565b600090505b92915050565b6000612a5b838361ffff166002612bb3565b905092915050565b6000818310612a725781612a74565b825b905092915050565b60008083600101600084815260200190815260200160002054905060008114612b84576000600182612aae91906138af565b9050600060018660000180549050612ac691906138af565b9050818114612b35576000866000018281548110612ae757612ae6613bb3565b5b9060005260206000200154905080876000018481548110612b0b57612b0a613bb3565b5b90600052602060002001819055508387600101600083815260200190815260200160002081905550505b85600001805480612b4957612b48613be2565b5b600190038181906000526020600020016000905590558560010160008681526020019081526020016000206000905560019350505050612b8a565b60009150505b92915050565b600080836001016000848152602001908152602001600020541415905092915050565b6000612bbe82612bdd565b8385612bca9190613a8a565b612bd49190613ae4565b90509392505050565b600081600a612bec9190613d44565b6064612bf89190613a8a565b9050919050565b600080fd5b6000819050919050565b612c1781612c04565b8114612c2257600080fd5b50565b600081359050612c3481612c0e565b92915050565b600060208284031215612c5057612c4f612bff565b5b6000612c5e84828501612c25565b91505092915050565b612c7081612c04565b82525050565b6000602082019050612c8b6000830184612c67565b92915050565b60008115159050919050565b612ca681612c91565b82525050565b6000602082019050612cc16000830184612c9d565b92915050565b600073ffffffffffffffffffffffffffffffffffffffff82169050919050565b6000612cf282612cc7565b9050919050565b612d0281612ce7565b8114612d0d57600080fd5b50565b600081359050612d1f81612cf9565b92915050565b600060208284031215612d3b57612d3a612bff565b5b6000612d4984828501612d10565b91505092915050565b600063ffffffff82169050919050565b612d6b81612d52565b82525050565b6000602082019050612d866000830184612d62565b92915050565b612d9581612d52565b8114612da057600080fd5b50565b600081359050612db281612d8c565b92915050565b600061ffff82169050919050565b612dcf81612db8565b8114612dda57600080fd5b50565b600081359050612dec81612dc6565b92915050565b60008060008060008060c08789031215612e0f57612e0e612bff565b5b6000612e1d89828a01612d10565b9650506020612e2e89828a01612c25565b9550506040612e3f89828a01612c25565b9450506060612e5089828a01612da3565b9350506080612e6189828a01612ddd565b92505060a0612e7289828a01612d10565b9150509295509295509295565b612e8881612ce7565b82525050565b6000819050919050565b6000612eb3612eae612ea984612cc7565b612e8e565b612cc7565b9050919050565b6000612ec582612e98565b9050919050565b6000612ed782612eba565b9050919050565b612ee781612ecc565b82525050565b612ef681612c04565b82525050565b604082016000820151612f126000850182612eed565b506020820151612f256020850182612eed565b50505050565b612f3481612d52565b82525050565b61010082016000820151612f516000850182612ede565b506020820151612f646020850182612eed565b506040820151612f776040850182612efc565b506060820151612f8a6080850182612f2b565b506080820151612f9d60a0850182612f2b565b5060a0820151612fb060c0850182612f2b565b5060c0820151612fc360e0850182612f2b565b50505050565b612fd281612db8565b82525050565b606082016000820151612fee6000850182612eed565b5060208201516130016020850182612f2b565b5060408201516130146040850182612fc9565b50505050565b7f4e487b7100000000000000000000000000000000000000000000000000000000600052602160045260246000fd5b6004811061305a5761305961301a565b5b50565b600081905061306b82613049565b919050565b600061307b8261305d565b9050919050565b61308b81613070565b82525050565b6000610200820190506130a7600083018a612e7f565b6130b46020830189612e7f565b6130c16040830188612e7f565b6130ce6060830187612c67565b6130db6080830186612f3a565b6130e9610180830185612fd8565b6130f76101e0830184613082565b98975050505050505050565b6000806040838503121561311a57613119612bff565b5b600061312885828601612d10565b925050602061313985828601612c25565b9150509250929050565b60006060820190506131586000830186612c67565b6131656020830185612c67565b6131726040830184612c67565b949350505050565b6000806040838503121561319157613190612bff565b5b600061319f85828601612d10565b92505060206131b085828601612d10565b9150509250929050565b600082825260208201905092915050565b7f4c6f616e206d7573742062652061636365707465640000000000000000000000600082015250565b60006132016015836131ba565b915061320c826131cb565b602082019050919050565b60006020820190508181036000830152613230816131f4565b9050919050565b7f4e487b7100000000000000000000000000000000000000000000000000000000600052601160045260246000fd5b600061327182612c04565b915061327c83612c04565b9250827fffffffffffffffffffffffffffffffffffffffffffffffffffffffffffffffff038211156132b1576132b0613237565b5b828201905092915050565b60006132c782612d52565b91506132d283612d52565b92508263ffffffff038211156132eb576132ea613237565b5b828201905092915050565b600060408201905061330b6000830185612c67565b6133186020830184612e7f565b9392505050565b61332881612c91565b811461333357600080fd5b50565b6000815190506133458161331f565b92915050565b6000819050919050565b61335e8161334b565b811461336957600080fd5b50565b60008151905061337b81613355565b92915050565b6000806040838503121561339857613397612bff565b5b60006133a685828601613336565b92505060206133b78582860161336c565b9150509250929050565b7f4e6f7420766572696669656420626f72726f7765720000000000000000000000600082015250565b60006133f76015836131ba565b9150613402826133c1565b602082019050919050565b60006020820190508181036000830152613426816133ea565b9050919050565b60006020828403121561344357613442612bff565b5b600061345184828501613336565b91505092915050565b7f506f6f6c20697320636c6f736564000000000000000000000000000000000000600082015250565b6000613490600e836131ba565b915061349b8261345a565b602082019050919050565b600060208201905081810360008301526134bf81613483565b9050919050565b6000815190506134d581612d8c565b92915050565b6000602082840312156134f1576134f0612bff565b5b60006134ff848285016134c6565b91505092915050565b61351181612c04565b82525050565b61352081612d52565b82525050565b61352f81612db8565b82525050565b600060808201905061354a6000830187613508565b6135576020830186613517565b6135646040830185613517565b6135716060830184613526565b95945050505050565b60008151905061358981612c0e565b92915050565b6000602082840312156135a5576135a4612bff565b5b60006135b38482850161357a565b91505092915050565b60006040820190506135d16000830185612e7f565b6135de6020830184612c67565b9392505050565b60006135f082612c04565b91507fffffffffffffffffffffffffffffffffffffffffffffffffffffffffffffffff82141561362357613622613237565b5b600182019050919050565b600061363982612d52565b915061364483612d52565b92508282101561365757613656613237565b5b828203905092915050565b7f4e487b7100000000000000000000000000000000000000000000000000000000600052601260045260246000fd5b600061369c82612d52565b91506136a783612d52565b9250826136b7576136b6613662565b5b828204905092915050565b60006136cd82612d52565b91506136d883612d52565b92508163ffffffff04831182151516156136f5576136f4613237565b5b828202905092915050565b7f4c6f616e206d7573742062652070656e64696e67000000000000000000000000600082015250565b60006137366014836131ba565b915061374182613700565b602082019050919050565b6000602082019050818103600083015261376581613729565b9050919050565b7f4e6f74207665726966696564206c656e64657200000000000000000000000000600082015250565b60006137a26013836131ba565b91506137ad8261376c565b602082019050919050565b600060208201905081810360008301526137d181613795565b9050919050565b7f4c6f616e20686173206578706972656400000000000000000000000000000000600082015250565b600061380e6010836131ba565b9150613819826137d8565b602082019050919050565b6000602082019050818103600083015261383d81613801565b9050919050565b60008151905061385381612dc6565b92915050565b60006020828403121561386f5761386e612bff565b5b600061387d84828501613844565b91505092915050565b600060408201905061389b6000830185613508565b6138a86020830184613526565b9392505050565b60006138ba82612c04565b91506138c583612c04565b9250828210156138d8576138d7613237565b5b828203905092915050565b6000815190506138f281612cf9565b92915050565b60006020828403121561390e5761390d612bff565b5b600061391c848285016138e3565b91505092915050565b600060608201905061393a6000830186612e7f565b6139476020830185612e7f565b6139546040830184612c67565b949350505050565b600081905092915050565b7f70726f746f636f6c000000000000000000000000000000000000000000000000600082015250565b600061399d60088361395c565b91506139a882613967565b600882019050919050565b60006139be82613990565b9150819050919050565b7f506f6f6c00000000000000000000000000000000000000000000000000000000600082015250565b60006139fe60048361395c565b9150613a09826139c8565b600482019050919050565b6000613a1f826139f1565b9150819050919050565b7f426f72726f776572000000000000000000000000000000000000000000000000600082015250565b6000613a5f60088361395c565b9150613a6a82613a29565b600882019050919050565b6000613a8082613a52565b9150819050919050565b6000613a9582612c04565b9150613aa083612c04565b9250817fffffffffffffffffffffffffffffffffffffffffffffffffffffffffffffffff0483118215151615613ad957613ad8613237565b5b828202905092915050565b6000613aef82612c04565b9150613afa83612c04565b925082613b0a57613b09613662565b5b828204905092915050565b6000819050919050565b6000613b2a82613b15565b9150613b3583613b15565b9250827f800000000000000000000000000000000000000000000000000000000000000001821260008412151615613b7057613b6f613237565b5b827f7fffffffffffffffffffffffffffffffffffffffffffffffffffffffffffffff018213600084121615613ba857613ba7613237565b5b828203905092915050565b7f4e487b7100000000000000000000000000000000000000000000000000000000600052603260045260246000fd5b7f4e487b7100000000000000000000000000000000000000000000000000000000600052603160045260246000fd5b60008160011c9050919050565b6000808291508390505b6001851115613c6857808604811115613c4457613c43613237565b5b6001851615613c535780820291505b8081029050613c6185613c11565b9450613c28565b94509492505050565b600082613c815760019050613d3d565b81613c8f5760009050613d3d565b8160018114613ca55760028114613caf57613cde565b6001915050613d3d565b60ff841115613cc157613cc0613237565b5b8360020a915084821115613cd857613cd7613237565b5b50613d3d565b5060208310610133831016604e8410600b8410161715613d135782820a905083811115613d0e57613d0d613237565b5b613d3d565b613d208484846001613c1e565b92509050818404811115613d3757613d36613237565b5b81810290505b9392505050565b6000613d4f82612c04565b9150613d5a83612c04565b9250613d877fffffffffffffffffffffffffffffffffffffffffffffffffffffffffffffffff8484613c71565b90509291505056fea26469706673582212209c45394a39aa458842d6f1c5d1902a2dfaa3778069b3bc090968da49448f23e464736f6c634300080b0033",
	"immutableReferences": {},
	"source": "// SPDX-License-Identifier: MIT\npragma solidity >=0.4.22 <0.9.0;\n\nimport \"@openzeppelin/contracts/token/ERC20/IERC20.sol\";\nimport \"@openzeppelin/contracts/utils/Counters.sol\";\nimport {SafeMath} from \"@openzeppelin/contracts/utils/math/SafeMath.sol\";\nimport {EnumerableSet} from \"@openzeppelin/contracts/utils/structs/EnumerableSet.sol\";\nimport \"@openzeppelin/contracts/token/ERC721/extensions/ERC721URIStorage.sol\";\nimport \"./poolRegistry.sol\";\nimport \"./poolStorage.sol\";\nimport \"./AconomyFee.sol\";\nimport \"./accountStatus.sol\";\nimport \"./Libraries/LibCalculations.sol\";\nimport \"./interfaces/IaccountStatus.sol\";\n\nimport \"@openzeppelin/contracts/utils/Address.sol\";\nimport \"@openzeppelin/contracts/utils/math/Math.sol\";\nimport \"@openzeppelin/contracts/token/ERC20/utils/SafeERC20.sol\";\n\n\ncontract poolAddress is poolStorage {\n    address poolRegistryAddress;\n    address AconomyFeeAddress;\n    address accountStatusAddress;\n\n    using SafeMath for uint256;\n    using EnumerableSet for EnumerableSet.UintSet;\n\n    constructor(\n        address _poolRegistry,\n        address _AconomyFeeAddress,\n        address _accountStatusAddress\n    ) {\n        poolRegistryAddress = _poolRegistry;\n        AconomyFeeAddress = _AconomyFeeAddress;\n        accountStatusAddress = _accountStatusAddress;\n    }\n\n    modifier pendingLoan(uint256 _loanId) {\n        if (loans[_loanId].state != LoanState.PENDING) {\n            revert(\"Loan must be pending\");\n        }\n        _;\n    }\n\n    modifier onlyPoolOwner(uint256 poolId) {\n        require(\n            msg.sender == poolRegistry(poolRegistryAddress).getPoolOwner(poolId)\n        );\n        _;\n    }\n\n    event loanAccepted(uint256 indexed loanId, address indexed lender);\n\n    event repaidAmounts(\n        uint256 owedPrincipal,\n        uint256 duePrincipal,\n        uint256 interest\n    );\n    event AcceptedLoanDetail(\n        uint256 indexed loanId,\n        string indexed feeType,\n        uint256 indexed amount\n    );\n\n    event LoanRepaid(uint256 indexed loanId, uint256 Amount);\n    event LoanRepayment(uint256 indexed loanId, uint256 Amount);\n\n    event SubmittedLoan(\n        uint256 indexed loanId,\n        address indexed borrower,\n        address receiver,\n        uint256 paymentCycleAmount\n    );\n\n    function loanRequest(\n        address _lendingToken,\n        uint256 _poolId,\n        uint256 _principal,\n        uint32 _duration,\n        uint16 _APR,\n        address _receiver\n    ) public returns (uint256 loanId_) {\n        (bool isVerified, ) = poolRegistry(poolRegistryAddress)\n            .borrowerVarification(_poolId, msg.sender);\n        require(isVerified, \"Not verified borrower\");\n        require(\n            !poolRegistry(poolRegistryAddress).ClosedPool(_poolId),\n            \"Pool is closed\"\n        );\n\n        loanId_ = loanId;\n\n        poolLoans[_poolId] = loanId_;\n\n        // Create and store our loan into the mapping\n        Loan storage loan = loans[loanId];\n        loan.borrower = msg.sender;\n        loan.receiver = _receiver != address(0) ? _receiver : loan.borrower;\n        loan.poolId = _poolId;\n        loan.loanDetails.lendingToken = ERC20(_lendingToken);\n        loan.loanDetails.principal = _principal;\n        loan.loanDetails.loanDuration = _duration;\n        loan.loanDetails.timestamp = uint32(block.timestamp);\n\n        loan.terms.paymentCycle = poolRegistry(poolRegistryAddress)\n            .getPaymentCycleDuration(_poolId);\n\n        loan.terms.APR = _APR;\n\n        loanDefaultDuration[loanId] = poolRegistry(poolRegistryAddress)\n            .getPaymentDefaultDuration(_poolId);\n\n        loanExpirationTime[loanId] = poolRegistry(poolRegistryAddress)\n            .getloanExpirationTime(_poolId);\n\n        loan.terms.paymentCycleAmount = LibCalculations.payment(\n            _principal,\n            _duration,\n            loan.terms.paymentCycle,\n            _APR\n        );\n\n        loan.state = LoanState.PENDING;\n\n        emit SubmittedLoan(\n            loanId,\n            loan.borrower,\n            loan.receiver,\n            loan.terms.paymentCycleAmount\n        );\n\n        // Store loan inside borrower loans mapping\n        borrowerLoans[loan.borrower].push(loanId);\n\n        // Increment loan id\n        loanId++;\n    }\n\n    function AcceptLoan(uint256 _loanId)\n        external\n        pendingLoan(_loanId)\n        returns (\n            uint256 amountToAconomy,\n            uint256 amountToPool,\n            uint256 amountToBorrower\n        )\n    {\n        Loan storage loan = loans[_loanId];\n\n        (bool isVerified, ) = poolRegistry(poolRegistryAddress)\n            .lenderVarification(loan.poolId, msg.sender);\n\n        require(isVerified, \"Not verified lender\");\n        require(\n            !poolRegistry(poolRegistryAddress).ClosedPool(loan.poolId),\n            \"Pool is closed\"\n        );\n        require(!isLoanExpired(_loanId), \"Loan has expired\");\n\n        loan.loanDetails.acceptedTimestamp = uint32(block.timestamp);\n        loan.loanDetails.lastRepaidTimestamp = uint32(block.timestamp);\n\n        loan.state = LoanState.ACCEPTED;\n\n        loan.lender = msg.sender;\n\n        //Aconomy Fee\n        amountToAconomy = LibCalculations.percent(\n            loan.loanDetails.principal,\n            AconomyFee(AconomyFeeAddress).protocolFee()\n        );\n\n        //Pool Fee\n        amountToPool = LibCalculations.percent(\n            loan.loanDetails.principal,\n            poolRegistry(poolRegistryAddress).getPoolFee(loan.poolId)\n        );\n\n        //Amount to Borrower\n        amountToBorrower =\n            loan.loanDetails.principal -\n            amountToAconomy -\n            amountToPool;\n\n        //Transfer Aconomy Fee\n        if (amountToAconomy != 0) {\n            IERC20(loan.loanDetails.lendingToken).transferFrom(\n                loan.lender,\n                AconomyFee(AconomyFeeAddress).getAconomyOwnerAddress(),\n                amountToAconomy\n            );\n        }\n\n        //Transfer to Pool Owner\n        if (amountToPool != 0) {\n            IERC20(loan.loanDetails.lendingToken).transferFrom(\n                loan.lender,\n                poolRegistry(poolRegistryAddress).getPoolOwner(loan.poolId),\n                amountToPool\n            );\n        }\n\n        //transfer funds to borrower\n        IERC20(loan.loanDetails.lendingToken).transferFrom(\n            loan.lender,\n            loan.borrower,\n            amountToBorrower\n        );\n\n        // Record Amount filled by lenders\n        lenderLendAmount[address(loan.loanDetails.lendingToken)][\n            loan.lender\n        ] += loan.loanDetails.principal;\n        totalERC20Amount[address(loan.loanDetails.lendingToken)] += loan\n            .loanDetails\n            .principal;\n\n        // Store Borrower's active loan\n        borrowerActiveLoans[loan.borrower].add(_loanId);\n\n        emit loanAccepted(_loanId, loan.lender);\n\n        emit AcceptedLoanDetail(_loanId, \"protocol\", amountToAconomy);\n        emit AcceptedLoanDetail(_loanId, \"Pool\", amountToPool);\n        emit AcceptedLoanDetail(_loanId, \"Borrower\", amountToBorrower);\n    }\n\n    function isLoanExpired(uint256 _loanId) public view returns (bool) {\n        Loan storage loan = loans[_loanId];\n\n        if (loan.state != LoanState.PENDING) return false;\n        if (loanExpirationTime[_loanId] == 0) return false;\n\n        return (uint32(block.timestamp) >\n            loan.loanDetails.timestamp + loanExpirationTime[_loanId]);\n    }\n\n    function isLoanDefaulted(uint256 _loanId) public view returns (bool) {\n        Loan storage loan = loans[_loanId];\n\n        // Make sure loan cannot be liquidated if it is not active\n        if (loan.state != LoanState.ACCEPTED) return false;\n\n        if (loanDefaultDuration[_loanId] == 0) return false;\n\n        return (uint32(block.timestamp) - lastRepaidTimestamp(_loanId) >\n            loanDefaultDuration[_loanId]);\n    }\n\n    function lastRepaidTimestamp(uint256 _loanId) public view returns (uint32) {\n        return LibCalculations.lastRepaidTimestamp(loans[_loanId]);\n    }\n\n    function isPaymentLate(uint256 _loanId) public view returns (bool) {\n        if (loans[_loanId].state != LoanState.ACCEPTED) return false;\n        return uint32(block.timestamp) > calculateNextDueDate(_loanId);\n    }\n\n    function calculateNextDueDate(uint256 _loanId)\n        public\n        view\n        returns (uint32 dueDate_)\n    {\n        Loan storage loan = loans[_loanId];\n        if (loans[_loanId].state != LoanState.ACCEPTED) return dueDate_;\n\n        // Start with the original due date being 1 payment cycle since loan was accepted\n        dueDate_ = loan.loanDetails.acceptedTimestamp + loan.terms.paymentCycle;\n\n        // Calculate the cycle number the last repayment was made\n        uint32 delta = lastRepaidTimestamp(_loanId) -\n            loan.loanDetails.acceptedTimestamp;\n        if (delta > 0) {\n            uint32 repaymentCycle = 1 + (delta / loan.terms.paymentCycle);\n            dueDate_ += (repaymentCycle * loan.terms.paymentCycle);\n        }\n\n        //if we are in the last payment cycle, the next due date is the end of loan duration\n        if (\n            dueDate_ >\n            loan.loanDetails.acceptedTimestamp + loan.loanDetails.loanDuration\n        ) {\n            dueDate_ =\n                loan.loanDetails.acceptedTimestamp +\n                loan.loanDetails.loanDuration;\n        }\n    }\n\n    function repayYourLoan(uint256 _loanId) external {\n        if (loans[_loanId].state != LoanState.ACCEPTED) {\n            revert(\"Loan must be accepted\");\n        }\n        (\n            uint256 owedAmount,\n            uint256 dueAmount,\n            uint256 interest\n        ) = LibCalculations.owedAmount(loans[_loanId], block.timestamp);\n        _repayLoan(\n            _loanId,\n            Payment({principal: dueAmount, interest: interest}),\n            owedAmount + interest\n        );\n        emit repaidAmounts(owedAmount, dueAmount, interest);\n    }\n\n    function viewInstallmentAmount(uint256 _loanId)\n        public\n        view\n        returns (uint256)\n    {\n        if (loans[_loanId].state != LoanState.ACCEPTED) {\n            revert(\"Loan must be accepted\");\n        }\n        (\n            uint256 owedAmount,\n            uint256 dueAmount,\n            uint256 interest\n        ) = LibCalculations.owedAmount(loans[_loanId], block.timestamp);\n\n        uint256 paymentAmount = dueAmount + interest;\n        return paymentAmount;\n    }\n\n    function viewFullRepayAmount(uint256 _loanId)\n        public\n        view\n        returns (uint256)\n    {\n        if (loans[_loanId].state != LoanState.ACCEPTED) {\n            revert(\"Loan must be accepted\");\n        }\n        (\n            uint256 owedAmount,\n            uint256 dueAmount,\n            uint256 interest\n        ) = LibCalculations.owedAmount(loans[_loanId], block.timestamp);\n\n        uint256 paymentAmount = owedAmount + interest;\n        return paymentAmount;\n    }\n\n    function repayFullLoan(uint256 _loanId) external {\n        if (loans[_loanId].state != LoanState.ACCEPTED) {\n            revert(\"Loan must be accepted\");\n        }\n        (uint256 owedPrincipal, , uint256 interest) = LibCalculations\n            .owedAmount(loans[_loanId], block.timestamp);\n        _repayLoan(\n            _loanId,\n            Payment({principal: owedPrincipal, interest: interest}),\n            owedPrincipal + interest\n        );\n    }\n\n    function _repayLoan(\n        uint256 _loanId,\n        Payment memory _payment,\n        uint256 _owedAmount\n    ) internal {\n        Loan storage loan = loans[_loanId];\n        uint256 paymentAmount = _payment.principal + _payment.interest;\n        uint256 poolId_ = loan.poolId;\n        address poolAddress_ = poolRegistry(poolRegistryAddress).getPoolAddress(\n            poolId_\n        );\n\n        // StatusMark status = accountStatus(accountStatusAddress).updateStatus(\n        //     loan.borrower,\n        //     _loanId,\n        //     poolAddress_\n        // );\n\n        // Check if we are sending a payment or amount remaining\n        if (paymentAmount >= _owedAmount) {\n            paymentAmount = _owedAmount;\n            loan.state = LoanState.PAID;\n\n            // Remove borrower's active loan\n            borrowerActiveLoans[loan.borrower].remove(_loanId);\n\n            emit LoanRepaid(_loanId, paymentAmount);\n        } else {\n            emit LoanRepayment(_loanId, paymentAmount);\n        }\n        // Send payment to the lender\n        IERC20(loan.loanDetails.lendingToken).transferFrom(\n            loan.borrower,\n            loan.lender,\n            paymentAmount\n        );\n\n        loan.loanDetails.totalRepaid.principal += _payment.principal;\n        loan.loanDetails.totalRepaid.interest += _payment.interest;\n        loan.loanDetails.lastRepaidTimestamp = uint32(block.timestamp);\n\n        // If the loan is paid in full and has a mark, we should update the current status\n        // if (status != StatusMark.Good) {\n        //     accountStatus(accountStatusAddress).updateStatus(\n        //         loan.borrower,\n        //         _loanId,\n        //         poolAddress_\n        //     );\n        // }\n    }\n}\n",
	"sourcePath": "/Users/sanskarkhare/Desktop/Pandora/aconomy-contract/contracts/poolAddress.sol",
	"compiler": {
		"name": "solc",
		"version": "0.8.11+commit.d7f03943.Emscripten.clang"
	},
	"schemaVersion": "3.4.4",
	"updatedAt": "2023-02-09T06:33:35.361Z",
	"devdoc": {
		"kind": "dev",
		"methods": {},
		"version": 1
	},
	"userdoc": {
		"kind": "user",
		"methods": {},
		"version": 1
	}
}