{
	"contractName": "poolAddress",
	"abi": [
		{
			"inputs": [
				{
					"internalType": "address",
					"name": "_poolRegistry",
					"type": "address"
				},
				{
					"internalType": "address",
					"name": "_AconomyFeeAddress",
					"type": "address"
				},
				{
					"internalType": "address",
					"name": "_accountStatusAddress",
					"type": "address"
				}
			],
			"stateMutability": "nonpayable",
			"type": "constructor"
		},
		{
			"anonymous": false,
			"inputs": [
				{
					"indexed": true,
					"internalType": "uint256",
					"name": "loanId",
					"type": "uint256"
				},
				{
					"indexed": true,
					"internalType": "string",
					"name": "feeType",
					"type": "string"
				},
				{
					"indexed": true,
					"internalType": "uint256",
					"name": "amount",
					"type": "uint256"
				}
			],
			"name": "AcceptedLoanDetail",
			"type": "event"
		},
		{
			"anonymous": false,
			"inputs": [
				{
					"indexed": true,
					"internalType": "uint256",
					"name": "loanId",
					"type": "uint256"
				}
			],
			"name": "LoanRepaid",
			"type": "event"
		},
		{
			"anonymous": false,
			"inputs": [
				{
					"indexed": true,
					"internalType": "uint256",
					"name": "loanId",
					"type": "uint256"
				}
			],
			"name": "LoanRepayment",
			"type": "event"
		},
		{
			"anonymous": false,
			"inputs": [
				{
					"indexed": true,
					"internalType": "uint256",
					"name": "loanId",
					"type": "uint256"
				},
				{
					"indexed": true,
					"internalType": "address",
					"name": "borrower",
					"type": "address"
				},
				{
					"indexed": false,
					"internalType": "address",
					"name": "receiver",
					"type": "address"
				},
				{
					"indexed": false,
					"internalType": "uint256",
					"name": "paymentCycleAmount",
					"type": "uint256"
				}
			],
			"name": "SubmittedLoan",
			"type": "event"
		},
		{
			"anonymous": false,
			"inputs": [
				{
					"indexed": true,
					"internalType": "uint256",
					"name": "loanId",
					"type": "uint256"
				},
				{
					"indexed": true,
					"internalType": "address",
					"name": "lender",
					"type": "address"
				}
			],
			"name": "loanAccepted",
			"type": "event"
		},
		{
			"anonymous": false,
			"inputs": [
				{
					"indexed": false,
					"internalType": "uint256",
					"name": "owedPrincipal",
					"type": "uint256"
				},
				{
					"indexed": false,
					"internalType": "uint256",
					"name": "duePrincipal",
					"type": "uint256"
				},
				{
					"indexed": false,
					"internalType": "uint256",
					"name": "interest",
					"type": "uint256"
				}
			],
			"name": "repaidAmounts",
			"type": "event"
		},
		{
			"inputs": [
				{
					"internalType": "address",
					"name": "",
					"type": "address"
				},
				{
					"internalType": "uint256",
					"name": "",
					"type": "uint256"
				}
			],
			"name": "borrowerLoans",
			"outputs": [
				{
					"internalType": "uint256",
					"name": "",
					"type": "uint256"
				}
			],
			"stateMutability": "view",
			"type": "function"
		},
		{
			"inputs": [
				{
					"internalType": "address",
					"name": "",
					"type": "address"
				},
				{
					"internalType": "address",
					"name": "",
					"type": "address"
				}
			],
			"name": "lenderLendAmount",
			"outputs": [
				{
					"internalType": "uint256",
					"name": "",
					"type": "uint256"
				}
			],
			"stateMutability": "view",
			"type": "function"
		},
		{
			"inputs": [
				{
					"internalType": "uint256",
					"name": "",
					"type": "uint256"
				}
			],
			"name": "loanDefaultDuration",
			"outputs": [
				{
					"internalType": "uint32",
					"name": "",
					"type": "uint32"
				}
			],
			"stateMutability": "view",
			"type": "function"
		},
		{
			"inputs": [
				{
					"internalType": "uint256",
					"name": "",
					"type": "uint256"
				}
			],
			"name": "loanExpirationTime",
			"outputs": [
				{
					"internalType": "uint32",
					"name": "",
					"type": "uint32"
				}
			],
			"stateMutability": "view",
			"type": "function"
		},
		{
			"inputs": [],
			"name": "loanId",
			"outputs": [
				{
					"internalType": "uint256",
					"name": "",
					"type": "uint256"
				}
			],
			"stateMutability": "view",
			"type": "function"
		},
		{
			"inputs": [
				{
					"internalType": "uint256",
					"name": "",
					"type": "uint256"
				}
			],
			"name": "loans",
			"outputs": [
				{
					"internalType": "address",
					"name": "borrower",
					"type": "address"
				},
				{
					"internalType": "address",
					"name": "receiver",
					"type": "address"
				},
				{
					"internalType": "address",
					"name": "lender",
					"type": "address"
				},
				{
					"internalType": "uint256",
					"name": "poolId",
					"type": "uint256"
				},
				{
					"components": [
						{
							"internalType": "contract ERC20",
							"name": "lendingToken",
							"type": "address"
						},
						{
							"internalType": "uint256",
							"name": "principal",
							"type": "uint256"
						},
						{
							"components": [
								{
									"internalType": "uint256",
									"name": "principal",
									"type": "uint256"
								},
								{
									"internalType": "uint256",
									"name": "interest",
									"type": "uint256"
								}
							],
							"internalType": "struct poolStorage.Payment",
							"name": "totalRepaid",
							"type": "tuple"
						},
						{
							"internalType": "uint32",
							"name": "timestamp",
							"type": "uint32"
						},
						{
							"internalType": "uint32",
							"name": "acceptedTimestamp",
							"type": "uint32"
						},
						{
							"internalType": "uint32",
							"name": "lastRepaidTimestamp",
							"type": "uint32"
						},
						{
							"internalType": "uint32",
							"name": "loanDuration",
							"type": "uint32"
						}
					],
					"internalType": "struct poolStorage.LoanDetails",
					"name": "loanDetails",
					"type": "tuple"
				},
				{
					"components": [
						{
							"internalType": "uint256",
							"name": "paymentCycleAmount",
							"type": "uint256"
						},
						{
							"internalType": "uint32",
							"name": "paymentCycle",
							"type": "uint32"
						},
						{
							"internalType": "uint16",
							"name": "APR",
							"type": "uint16"
						}
					],
					"internalType": "struct poolStorage.Terms",
					"name": "terms",
					"type": "tuple"
				},
				{
					"internalType": "enum poolStorage.LoanState",
					"name": "state",
					"type": "uint8"
				}
			],
			"stateMutability": "view",
			"type": "function"
		},
		{
			"inputs": [
				{
					"internalType": "uint256",
					"name": "",
					"type": "uint256"
				}
			],
			"name": "poolLoans",
			"outputs": [
				{
					"internalType": "uint256",
					"name": "",
					"type": "uint256"
				}
			],
			"stateMutability": "view",
			"type": "function"
		},
		{
			"inputs": [
				{
					"internalType": "address",
					"name": "",
					"type": "address"
				}
			],
			"name": "totalERC20Amount",
			"outputs": [
				{
					"internalType": "uint256",
					"name": "",
					"type": "uint256"
				}
			],
			"stateMutability": "view",
			"type": "function"
		},
		{
			"inputs": [
				{
					"internalType": "address",
					"name": "_lendingToken",
					"type": "address"
				},
				{
					"internalType": "uint256",
					"name": "_poolId",
					"type": "uint256"
				},
				{
					"internalType": "uint256",
					"name": "_principal",
					"type": "uint256"
				},
				{
					"internalType": "uint32",
					"name": "_duration",
					"type": "uint32"
				},
				{
					"internalType": "uint16",
					"name": "_APR",
					"type": "uint16"
				},
				{
					"internalType": "address",
					"name": "_receiver",
					"type": "address"
				}
			],
			"name": "loanRequest",
			"outputs": [
				{
					"internalType": "uint256",
					"name": "loanId_",
					"type": "uint256"
				}
			],
			"stateMutability": "nonpayable",
			"type": "function"
		},
		{
			"inputs": [
				{
					"internalType": "uint256",
					"name": "_loanId",
					"type": "uint256"
				}
			],
			"name": "AcceptLoan",
			"outputs": [
				{
					"internalType": "uint256",
					"name": "amountToAconomy",
					"type": "uint256"
				},
				{
					"internalType": "uint256",
					"name": "amountToPool",
					"type": "uint256"
				},
				{
					"internalType": "uint256",
					"name": "amountToBorrower",
					"type": "uint256"
				}
			],
			"stateMutability": "nonpayable",
			"type": "function"
		},
		{
			"inputs": [
				{
					"internalType": "uint256",
					"name": "_loanId",
					"type": "uint256"
				}
			],
			"name": "isLoanExpired",
			"outputs": [
				{
					"internalType": "bool",
					"name": "",
					"type": "bool"
				}
			],
			"stateMutability": "view",
			"type": "function"
		},
		{
			"inputs": [
				{
					"internalType": "uint256",
					"name": "_loanId",
					"type": "uint256"
				}
			],
			"name": "isLoanDefaulted",
			"outputs": [
				{
					"internalType": "bool",
					"name": "",
					"type": "bool"
				}
			],
			"stateMutability": "view",
			"type": "function"
		},
		{
			"inputs": [
				{
					"internalType": "uint256",
					"name": "_loanId",
					"type": "uint256"
				}
			],
			"name": "lastRepaidTimestamp",
			"outputs": [
				{
					"internalType": "uint32",
					"name": "",
					"type": "uint32"
				}
			],
			"stateMutability": "view",
			"type": "function"
		},
		{
			"inputs": [
				{
					"internalType": "uint256",
					"name": "_loanId",
					"type": "uint256"
				}
			],
			"name": "isPaymentLate",
			"outputs": [
				{
					"internalType": "bool",
					"name": "",
					"type": "bool"
				}
			],
			"stateMutability": "view",
			"type": "function"
		},
		{
			"inputs": [
				{
					"internalType": "uint256",
					"name": "_loanId",
					"type": "uint256"
				}
			],
			"name": "calculateNextDueDate",
			"outputs": [
				{
					"internalType": "uint32",
					"name": "dueDate_",
					"type": "uint32"
				}
			],
			"stateMutability": "view",
			"type": "function"
		},
		{
			"inputs": [
				{
					"internalType": "uint256",
					"name": "_loanId",
					"type": "uint256"
				}
			],
			"name": "repayYourLoan",
			"outputs": [],
			"stateMutability": "nonpayable",
			"type": "function"
		},
		{
			"inputs": [
				{
					"internalType": "uint256",
					"name": "_loanId",
					"type": "uint256"
				}
			],
			"name": "repayFullLoan",
			"outputs": [],
			"stateMutability": "nonpayable",
			"type": "function"
		}
	],
	"bytecode": "0x6080604052600080553480156200001557600080fd5b5060405162003d7838038062003d7883398181016040528101906200003b919062000171565b82600960006101000a81548173ffffffffffffffffffffffffffffffffffffffff021916908373ffffffffffffffffffffffffffffffffffffffff16021790555081600a60006101000a81548173ffffffffffffffffffffffffffffffffffffffff021916908373ffffffffffffffffffffffffffffffffffffffff16021790555080600b60006101000a81548173ffffffffffffffffffffffffffffffffffffffff021916908373ffffffffffffffffffffffffffffffffffffffff160217905550505050620001cd565b600080fd5b600073ffffffffffffffffffffffffffffffffffffffff82169050919050565b600062000139826200010c565b9050919050565b6200014b816200012c565b81146200015757600080fd5b50565b6000815190506200016b8162000140565b92915050565b6000806000606084860312156200018d576200018c62000107565b5b60006200019d868287016200015a565b9350506020620001b0868287016200015a565b9250506040620001c3868287016200015a565b9150509250925092565b613b9b80620001dd6000396000f3fe608060405234801561001057600080fd5b506004361061010b5760003560e01c8063706a43c3116100a2578063e1ec3c6811610071578063e1ec3c6814610316578063e3ed19021461034c578063e766a88f1461037c578063e8cbab09146103ae578063fee870e9146103de5761010b565b8063706a43c3146102685780638cda457114610298578063a51e2bad146102c8578063c95669a5146102f85761010b565b806330f2670c116100de57806330f2670c146101a8578063376e4988146101d85780633a31f3371461020857806360c661e6146102385761010b565b8063093f56171461011057806310618223146101405780631c5c1fc7146101705780631e042d1f1461018c575b600080fd5b61012a60048036038101906101259190612a10565b61040e565b6040516101379190612a58565b60405180910390f35b61015a60048036038101906101559190612a10565b610487565b6040516101679190612a58565b60405180910390f35b61018a60048036038101906101859190612a10565b61057f565b005b6101a660048036038101906101a19190612a10565b61065c565b005b6101c260048036038101906101bd9190612ad1565b610778565b6040516101cf9190612b0d565b60405180910390f35b6101f260048036038101906101ed9190612a10565b610790565b6040516101ff9190612b0d565b60405180910390f35b610222600480360381019061021d9190612a10565b6107a8565b60405161022f9190612b47565b60405180910390f35b610252600480360381019061024d9190612bc8565b6107cb565b60405161025f9190612b0d565b60405180910390f35b610282600480360381019061027d9190612a10565b610fe9565b60405161028f9190612b47565b60405180910390f35b6102b260048036038101906102ad9190612a10565b6111c7565b6040516102bf9190612b47565b60405180910390f35b6102e260048036038101906102dd9190612a10565b6111ea565b6040516102ef9190612b47565b60405180910390f35b61030061120e565b60405161030d9190612b0d565b60405180910390f35b610330600480360381019061032b9190612a10565b611214565b6040516103439796959493929190612e67565b60405180910390f35b61036660048036038101906103619190612ed9565b611447565b6040516103739190612b0d565b60405180910390f35b61039660048036038101906103919190612a10565b611478565b6040516103a593929190612f19565b60405180910390f35b6103c860048036038101906103c39190612a10565b61211f565b6040516103d59190612a58565b60405180910390f35b6103f860048036038101906103f39190612f50565b612208565b6040516104059190612b0d565b60405180910390f35b60006002600381111561042457610423612df0565b5b60016000848152602001908152602001600020600b0160009054906101000a900460ff16600381111561045a57610459612df0565b5b146104685760009050610482565b61047182610fe9565b63ffffffff164263ffffffff161190505b919050565b600080600160008481526020019081526020016000209050600060038111156104b3576104b2612df0565b5b81600b0160009054906101000a900460ff1660038111156104d7576104d6612df0565b5b146104e657600091505061057a565b60006007600085815260200190815260200160002060009054906101000a900463ffffffff1663ffffffff16141561052257600091505061057a565b6007600084815260200190815260200160002060009054906101000a900463ffffffff168160040160040160009054906101000a900463ffffffff166105689190612fbf565b63ffffffff164263ffffffff16119150505b919050565b6002600381111561059357610592612df0565b5b60016000838152602001908152602001600020600b0160009054906101000a900460ff1660038111156105c9576105c8612df0565b5b14610609576040517f08c379a000000000000000000000000000000000000000000000000000000000815260040161060090613056565b60405180910390fd5b600080610628600160008581526020019081526020016000204261222d565b92505091506106578360405180604001604052808581526020018481525083856106529190613076565b6122e2565b505050565b600260038111156106705761066f612df0565b5b60016000838152602001908152602001600020600b0160009054906101000a900460ff1660038111156106a6576106a5612df0565b5b146106e6576040517f08c379a00000000000000000000000000000000000000000000000000000000081526004016106dd90613056565b60405180910390fd5b6000806000610707600160008681526020019081526020016000204261222d565b9250925092506107378460405180604001604052808581526020018481525083866107329190613076565b6122e2565b7f193d98b28f4db3258b9a6bc3f7270c0ea85e0a520b3dc0daad9acc7136703d0f83838360405161076a93929190612f19565b60405180910390a150505050565b60046020528060005260406000206000915090505481565b60026020528060005260406000206000915090505481565b60076020528060005260406000206000915054906101000a900463ffffffff1681565b600080600960009054906101000a900473ffffffffffffffffffffffffffffffffffffffff1673ffffffffffffffffffffffffffffffffffffffff1663918d59ea88336040518363ffffffff1660e01b815260040161082b9291906130cc565b6040805180830381865afa158015610847573d6000803e3d6000fd5b505050506040513d601f19601f8201168201806040525081019061086b9190613157565b509050806108ae576040517f08c379a00000000000000000000000000000000000000000000000000000000081526004016108a5906131e3565b60405180910390fd5b600960009054906101000a900473ffffffffffffffffffffffffffffffffffffffff1673ffffffffffffffffffffffffffffffffffffffff1663a8380df1886040518263ffffffff1660e01b81526004016109099190612b0d565b602060405180830381865afa158015610926573d6000803e3d6000fd5b505050506040513d601f19601f8201168201806040525081019061094a9190613203565b1561098a576040517f08c379a00000000000000000000000000000000000000000000000000000000081526004016109819061327c565b60405180910390fd5b6000549150816002600089815260200190815260200160002081905550600060016000805481526020019081526020016000209050338160000160006101000a81548173ffffffffffffffffffffffffffffffffffffffff021916908373ffffffffffffffffffffffffffffffffffffffff160217905550600073ffffffffffffffffffffffffffffffffffffffff168473ffffffffffffffffffffffffffffffffffffffff161415610a61578060000160009054906101000a900473ffffffffffffffffffffffffffffffffffffffff16610a63565b835b8160010160006101000a81548173ffffffffffffffffffffffffffffffffffffffff021916908373ffffffffffffffffffffffffffffffffffffffff160217905550878160030181905550888160040160000160006101000a81548173ffffffffffffffffffffffffffffffffffffffff021916908373ffffffffffffffffffffffffffffffffffffffff1602179055508681600401600101819055508581600401600401600c6101000a81548163ffffffff021916908363ffffffff160217905550428160040160040160006101000a81548163ffffffff021916908363ffffffff160217905550600960009054906101000a900473ffffffffffffffffffffffffffffffffffffffff1673ffffffffffffffffffffffffffffffffffffffff1663805deb53896040518263ffffffff1660e01b8152600401610ba79190612b0d565b602060405180830381865afa158015610bc4573d6000803e3d6000fd5b505050506040513d601f19601f82011682018060405250810190610be891906132b1565b8160090160010160006101000a81548163ffffffff021916908363ffffffff160217905550848160090160010160046101000a81548161ffff021916908361ffff160217905550600960009054906101000a900473ffffffffffffffffffffffffffffffffffffffff1673ffffffffffffffffffffffffffffffffffffffff166311bed5bb896040518263ffffffff1660e01b8152600401610c8a9190612b0d565b602060405180830381865afa158015610ca7573d6000803e3d6000fd5b505050506040513d601f19601f82011682018060405250810190610ccb91906132b1565b600660008054815260200190815260200160002060006101000a81548163ffffffff021916908363ffffffff160217905550600960009054906101000a900473ffffffffffffffffffffffffffffffffffffffff1673ffffffffffffffffffffffffffffffffffffffff1663c28ba8eb896040518263ffffffff1660e01b8152600401610d589190612b0d565b602060405180830381865afa158015610d75573d6000803e3d6000fd5b505050506040513d601f19601f82011682018060405250810190610d9991906132b1565b600760008054815260200190815260200160002060006101000a81548163ffffffff021916908363ffffffff16021790555073__LibCalculations_______________________632872a88788888460090160010160009054906101000a900463ffffffff16896040518563ffffffff1660e01b8152600401610e1f949392919061330b565b602060405180830381865af4158015610e3c573d6000803e3d6000fd5b505050506040513d601f19601f82011682018060405250810190610e609190613365565b8160090160000181905550600081600b0160006101000a81548160ff02191690836003811115610e9357610e92612df0565b5b02179055508060000160009054906101000a900473ffffffffffffffffffffffffffffffffffffffff1673ffffffffffffffffffffffffffffffffffffffff166000547f20669ac1da79ef826aa0f4e5e5b00ae0f2ed6e7c6eceb274c6fb43976204217e8360010160009054906101000a900473ffffffffffffffffffffffffffffffffffffffff168460090160000154604051610f32929190613392565b60405180910390a3600560008260000160009054906101000a900473ffffffffffffffffffffffffffffffffffffffff1673ffffffffffffffffffffffffffffffffffffffff1673ffffffffffffffffffffffffffffffffffffffff1681526020019081526020016000206000549080600181540180825580915050600190039060005260206000200160009091909190915055600080815480929190610fd8906133bb565b919050555050509695505050505050565b6000806001600084815260200190815260200160002090506002600381111561101557611014612df0565b5b60016000858152602001908152602001600020600b0160009054906101000a900460ff16600381111561104b5761104a612df0565b5b1461105657506111c2565b8060090160010160009054906101000a900463ffffffff168160040160040160049054906101000a900463ffffffff166110909190612fbf565b915060008160040160040160049054906101000a900463ffffffff166110b5856111ea565b6110bf9190613404565b905060008163ffffffff1611156111355760008260090160010160009054906101000a900463ffffffff16826110f59190613467565b60016111019190612fbf565b90508260090160010160009054906101000a900463ffffffff16816111269190613498565b846111319190612fbf565b9350505b81600401600401600c9054906101000a900463ffffffff168260040160040160049054906101000a900463ffffffff1661116f9190612fbf565b63ffffffff168363ffffffff1611156111bf5781600401600401600c9054906101000a900463ffffffff168260040160040160049054906101000a900463ffffffff166111bc9190612fbf565b92505b50505b919050565b60066020528060005260406000206000915054906101000a900463ffffffff1681565b60006112076001600084815260200190815260200160002061262f565b9050919050565b60005481565b60016020528060005260406000206000915090508060000160009054906101000a900473ffffffffffffffffffffffffffffffffffffffff16908060010160009054906101000a900473ffffffffffffffffffffffffffffffffffffffff16908060020160009054906101000a900473ffffffffffffffffffffffffffffffffffffffff1690806003015490806004016040518060e00160405290816000820160009054906101000a900473ffffffffffffffffffffffffffffffffffffffff1673ffffffffffffffffffffffffffffffffffffffff1673ffffffffffffffffffffffffffffffffffffffff16815260200160018201548152602001600282016040518060400160405290816000820154815260200160018201548152505081526020016004820160009054906101000a900463ffffffff1663ffffffff1663ffffffff1681526020016004820160049054906101000a900463ffffffff1663ffffffff1663ffffffff1681526020016004820160089054906101000a900463ffffffff1663ffffffff1663ffffffff16815260200160048201600c9054906101000a900463ffffffff1663ffffffff1663ffffffff16815250509080600901604051806060016040529081600082015481526020016001820160009054906101000a900463ffffffff1663ffffffff1663ffffffff1681526020016001820160049054906101000a900461ffff1661ffff1661ffff16815250509080600b0160009054906101000a900460ff16905087565b6005602052816000526040600020818154811061146357600080fd5b90600052602060002001600091509150505481565b6000806000836000600381111561149257611491612df0565b5b60016000838152602001908152602001600020600b0160009054906101000a900460ff1660038111156114c8576114c7612df0565b5b14611508576040517f08c379a00000000000000000000000000000000000000000000000000000000081526004016114ff90613522565b60405180910390fd5b60006001600087815260200190815260200160002090506000600960009054906101000a900473ffffffffffffffffffffffffffffffffffffffff1673ffffffffffffffffffffffffffffffffffffffff1663cf6539208360030154336040518363ffffffff1660e01b81526004016115829291906130cc565b6040805180830381865afa15801561159e573d6000803e3d6000fd5b505050506040513d601f19601f820116820180604052508101906115c29190613157565b50905080611605576040517f08c379a00000000000000000000000000000000000000000000000000000000081526004016115fc9061358e565b60405180910390fd5b600960009054906101000a900473ffffffffffffffffffffffffffffffffffffffff1673ffffffffffffffffffffffffffffffffffffffff1663a8380df183600301546040518263ffffffff1660e01b81526004016116649190612b0d565b602060405180830381865afa158015611681573d6000803e3d6000fd5b505050506040513d601f19601f820116820180604052508101906116a59190613203565b156116e5576040517f08c379a00000000000000000000000000000000000000000000000000000000081526004016116dc9061327c565b60405180910390fd5b6116ee87610487565b1561172e576040517f08c379a0000000000000000000000000000000000000000000000000000000008152600401611725906135fa565b60405180910390fd5b428260040160040160046101000a81548163ffffffff021916908363ffffffff160217905550428260040160040160086101000a81548163ffffffff021916908363ffffffff160217905550600282600b0160006101000a81548160ff021916908360038111156117a2576117a1612df0565b5b0217905550338260020160006101000a81548173ffffffffffffffffffffffffffffffffffffffff021916908373ffffffffffffffffffffffffffffffffffffffff16021790555073__LibCalculations_______________________633fb340038360040160010154600a60009054906101000a900473ffffffffffffffffffffffffffffffffffffffff1673ffffffffffffffffffffffffffffffffffffffff1663b0e21e8a6040518163ffffffff1660e01b8152600401602060405180830381865afa158015611879573d6000803e3d6000fd5b505050506040513d601f19601f8201168201806040525081019061189d919061362f565b6040518363ffffffff1660e01b81526004016118ba92919061365c565b602060405180830381865af41580156118d7573d6000803e3d6000fd5b505050506040513d601f19601f820116820180604052508101906118fb9190613365565b955073__LibCalculations_______________________633fb340038360040160010154600960009054906101000a900473ffffffffffffffffffffffffffffffffffffffff1673ffffffffffffffffffffffffffffffffffffffff1663635f1e4d86600301546040518263ffffffff1660e01b815260040161197e9190612b0d565b602060405180830381865afa15801561199b573d6000803e3d6000fd5b505050506040513d601f19601f820116820180604052508101906119bf919061362f565b6040518363ffffffff1660e01b81526004016119dc92919061365c565b602060405180830381865af41580156119f9573d6000803e3d6000fd5b505050506040513d601f19601f82011682018060405250810190611a1d9190613365565b945084868360040160010154611a339190613685565b611a3d9190613685565b935060008614611ba4578160040160000160009054906101000a900473ffffffffffffffffffffffffffffffffffffffff1673ffffffffffffffffffffffffffffffffffffffff166323b872dd8360020160009054906101000a900473ffffffffffffffffffffffffffffffffffffffff16600a60009054906101000a900473ffffffffffffffffffffffffffffffffffffffff1673ffffffffffffffffffffffffffffffffffffffff16634dd9ccb16040518163ffffffff1660e01b8152600401602060405180830381865afa158015611b1c573d6000803e3d6000fd5b505050506040513d601f19601f82011682018060405250810190611b4091906136ce565b896040518463ffffffff1660e01b8152600401611b5f939291906136fb565b6020604051808303816000875af1158015611b7e573d6000803e3d6000fd5b505050506040513d601f19601f82011682018060405250810190611ba29190613203565b505b60008514611d18578160040160000160009054906101000a900473ffffffffffffffffffffffffffffffffffffffff1673ffffffffffffffffffffffffffffffffffffffff166323b872dd8360020160009054906101000a900473ffffffffffffffffffffffffffffffffffffffff16600960009054906101000a900473ffffffffffffffffffffffffffffffffffffffff1673ffffffffffffffffffffffffffffffffffffffff16636e34b4e486600301546040518263ffffffff1660e01b8152600401611c739190612b0d565b602060405180830381865afa158015611c90573d6000803e3d6000fd5b505050506040513d601f19601f82011682018060405250810190611cb491906136ce565b886040518463ffffffff1660e01b8152600401611cd3939291906136fb565b6020604051808303816000875af1158015611cf2573d6000803e3d6000fd5b505050506040513d601f19601f82011682018060405250810190611d169190613203565b505b8160040160000160009054906101000a900473ffffffffffffffffffffffffffffffffffffffff1673ffffffffffffffffffffffffffffffffffffffff166323b872dd8360020160009054906101000a900473ffffffffffffffffffffffffffffffffffffffff168460000160009054906101000a900473ffffffffffffffffffffffffffffffffffffffff16876040518463ffffffff1660e01b8152600401611dc4939291906136fb565b6020604051808303816000875af1158015611de3573d6000803e3d6000fd5b505050506040513d601f19601f82011682018060405250810190611e079190613203565b508160040160010154600860008460040160000160009054906101000a900473ffffffffffffffffffffffffffffffffffffffff1673ffffffffffffffffffffffffffffffffffffffff1673ffffffffffffffffffffffffffffffffffffffff16815260200190815260200160002060008460020160009054906101000a900473ffffffffffffffffffffffffffffffffffffffff1673ffffffffffffffffffffffffffffffffffffffff1673ffffffffffffffffffffffffffffffffffffffff1681526020019081526020016000206000828254611ee69190613076565b925050819055508160040160010154600460008460040160000160009054906101000a900473ffffffffffffffffffffffffffffffffffffffff1673ffffffffffffffffffffffffffffffffffffffff1673ffffffffffffffffffffffffffffffffffffffff1681526020019081526020016000206000828254611f6a9190613076565b92505081905550611fe687600360008560000160009054906101000a900473ffffffffffffffffffffffffffffffffffffffff1673ffffffffffffffffffffffffffffffffffffffff1673ffffffffffffffffffffffffffffffffffffffff16815260200190815260200160002061269290919063ffffffff16565b508160020160009054906101000a900473ffffffffffffffffffffffffffffffffffffffff1673ffffffffffffffffffffffffffffffffffffffff16877fc175daba6d0afff1f048fc218620bf5012c03afa26af397bacbf30f7341d343060405160405180910390a38560405161205c90613789565b6040518091039020887f9d2e18d1e551e6728496dd39a969d9fe809fe60c0c8c9cabfda8be718e5387cf60405160405180910390a48460405161209e906137ea565b6040518091039020887f9d2e18d1e551e6728496dd39a969d9fe809fe60c0c8c9cabfda8be718e5387cf60405160405180910390a4836040516120e09061384b565b6040518091039020887f9d2e18d1e551e6728496dd39a969d9fe809fe60c0c8c9cabfda8be718e5387cf60405160405180910390a45050509193909250565b6000806001600084815260200190815260200160002090506002600381111561214b5761214a612df0565b5b81600b0160009054906101000a900460ff16600381111561216f5761216e612df0565b5b1461217e576000915050612203565b60006006600085815260200190815260200160002060009054906101000a900463ffffffff1663ffffffff1614156121ba576000915050612203565b6006600084815260200190815260200160002060009054906101000a900463ffffffff1663ffffffff166121ed846111ea565b426121f89190613404565b63ffffffff16119150505b919050565b6008602052816000526040600020602052806000526040600020600091509150505481565b60008060006122d5856004016001015486600401600201600001548760090160010160049054906101000a900461ffff1688600901600001548960090160010160009054906101000a900463ffffffff1663ffffffff1661228d8b61262f565b63ffffffff168a8c60040160040160049054906101000a900463ffffffff1663ffffffff168d600401600401600c9054906101000a900463ffffffff1663ffffffff166126ac565b9250925092509250925092565b600060016000858152602001908152602001600020905060008360200151846000015161230f9190613076565b90506000826003015490506000600960009054906101000a900473ffffffffffffffffffffffffffffffffffffffff1673ffffffffffffffffffffffffffffffffffffffff1662a5ae21836040518263ffffffff1660e01b81526004016123769190612b0d565b602060405180830381865afa158015612393573d6000803e3d6000fd5b505050506040513d601f19601f820116820180604052508101906123b791906136ce565b905084831061249857849250600384600b0160006101000a81548160ff021916908360038111156123eb576123ea612df0565b5b021790555061246587600360008760000160009054906101000a900473ffffffffffffffffffffffffffffffffffffffff1673ffffffffffffffffffffffffffffffffffffffff1673ffffffffffffffffffffffffffffffffffffffff16815260200190815260200160002061279590919063ffffffff16565b50867f9a7851747cd7ffb3fe0a32caf3da48b31f27cebe131267051640f8b72fc4718660405160405180910390a26124c6565b867f68ca97895fe2d09eab47e752271728ade667e72dda27e68c20eaa191a9c2187d60405160405180910390a25b8360040160000160009054906101000a900473ffffffffffffffffffffffffffffffffffffffff1673ffffffffffffffffffffffffffffffffffffffff166323b872dd8560000160009054906101000a900473ffffffffffffffffffffffffffffffffffffffff168660020160009054906101000a900473ffffffffffffffffffffffffffffffffffffffff16866040518463ffffffff1660e01b8152600401612572939291906136fb565b6020604051808303816000875af1158015612591573d6000803e3d6000fd5b505050506040513d601f19601f820116820180604052508101906125b59190613203565b5085600001518460040160020160000160008282546125d49190613076565b9250508190555085602001518460040160020160010160008282546125f99190613076565b92505081905550428460040160040160086101000a81548163ffffffff021916908363ffffffff16021790555050505050505050565b6000808260040160040160089054906101000a900463ffffffff1663ffffffff1614612672578160040160040160089054906101000a900463ffffffff1661268b565b8160040160040160049054906101000a900463ffffffff165b9050919050565b60006126a4836000018360001b6127af565b905092915050565b60008060008a8c6126bd9190613685565b925060006126cb848c61281f565b9050600088886126db9190613685565b90506301e1338081836126ee9190613860565b6126f891906138ba565b92506000878961270891906138f5565b8761271391906138f5565b905060008b82128061273057508c858861272d9190613076565b11155b905060008161273f578d61274c565b858861274b9190613076565b5b905060008d858361275d9190613860565b61276791906138ba565b905061277e87826127789190613685565b8a612839565b975050505050505099509950999650505050505050565b60006127a7836000018360001b612852565b905092915050565b60006127bb8383612966565b612814578260000182908060018154018082558091505060019003906000526020600020016000909190919091505582600001805490508360010160008481526020019081526020016000208190555060019050612819565b600090505b92915050565b6000612831838361ffff166002612989565b905092915050565b6000818310612848578161284a565b825b905092915050565b6000808360010160008481526020019081526020016000205490506000811461295a5760006001826128849190613685565b905060006001866000018054905061289c9190613685565b905081811461290b5760008660000182815481106128bd576128bc613989565b5b90600052602060002001549050808760000184815481106128e1576128e0613989565b5b90600052602060002001819055508387600101600083815260200190815260200160002081905550505b8560000180548061291f5761291e6139b8565b5b600190038181906000526020600020016000905590558560010160008681526020019081526020016000206000905560019350505050612960565b60009150505b92915050565b600080836001016000848152602001908152602001600020541415905092915050565b6000612994826129b3565b83856129a09190613860565b6129aa91906138ba565b90509392505050565b600081600a6129c29190613b1a565b60646129ce9190613860565b9050919050565b600080fd5b6000819050919050565b6129ed816129da565b81146129f857600080fd5b50565b600081359050612a0a816129e4565b92915050565b600060208284031215612a2657612a256129d5565b5b6000612a34848285016129fb565b91505092915050565b60008115159050919050565b612a5281612a3d565b82525050565b6000602082019050612a6d6000830184612a49565b92915050565b600073ffffffffffffffffffffffffffffffffffffffff82169050919050565b6000612a9e82612a73565b9050919050565b612aae81612a93565b8114612ab957600080fd5b50565b600081359050612acb81612aa5565b92915050565b600060208284031215612ae757612ae66129d5565b5b6000612af584828501612abc565b91505092915050565b612b07816129da565b82525050565b6000602082019050612b226000830184612afe565b92915050565b600063ffffffff82169050919050565b612b4181612b28565b82525050565b6000602082019050612b5c6000830184612b38565b92915050565b612b6b81612b28565b8114612b7657600080fd5b50565b600081359050612b8881612b62565b92915050565b600061ffff82169050919050565b612ba581612b8e565b8114612bb057600080fd5b50565b600081359050612bc281612b9c565b92915050565b60008060008060008060c08789031215612be557612be46129d5565b5b6000612bf389828a01612abc565b9650506020612c0489828a016129fb565b9550506040612c1589828a016129fb565b9450506060612c2689828a01612b79565b9350506080612c3789828a01612bb3565b92505060a0612c4889828a01612abc565b9150509295509295509295565b612c5e81612a93565b82525050565b6000819050919050565b6000612c89612c84612c7f84612a73565b612c64565b612a73565b9050919050565b6000612c9b82612c6e565b9050919050565b6000612cad82612c90565b9050919050565b612cbd81612ca2565b82525050565b612ccc816129da565b82525050565b604082016000820151612ce86000850182612cc3565b506020820151612cfb6020850182612cc3565b50505050565b612d0a81612b28565b82525050565b61010082016000820151612d276000850182612cb4565b506020820151612d3a6020850182612cc3565b506040820151612d4d6040850182612cd2565b506060820151612d606080850182612d01565b506080820151612d7360a0850182612d01565b5060a0820151612d8660c0850182612d01565b5060c0820151612d9960e0850182612d01565b50505050565b612da881612b8e565b82525050565b606082016000820151612dc46000850182612cc3565b506020820151612dd76020850182612d01565b506040820151612dea6040850182612d9f565b50505050565b7f4e487b7100000000000000000000000000000000000000000000000000000000600052602160045260246000fd5b60048110612e3057612e2f612df0565b5b50565b6000819050612e4182612e1f565b919050565b6000612e5182612e33565b9050919050565b612e6181612e46565b82525050565b600061020082019050612e7d600083018a612c55565b612e8a6020830189612c55565b612e976040830188612c55565b612ea46060830187612afe565b612eb16080830186612d10565b612ebf610180830185612dae565b612ecd6101e0830184612e58565b98975050505050505050565b60008060408385031215612ef057612eef6129d5565b5b6000612efe85828601612abc565b9250506020612f0f858286016129fb565b9150509250929050565b6000606082019050612f2e6000830186612afe565b612f3b6020830185612afe565b612f486040830184612afe565b949350505050565b60008060408385031215612f6757612f666129d5565b5b6000612f7585828601612abc565b9250506020612f8685828601612abc565b9150509250929050565b7f4e487b7100000000000000000000000000000000000000000000000000000000600052601160045260246000fd5b6000612fca82612b28565b9150612fd583612b28565b92508263ffffffff03821115612fee57612fed612f90565b5b828201905092915050565b600082825260208201905092915050565b7f4c6f616e206d7573742062652061636365707465640000000000000000000000600082015250565b6000613040601583612ff9565b915061304b8261300a565b602082019050919050565b6000602082019050818103600083015261306f81613033565b9050919050565b6000613081826129da565b915061308c836129da565b9250827fffffffffffffffffffffffffffffffffffffffffffffffffffffffffffffffff038211156130c1576130c0612f90565b5b828201905092915050565b60006040820190506130e16000830185612afe565b6130ee6020830184612c55565b9392505050565b6130fe81612a3d565b811461310957600080fd5b50565b60008151905061311b816130f5565b92915050565b6000819050919050565b61313481613121565b811461313f57600080fd5b50565b6000815190506131518161312b565b92915050565b6000806040838503121561316e5761316d6129d5565b5b600061317c8582860161310c565b925050602061318d85828601613142565b9150509250929050565b7f4e6f7420766572696669656420626f72726f7765720000000000000000000000600082015250565b60006131cd601583612ff9565b91506131d882613197565b602082019050919050565b600060208201905081810360008301526131fc816131c0565b9050919050565b600060208284031215613219576132186129d5565b5b60006132278482850161310c565b91505092915050565b7f506f6f6c20697320636c6f736564000000000000000000000000000000000000600082015250565b6000613266600e83612ff9565b915061327182613230565b602082019050919050565b6000602082019050818103600083015261329581613259565b9050919050565b6000815190506132ab81612b62565b92915050565b6000602082840312156132c7576132c66129d5565b5b60006132d58482850161329c565b91505092915050565b6132e7816129da565b82525050565b6132f681612b28565b82525050565b61330581612b8e565b82525050565b600060808201905061332060008301876132de565b61332d60208301866132ed565b61333a60408301856132ed565b61334760608301846132fc565b95945050505050565b60008151905061335f816129e4565b92915050565b60006020828403121561337b5761337a6129d5565b5b600061338984828501613350565b91505092915050565b60006040820190506133a76000830185612c55565b6133b46020830184612afe565b9392505050565b60006133c6826129da565b91507fffffffffffffffffffffffffffffffffffffffffffffffffffffffffffffffff8214156133f9576133f8612f90565b5b600182019050919050565b600061340f82612b28565b915061341a83612b28565b92508282101561342d5761342c612f90565b5b828203905092915050565b7f4e487b7100000000000000000000000000000000000000000000000000000000600052601260045260246000fd5b600061347282612b28565b915061347d83612b28565b92508261348d5761348c613438565b5b828204905092915050565b60006134a382612b28565b91506134ae83612b28565b92508163ffffffff04831182151516156134cb576134ca612f90565b5b828202905092915050565b7f4c6f616e206d7573742062652070656e64696e67000000000000000000000000600082015250565b600061350c601483612ff9565b9150613517826134d6565b602082019050919050565b6000602082019050818103600083015261353b816134ff565b9050919050565b7f4e6f74207665726966696564206c656e64657200000000000000000000000000600082015250565b6000613578601383612ff9565b915061358382613542565b602082019050919050565b600060208201905081810360008301526135a78161356b565b9050919050565b7f4c6f616e20686173206578706972656400000000000000000000000000000000600082015250565b60006135e4601083612ff9565b91506135ef826135ae565b602082019050919050565b60006020820190508181036000830152613613816135d7565b9050919050565b60008151905061362981612b9c565b92915050565b600060208284031215613645576136446129d5565b5b60006136538482850161361a565b91505092915050565b600060408201905061367160008301856132de565b61367e60208301846132fc565b9392505050565b6000613690826129da565b915061369b836129da565b9250828210156136ae576136ad612f90565b5b828203905092915050565b6000815190506136c881612aa5565b92915050565b6000602082840312156136e4576136e36129d5565b5b60006136f2848285016136b9565b91505092915050565b60006060820190506137106000830186612c55565b61371d6020830185612c55565b61372a6040830184612afe565b949350505050565b600081905092915050565b7f70726f746f636f6c000000000000000000000000000000000000000000000000600082015250565b6000613773600883613732565b915061377e8261373d565b600882019050919050565b600061379482613766565b9150819050919050565b7f506f6f6c00000000000000000000000000000000000000000000000000000000600082015250565b60006137d4600483613732565b91506137df8261379e565b600482019050919050565b60006137f5826137c7565b9150819050919050565b7f426f72726f776572000000000000000000000000000000000000000000000000600082015250565b6000613835600883613732565b9150613840826137ff565b600882019050919050565b600061385682613828565b9150819050919050565b600061386b826129da565b9150613876836129da565b9250817fffffffffffffffffffffffffffffffffffffffffffffffffffffffffffffffff04831182151516156138af576138ae612f90565b5b828202905092915050565b60006138c5826129da565b91506138d0836129da565b9250826138e0576138df613438565b5b828204905092915050565b6000819050919050565b6000613900826138eb565b915061390b836138eb565b9250827f80000000000000000000000000000000000000000000000000000000000000000182126000841215161561394657613945612f90565b5b827f7fffffffffffffffffffffffffffffffffffffffffffffffffffffffffffffff01821360008412161561397e5761397d612f90565b5b828203905092915050565b7f4e487b7100000000000000000000000000000000000000000000000000000000600052603260045260246000fd5b7f4e487b7100000000000000000000000000000000000000000000000000000000600052603160045260246000fd5b60008160011c9050919050565b6000808291508390505b6001851115613a3e57808604811115613a1a57613a19612f90565b5b6001851615613a295780820291505b8081029050613a37856139e7565b94506139fe565b94509492505050565b600082613a575760019050613b13565b81613a655760009050613b13565b8160018114613a7b5760028114613a8557613ab4565b6001915050613b13565b60ff841115613a9757613a96612f90565b5b8360020a915084821115613aae57613aad612f90565b5b50613b13565b5060208310610133831016604e8410600b8410161715613ae95782820a905083811115613ae457613ae3612f90565b5b613b13565b613af684848460016139f4565b92509050818404811115613b0d57613b0c612f90565b5b81810290505b9392505050565b6000613b25826129da565b9150613b30836129da565b9250613b5d7fffffffffffffffffffffffffffffffffffffffffffffffffffffffffffffffff8484613a47565b90509291505056fea26469706673582212208bf1e59ca31fbf2a88ad204383acf5873cbdb61f49fda99bfc38867d5d9629ba64736f6c634300080b0033",
	"immutableReferences": {},
	"source": "// SPDX-License-Identifier: MIT\npragma solidity >=0.4.22 <0.9.0;\n\nimport \"@openzeppelin/contracts/token/ERC20/IERC20.sol\";\nimport \"@openzeppelin/contracts/utils/Counters.sol\";\nimport {SafeMath} from \"@openzeppelin/contracts/utils/math/SafeMath.sol\";\nimport {EnumerableSet} from \"@openzeppelin/contracts/utils/structs/EnumerableSet.sol\";\nimport \"@openzeppelin/contracts/token/ERC721/extensions/ERC721URIStorage.sol\";\nimport \"./poolRegistry.sol\";\nimport \"./poolStorage.sol\";\nimport \"./AconomyFee.sol\";\nimport \"./accountStatus.sol\";\nimport \"./Libraries/LibCalculations.sol\";\nimport \"./interfaces/IaccountStatus.sol\";\n\nimport \"@openzeppelin/contracts/utils/Address.sol\";\nimport \"@openzeppelin/contracts/utils/math/Math.sol\";\nimport \"@openzeppelin/contracts/token/ERC20/utils/SafeERC20.sol\";\n\n\ncontract poolAddress is poolStorage {\n    address poolRegistryAddress;\n    address AconomyFeeAddress;\n    address accountStatusAddress;\n\n    using SafeMath for uint256;\n    using EnumerableSet for EnumerableSet.UintSet;\n\n    constructor(\n        address _poolRegistry,\n        address _AconomyFeeAddress,\n        address _accountStatusAddress\n    ) {\n        poolRegistryAddress = _poolRegistry;\n        AconomyFeeAddress = _AconomyFeeAddress;\n        accountStatusAddress = _accountStatusAddress;\n    }\n\n    modifier pendingLoan(uint256 _loanId) {\n        if (loans[_loanId].state != LoanState.PENDING) {\n            revert(\"Loan must be pending\");\n        }\n        _;\n    }\n\n    modifier onlyPoolOwner(uint256 poolId) {\n        require(\n            msg.sender == poolRegistry(poolRegistryAddress).getPoolOwner(poolId)\n        );\n        _;\n    }\n\n    event loanAccepted(uint256 indexed loanId, address indexed lender);\n\n    event repaidAmounts(\n        uint256 owedPrincipal,\n        uint256 duePrincipal,\n        uint256 interest\n    );\n    event AcceptedLoanDetail(\n        uint256 indexed loanId,\n        string indexed feeType,\n        uint256 indexed amount\n    );\n\n    event LoanRepaid(uint256 indexed loanId);\n    event LoanRepayment(uint256 indexed loanId);\n\n    event SubmittedLoan(\n        uint256 indexed loanId,\n        address indexed borrower,\n        address receiver,\n        uint256 paymentCycleAmount\n    );\n\n    function loanRequest(\n        address _lendingToken,\n        uint256 _poolId,\n        uint256 _principal,\n        uint32 _duration,\n        uint16 _APR,\n        address _receiver\n    ) public returns (uint256 loanId_) {\n        (bool isVerified, ) = poolRegistry(poolRegistryAddress)\n            .borrowerVarification(_poolId, msg.sender);\n        require(isVerified, \"Not verified borrower\");\n        require(\n            !poolRegistry(poolRegistryAddress).ClosedPool(_poolId),\n            \"Pool is closed\"\n        );\n\n        loanId_ = loanId;\n\n        poolLoans[_poolId] = loanId_;\n\n        // Create and store our loan into the mapping\n        Loan storage loan = loans[loanId];\n        loan.borrower = msg.sender;\n        loan.receiver = _receiver != address(0) ? _receiver : loan.borrower;\n        loan.poolId = _poolId;\n        loan.loanDetails.lendingToken = ERC20(_lendingToken);\n        loan.loanDetails.principal = _principal;\n        loan.loanDetails.loanDuration = _duration;\n        loan.loanDetails.timestamp = uint32(block.timestamp);\n\n        loan.terms.paymentCycle = poolRegistry(poolRegistryAddress)\n            .getPaymentCycleDuration(_poolId);\n\n        loan.terms.APR = _APR;\n\n        loanDefaultDuration[loanId] = poolRegistry(poolRegistryAddress)\n            .getPaymentDefaultDuration(_poolId);\n\n        loanExpirationTime[loanId] = poolRegistry(poolRegistryAddress)\n            .getloanExpirationTime(_poolId);\n\n        loan.terms.paymentCycleAmount = LibCalculations.payment(\n            _principal,\n            _duration,\n            loan.terms.paymentCycle,\n            _APR\n        );\n\n        loan.state = LoanState.PENDING;\n\n        emit SubmittedLoan(\n            loanId,\n            loan.borrower,\n            loan.receiver,\n            loan.terms.paymentCycleAmount\n        );\n\n        // Store loan inside borrower loans mapping\n        borrowerLoans[loan.borrower].push(loanId);\n\n        // Increment loan id\n        loanId++;\n    }\n\n    function AcceptLoan(uint256 _loanId)\n        external\n        pendingLoan(_loanId)\n        returns (\n            uint256 amountToAconomy,\n            uint256 amountToPool,\n            uint256 amountToBorrower\n        )\n    {\n        Loan storage loan = loans[_loanId];\n\n        (bool isVerified, ) = poolRegistry(poolRegistryAddress)\n            .lenderVarification(loan.poolId, msg.sender);\n\n        require(isVerified, \"Not verified lender\");\n        require(\n            !poolRegistry(poolRegistryAddress).ClosedPool(loan.poolId),\n            \"Pool is closed\"\n        );\n        require(!isLoanExpired(_loanId), \"Loan has expired\");\n\n        loan.loanDetails.acceptedTimestamp = uint32(block.timestamp);\n        loan.loanDetails.lastRepaidTimestamp = uint32(block.timestamp);\n\n        loan.state = LoanState.ACCEPTED;\n\n        loan.lender = msg.sender;\n\n        //Aconomy Fee\n        amountToAconomy = LibCalculations.percent(\n            loan.loanDetails.principal,\n            AconomyFee(AconomyFeeAddress).protocolFee()\n        );\n\n        //Pool Fee\n        amountToPool = LibCalculations.percent(\n            loan.loanDetails.principal,\n            poolRegistry(poolRegistryAddress).getPoolFee(loan.poolId)\n        );\n\n        //Amount to Borrower\n        amountToBorrower =\n            loan.loanDetails.principal -\n            amountToAconomy -\n            amountToPool;\n\n        //Transfer Aconomy Fee\n        if (amountToAconomy != 0) {\n            IERC20(loan.loanDetails.lendingToken).transferFrom(\n                loan.lender,\n                AconomyFee(AconomyFeeAddress).getAconomyOwnerAddress(),\n                amountToAconomy\n            );\n        }\n\n        //Transfer to Pool Owner\n        if (amountToPool != 0) {\n            IERC20(loan.loanDetails.lendingToken).transferFrom(\n                loan.lender,\n                poolRegistry(poolRegistryAddress).getPoolOwner(loan.poolId),\n                amountToPool\n            );\n        }\n\n        //transfer funds to borrower\n        IERC20(loan.loanDetails.lendingToken).transferFrom(\n            loan.lender,\n            loan.borrower,\n            amountToBorrower\n        );\n\n        // Record Amount filled by lenders\n        lenderLendAmount[address(loan.loanDetails.lendingToken)][\n            loan.lender\n        ] += loan.loanDetails.principal;\n        totalERC20Amount[address(loan.loanDetails.lendingToken)] += loan\n            .loanDetails\n            .principal;\n\n        // Store Borrower's active loan\n        borrowerActiveLoans[loan.borrower].add(_loanId);\n\n        emit loanAccepted(_loanId, loan.lender);\n\n        emit AcceptedLoanDetail(_loanId, \"protocol\", amountToAconomy);\n        emit AcceptedLoanDetail(_loanId, \"Pool\", amountToPool);\n        emit AcceptedLoanDetail(_loanId, \"Borrower\", amountToBorrower);\n    }\n\n    function isLoanExpired(uint256 _loanId) public view returns (bool) {\n        Loan storage loan = loans[_loanId];\n\n        if (loan.state != LoanState.PENDING) return false;\n        if (loanExpirationTime[_loanId] == 0) return false;\n\n        return (uint32(block.timestamp) >\n            loan.loanDetails.timestamp + loanExpirationTime[_loanId]);\n    }\n\n    function isLoanDefaulted(uint256 _loanId) public view returns (bool) {\n        Loan storage loan = loans[_loanId];\n\n        // Make sure loan cannot be liquidated if it is not active\n        if (loan.state != LoanState.ACCEPTED) return false;\n\n        if (loanDefaultDuration[_loanId] == 0) return false;\n\n        return (uint32(block.timestamp) - lastRepaidTimestamp(_loanId) >\n            loanDefaultDuration[_loanId]);\n    }\n\n    function lastRepaidTimestamp(uint256 _loanId) public view returns (uint32) {\n        return LibCalculations.lastRepaidTimestamp(loans[_loanId]);\n    }\n\n    function isPaymentLate(uint256 _loanId) public view returns (bool) {\n        if (loans[_loanId].state != LoanState.ACCEPTED) return false;\n        return uint32(block.timestamp) > calculateNextDueDate(_loanId);\n    }\n\n    function calculateNextDueDate(uint256 _loanId)\n        public\n        view\n        returns (uint32 dueDate_)\n    {\n        Loan storage loan = loans[_loanId];\n        if (loans[_loanId].state != LoanState.ACCEPTED) return dueDate_;\n\n        // Start with the original due date being 1 payment cycle since loan was accepted\n        dueDate_ = loan.loanDetails.acceptedTimestamp + loan.terms.paymentCycle;\n\n        // Calculate the cycle number the last repayment was made\n        uint32 delta = lastRepaidTimestamp(_loanId) -\n            loan.loanDetails.acceptedTimestamp;\n        if (delta > 0) {\n            uint32 repaymentCycle = 1 + (delta / loan.terms.paymentCycle);\n            dueDate_ += (repaymentCycle * loan.terms.paymentCycle);\n        }\n\n        //if we are in the last payment cycle, the next due date is the end of loan duration\n        if (\n            dueDate_ >\n            loan.loanDetails.acceptedTimestamp + loan.loanDetails.loanDuration\n        ) {\n            dueDate_ =\n                loan.loanDetails.acceptedTimestamp +\n                loan.loanDetails.loanDuration;\n        }\n    }\n\n    function repayYourLoan(uint256 _loanId) external {\n        if (loans[_loanId].state != LoanState.ACCEPTED) {\n            revert(\"Loan must be accepted\");\n        }\n        (\n            uint256 owedAmount,\n            uint256 dueAmount,\n            uint256 interest\n        ) = LibCalculations.owedAmount(loans[_loanId], block.timestamp);\n        _repayLoan(\n            _loanId,\n            Payment({principal: dueAmount, interest: interest}),\n            owedAmount + interest\n        );\n        emit repaidAmounts(owedAmount, dueAmount, interest);\n    }\n\n    function repayFullLoan(uint256 _loanId) external {\n        if (loans[_loanId].state != LoanState.ACCEPTED) {\n            revert(\"Loan must be accepted\");\n        }\n        (uint256 owedPrincipal, , uint256 interest) = LibCalculations\n            .owedAmount(loans[_loanId], block.timestamp);\n        _repayLoan(\n            _loanId,\n            Payment({principal: owedPrincipal, interest: interest}),\n            owedPrincipal + interest\n        );\n    }\n\n    function _repayLoan(\n        uint256 _loanId,\n        Payment memory _payment,\n        uint256 _owedAmount\n    ) internal {\n        Loan storage loan = loans[_loanId];\n        uint256 paymentAmount = _payment.principal + _payment.interest;\n        uint256 poolId_ = loan.poolId;\n        address poolAddress_ = poolRegistry(poolRegistryAddress).getPoolAddress(\n            poolId_\n        );\n\n        // StatusMark status = accountStatus(accountStatusAddress).updateStatus(\n        //     loan.borrower,\n        //     _loanId,\n        //     poolAddress_\n        // );\n\n        // Check if we are sending a payment or amount remaining\n        if (paymentAmount >= _owedAmount) {\n            paymentAmount = _owedAmount;\n            loan.state = LoanState.PAID;\n\n            // Remove borrower's active loan\n            borrowerActiveLoans[loan.borrower].remove(_loanId);\n\n            emit LoanRepaid(_loanId);\n        } else {\n            emit LoanRepayment(_loanId);\n        }\n        // Send payment to the lender\n        IERC20(loan.loanDetails.lendingToken).transferFrom(\n            loan.borrower,\n            loan.lender,\n            paymentAmount\n        );\n\n        loan.loanDetails.totalRepaid.principal += _payment.principal;\n        loan.loanDetails.totalRepaid.interest += _payment.interest;\n        loan.loanDetails.lastRepaidTimestamp = uint32(block.timestamp);\n\n        // If the loan is paid in full and has a mark, we should update the current status\n        // if (status != StatusMark.Good) {\n        //     accountStatus(accountStatusAddress).updateStatus(\n        //         loan.borrower,\n        //         _loanId,\n        //         poolAddress_\n        //     );\n        // }\n    }\n}\n",
	"sourcePath": "/Users/sanskarkhare/Desktop/Pandora/aconomy-contract/contracts/poolAddress.sol",
	"compiler": {
		"name": "solc",
		"version": "0.8.11+commit.d7f03943.Emscripten.clang"
	},
	"schemaVersion": "3.4.4",
	"updatedAt": "2023-02-06T09:00:25.783Z",
	"devdoc": {
		"kind": "dev",
		"methods": {},
		"version": 1
	},
	"userdoc": {
		"kind": "user",
		"methods": {},
		"version": 1
	}
}